{
	"data": {
		"bytecode": {
			"linkReferences": {},
			"object": "60806040523480156200001157600080fd5b5060405162001e7738038062001e77833981016040819052620000349162000484565b60018490556002839055600680546001600160a01b03808b166001600160a01b03199283161790925560078054928a1692909116919091179055426200007c83603c62000605565b620000889190620005ea565b60035560048190556200009d60003362000103565b620000c97f71f3d55856e4058ed06ee057d79ada615f65cdf5f9ee88181b914225088f834f8762000113565b620000f57f0914bb97ca83e85ef385857d9d418f187ff630589e0c9f44db92976d8e4519cb8662000113565b50505050505050506200068a565b6200010f828262000144565b5050565b6200011e82620001ce565b62000133816200012d620001e6565b620001ea565b6200013f838362000144565b505050565b62000150828262000276565b6200010f576000828152602081815260408083206001600160a01b03851684529091529020805460ff191660011790556200018a620001e6565b6001600160a01b0316816001600160a01b0316837f2f8788117e7eff1d82e926ec794901d17c78024a50270940304540a733656f0d60405160405180910390a45050565b6000818152602081905260409020600101545b919050565b3390565b620001f6828262000276565b6200010f576200021c816001600160a01b031660146200029f60201b62000e801760201c565b6200023283602062000e806200029f821b17811c565b6040516020016200024592919062000507565b60408051601f198184030181529082905262461bcd60e51b82526200026d9160040162000580565b60405180910390fd5b6000918252602082815260408084206001600160a01b0393909316845291905290205460ff1690565b60606000620002b083600262000605565b620002bd906002620005ea565b6001600160401b03811115620002e357634e487b7160e01b600052604160045260246000fd5b6040519080825280601f01601f1916602001820160405280156200030e576020820181803683370190505b509050600360fc1b816000815181106200033857634e487b7160e01b600052603260045260246000fd5b60200101906001600160f81b031916908160001a905350600f60fb1b816001815181106200037657634e487b7160e01b600052603260045260246000fd5b60200101906001600160f81b031916908160001a90535060006200039c84600262000605565b620003a9906001620005ea565b90505b600181111562000443576f181899199a1a9b1b9c1cb0b131b232b360811b85600f1660108110620003ed57634e487b7160e01b600052603260045260246000fd5b1a60f81b8282815181106200041257634e487b7160e01b600052603260045260246000fd5b60200101906001600160f81b031916908160001a90535060049490941c936200043b816200065a565b9050620003ac565b508315620004655760405162461bcd60e51b81526004016200026d90620005b5565b9392505050565b80516001600160a01b0381168114620001e157600080fd5b600080600080600080600080610100898b031215620004a1578384fd5b620004ac896200046c565b9750620004bc60208a016200046c565b9650620004cc60408a016200046c565b9550620004dc60608a016200046c565b94506080890151935060a0890151925060c0890151915060e089015190509295985092959890939650565b60007f416363657373436f6e74726f6c3a206163636f756e7420000000000000000000825283516200054181601785016020880162000627565b7001034b99036b4b9b9b4b733903937b6329607d1b60179184019182015283516200057481602884016020880162000627565b01602801949350505050565b6000602082528251806020840152620005a181604085016020870162000627565b601f01601f19169190910160400192915050565b6020808252818101527f537472696e67733a20686578206c656e67746820696e73756666696369656e74604082015260600190565b6000821982111562000600576200060062000674565b500190565b600081600019048311821515161562000622576200062262000674565b500290565b60005b83811015620006445781810151838201526020016200062a565b8381111562000654576000848401525b50505050565b6000816200066c576200066c62000674565b506000190190565b634e487b7160e01b600052601160045260246000fd5b6117dd806200069a6000396000f3fe608060405234801561001057600080fd5b50600436106101cf5760003560e01c8063711241bc11610104578063c72ade2a116100a2578063daea85c511610071578063daea85c51461038b578063e120d6b21461039e578063ec860546146103a6578063fb4db895146103b9576101cf565b8063c72ade2a14610355578063cfbd01e31461035d578063d547741f14610365578063d8cae69714610378576101cf565b8063a217fddf116100de578063a217fddf1461031f578063af9b6fa614610327578063b6b55f251461033a578063c392f7661461034d576101cf565b8063711241bc146102fc578063797669c91461030457806391d148541461030c576101cf565b80632e1a7d4d1161017157806336568abe1161014b57806336568abe146102ac578063491d0a56146102bf5780634dfefc4b146102c75780636f7bc9be146102da576101cf565b80632e1a7d4d1461027c5780632f2ff15d1461028f57806334aedecd146102a4576101cf565b80632071bee6116101ad5780632071bee61461023057806321f8f72914610243578063248a9ca31461025657806326b387bb14610269576101cf565b806301ffc9a7146101d457806302550e4d146101fd5780630e91a5a51461021d575b600080fd5b6101e76101e2366004611293565b6103cc565b6040516101f491906113ab565b60405180910390f35b61021061020b3660046111f4565b6103f7565b6040516101f491906113b6565b6101e761022b36600461124c565b61041e565b6101e761023e36600461124c565b61043c565b6102106102513660046111f4565b610455565b61021061026436600461124c565b610470565b6102106102773660046111f4565b610485565b6101e761028a36600461124c565b610497565b6102a261029d366004611264565b6106bd565b005b6102106106e1565b6102a26102ba366004611264565b610705565b61021061074b565b6101e76102d53660046111f4565b6107d1565b6102ed6102e83660046111f4565b6107e6565b6040516101f4939291906116ae565b610210610807565b61021061080d565b6101e761031a366004611264565b610831565b61021061085a565b6102106103353660046111f4565b61085f565b6101e761034836600461124c565b610886565b610210610a7b565b610210610a81565b610210610a87565b6102a2610373366004611264565b610a8d565b6101e761038636600461124c565b610aac565b6101e76103993660046111f4565b610ac5565b610210610c83565b6101e76103b43660046112d3565b610c89565b6101e76103c736600461124c565b610e67565b60006001600160e01b03198216637965db0b60e01b14806103f157506103f182611039565b92915050565b6002546001600160a01b03821660009081526008602052604081205490916103f191611052565b6000806104328161042d61107b565b61107f565b5050600255600190565b60008061044b8161042d61107b565b5050600355600190565b6001600160a01b031660009081526008602052604090205490565b60009081526020819052604090206001015490565b60096020526000908152604090205481565b6000600a60006104a561107b565b6001600160a01b0316815260208101919091526040016000205460ff166104e75760405162461bcd60e51b81526004016104de90611551565b60405180910390fd5b600860006104f361107b565b6001600160a01b03166001600160a01b03168152602001908152602001600020600101548211156105365760405162461bcd60e51b81526004016104de9061167f565b6000603c6008600061054661107b565b6001600160a01b0316815260208101919091526040016000206002015461056d904261171b565b61057791906116dc565b9050600354603c61058891906116c4565b8110156105a75760405162461bcd60e51b81526004016104de9061159b565b6006546001600160a01b031663a9059cbb6105c061107b565b856040518363ffffffff1660e01b81526004016105de929190611392565b602060405180830381600087803b1580156105f857600080fd5b505af115801561060c573d6000803e3d6000fd5b505050506040513d601f19601f82011682018060405250810190610630919061122c565b50826008600061063e61107b565b6001600160a01b03166001600160a01b031681526020019081526020016000206001016000828254610670919061171b565b9091555083905061067f61107b565b6001600160a01b03167f884edad9ce6fa2440d8a54cc123490eb96d2768479d49ff9c7366125a942436460405160405180910390a350600192915050565b6106c682610470565b6106d28161042d61107b565b6106dc83836110e3565b505050565b7f0914bb97ca83e85ef385857d9d418f187ff630589e0c9f44db92976d8e4519cb81565b61070d61107b565b6001600160a01b0316816001600160a01b03161461073d5760405162461bcd60e51b81526004016104de906115e9565b6107478282611168565b5050565b6006546040516370a0823160e01b81526000916001600160a01b0316906370a082319061077c90309060040161135a565b60206040518083038186803b15801561079457600080fd5b505afa1580156107a8573d6000803e3d6000fd5b505050506040513d601f19601f820116820180604052508101906107cc91906112bb565b905090565b600a6020526000908152604090205460ff1681565b60086020526000908152604090208054600182015460029092015490919083565b60045481565b7f71f3d55856e4058ed06ee057d79ada615f65cdf5f9ee88181b914225088f834f81565b6000918252602082815260408084206001600160a01b0393909316845291905290205460ff1690565b600081565b6001600160a01b0381166000908152600860205260408120600201546103f190429061171b565b600080826009600061089661107b565b6001600160a01b03166001600160a01b0316815260200190815260200160002060008282546108c591906116c4565b92505081905590506001548110156108ef5760405162461bcd60e51b81526004016104de90611638565b6006546001600160a01b03166323b872dd61090861107b565b30866040518463ffffffff1660e01b81526004016109289392919061136e565b602060405180830381600087803b15801561094257600080fd5b505af1158015610956573d6000803e3d6000fd5b505050506040513d601f19601f8201168201806040525081019061097a919061122c565b50600061098960025483611052565b61099390836116c4565b9050604051806060016040528083815260200182815260200142815250600860006109bc61107b565b6001600160a01b03166001600160a01b031681526020019081526020016000206000820151816000015560208201518160010155604082015181600201559050506001600a6000610a0b61107b565b6001600160a01b031681526020810191909152604001600020805460ff191691151591909117905583610a3c61107b565b6001600160a01b03167fe1fffcc4923d04b559f4d29a8bfc6cda04eb5b0d3c460751c2402c5c5cc9109c60405160405180910390a35060019392505050565b60025481565b60035481565b60015481565b610a9682610470565b610aa28161042d61107b565b6106dc8383611168565b600080610abb8161042d61107b565b5050600455600190565b60007f71f3d55856e4058ed06ee057d79ada615f65cdf5f9ee88181b914225088f834f610af48161042d61107b565b6001600160a01b038316610b1a5760405162461bcd60e51b81526004016104de9061147b565b60006001600160a01b0316600760009054906101000a90046001600160a01b03166001600160a01b0316636352211e856001600160a01b03166317d70f7c6040518163ffffffff1660e01b815260040160206040518083038186803b158015610b8257600080fd5b505afa158015610b96573d6000803e3d6000fd5b505050506040513d601f19601f82011682018060405250810190610bba91906112bb565b6040518263ffffffff1660e01b8152600401610bd691906113b6565b60206040518083038186803b158015610bee57600080fd5b505afa158015610c02573d6000803e3d6000fd5b505050506040513d601f19601f82011682018060405250810190610c269190611210565b6001600160a01b03161415610c4d5760405162461bcd60e51b81526004016104de90611503565b6001600160a01b0383166000908152600b60205260409020805460ff19166001179055610c7a60056111eb565b50600192915050565b60055481565b60007f0914bb97ca83e85ef385857d9d418f187ff630589e0c9f44db92976d8e4519cb610cb88161042d61107b565b6001600160a01b0383166000908152600b602052604090205460ff16610cf05760405162461bcd60e51b81526004016104de906114ce565b60045484610cfc61074b565b610d06919061171b565b11610d235760405162461bcd60e51b81526004016104de90611427565b60065460405163095ea7b360e01b81526001600160a01b039091169063095ea7b390610d559086908890600401611392565b602060405180830381600087803b158015610d6f57600080fd5b505af1158015610d83573d6000803e3d6000fd5b505050506040513d601f19601f82011682018060405250810190610da7919061122c565b5060405163c290d69160e01b81526001600160a01b0384169063c290d69190610dd49087906004016113b6565b602060405180830381600087803b158015610dee57600080fd5b505af1158015610e02573d6000803e3d6000fd5b505050506040513d601f19601f82011682018060405250810190610e26919061122c565b5060405184906001600160a01b038516907f1af855f8ecf9e2874e8d95b2f5b91f1afa7cea4cfac27e00fb165ebec0e671af90600090a35060019392505050565b600080610e768161042d61107b565b5050600190815590565b60606000610e8f8360026116fc565b610e9a9060026116c4565b67ffffffffffffffff811115610ec057634e487b7160e01b600052604160045260246000fd5b6040519080825280601f01601f191660200182016040528015610eea576020820181803683370190505b509050600360fc1b81600081518110610f1357634e487b7160e01b600052603260045260246000fd5b60200101906001600160f81b031916908160001a905350600f60fb1b81600181518110610f5057634e487b7160e01b600052603260045260246000fd5b60200101906001600160f81b031916908160001a9053506000610f748460026116fc565b610f7f9060016116c4565b90505b6001811115611013576f181899199a1a9b1b9c1cb0b131b232b360811b85600f1660108110610fc157634e487b7160e01b600052603260045260246000fd5b1a60f81b828281518110610fe557634e487b7160e01b600052603260045260246000fd5b60200101906001600160f81b031916908160001a90535060049490941c9361100c81611762565b9050610f82565b5083156110325760405162461bcd60e51b81526004016104de906113f2565b9392505050565b6001600160e01b031981166301ffc9a760e01b14919050565b60008068056bc75e2d6310000061106984866116fc565b61107391906116dc565b949350505050565b3390565b6110898282610831565b610747576110a1816001600160a01b03166014610e80565b6110ac836020610e80565b6040516020016110bd9291906112e5565b60408051601f198184030181529082905262461bcd60e51b82526104de916004016113bf565b6110ed8282610831565b610747576000828152602081815260408083206001600160a01b03851684529091529020805460ff1916600117905561112461107b565b6001600160a01b0316816001600160a01b0316837f2f8788117e7eff1d82e926ec794901d17c78024a50270940304540a733656f0d60405160405180910390a45050565b6111728282610831565b15610747576000828152602081815260408083206001600160a01b03851684529091529020805460ff191690556111a761107b565b6001600160a01b0316816001600160a01b0316837ff6391f5c32d9c69d2a47ea670b442974b53935d1edc7fd64eb21e047a839171b60405160405180910390a45050565b80546001019055565b600060208284031215611205578081fd5b81356110328161178f565b600060208284031215611221578081fd5b81516110328161178f565b60006020828403121561123d578081fd5b81518015158114611032578182fd5b60006020828403121561125d578081fd5b5035919050565b60008060408385031215611276578081fd5b8235915060208301356112888161178f565b809150509250929050565b6000602082840312156112a4578081fd5b81356001600160e01b031981168114611032578182fd5b6000602082840312156112cc578081fd5b5051919050565b60008060408385031215611276578182fd5b60007f416363657373436f6e74726f6c3a206163636f756e74200000000000000000008252835161131d816017850160208801611732565b7001034b99036b4b9b9b4b733903937b6329607d1b601791840191820152835161134e816028840160208801611732565b01602801949350505050565b6001600160a01b0391909116815260200190565b6001600160a01b039384168152919092166020820152604081019190915260600190565b6001600160a01b03929092168252602082015260400190565b901515815260200190565b90815260200190565b60006020825282518060208401526113de816040850160208701611732565b601f01601f19169190910160400192915050565b6020808252818101527f537472696e67733a20686578206c656e67746820696e73756666696369656e74604082015260600190565b60208082526034908201527f504f4f4c3a2054686520616d6f756e74206c656573207468616e20746865206d60408201527330b933b4b7339037b31034b73b32b9ba34b7339760611b606082015260800190565b60208082526033908201527f504f4f4c3a204d4f44455241544f5220717565727920666f72206e6f6e6578696040820152727374656e7420636f6e74726163742053616c6560681b606082015260800190565b6020808252818101527f504f4f4c3a20546869732053616c65206973206e6f7420617070726f7665642e604082015260600190565b6020808252602e908201527f504f4f4c3a204d4f44455241544f5220717565727920666f72206e6f6e20657860408201526d1a5cdd195b9d081d1bdad95b925960921b606082015260800190565b6020808252602a908201527f504f4f4c3a20596f757220617265206e6f7420616e20696e766573746f72207260408201526932b3b4b9ba32b932b21760b11b606082015260800190565b6020808252602e908201527f504f4f4c3a20596f75206861766520746f20776169742061667465722074686560408201526d103bb4ba34323930bb903230bc9760911b606082015260800190565b6020808252602f908201527f416363657373436f6e74726f6c3a2063616e206f6e6c792072656e6f756e636560408201526e103937b632b9903337b91039b2b63360891b606082015260800190565b60208082526027908201527f504f4f4c3a204d696e20696e76657374696e672065786365656473207468652060408201526630b6b7bab73a1760c91b606082015260800190565b6020808252601590820152742cb7ba903237b713ba103430bb3290333ab732399760591b604082015260600190565b9283526020830191909152604082015260600190565b600082198211156116d7576116d7611779565b500190565b6000826116f757634e487b7160e01b81526012600452602481fd5b500490565b600081600019048311821515161561171657611716611779565b500290565b60008282101561172d5761172d611779565b500390565b60005b8381101561174d578181015183820152602001611735565b8381111561175c576000848401525b50505050565b60008161177157611771611779565b506000190190565b634e487b7160e01b600052601160045260246000fd5b6001600160a01b03811681146117a457600080fd5b5056fea26469706673582212209a03640491122757636111951b82d037829a3d591c8f24adbe47c188d9687d4464736f6c63430008010033",
			"opcodes": "PUSH1 0x80 PUSH1 0x40 MSTORE CALLVALUE DUP1 ISZERO PUSH3 0x11 JUMPI PUSH1 0x0 DUP1 REVERT JUMPDEST POP PUSH1 0x40 MLOAD PUSH3 0x1E77 CODESIZE SUB DUP1 PUSH3 0x1E77 DUP4 CODECOPY DUP2 ADD PUSH1 0x40 DUP2 SWAP1 MSTORE PUSH3 0x34 SWAP2 PUSH3 0x484 JUMP JUMPDEST PUSH1 0x1 DUP5 SWAP1 SSTORE PUSH1 0x2 DUP4 SWAP1 SSTORE PUSH1 0x6 DUP1 SLOAD PUSH1 0x1 PUSH1 0x1 PUSH1 0xA0 SHL SUB DUP1 DUP12 AND PUSH1 0x1 PUSH1 0x1 PUSH1 0xA0 SHL SUB NOT SWAP3 DUP4 AND OR SWAP1 SWAP3 SSTORE PUSH1 0x7 DUP1 SLOAD SWAP3 DUP11 AND SWAP3 SWAP1 SWAP2 AND SWAP2 SWAP1 SWAP2 OR SWAP1 SSTORE TIMESTAMP PUSH3 0x7C DUP4 PUSH1 0x3C PUSH3 0x605 JUMP JUMPDEST PUSH3 0x88 SWAP2 SWAP1 PUSH3 0x5EA JUMP JUMPDEST PUSH1 0x3 SSTORE PUSH1 0x4 DUP2 SWAP1 SSTORE PUSH3 0x9D PUSH1 0x0 CALLER PUSH3 0x103 JUMP JUMPDEST PUSH3 0xC9 PUSH32 0x71F3D55856E4058ED06EE057D79ADA615F65CDF5F9EE88181B914225088F834F DUP8 PUSH3 0x113 JUMP JUMPDEST PUSH3 0xF5 PUSH32 0x914BB97CA83E85EF385857D9D418F187FF630589E0C9F44DB92976D8E4519CB DUP7 PUSH3 0x113 JUMP JUMPDEST POP POP POP POP POP POP POP POP PUSH3 0x68A JUMP JUMPDEST PUSH3 0x10F DUP3 DUP3 PUSH3 0x144 JUMP JUMPDEST POP POP JUMP JUMPDEST PUSH3 0x11E DUP3 PUSH3 0x1CE JUMP JUMPDEST PUSH3 0x133 DUP2 PUSH3 0x12D PUSH3 0x1E6 JUMP JUMPDEST PUSH3 0x1EA JUMP JUMPDEST PUSH3 0x13F DUP4 DUP4 PUSH3 0x144 JUMP JUMPDEST POP POP POP JUMP JUMPDEST PUSH3 0x150 DUP3 DUP3 PUSH3 0x276 JUMP JUMPDEST PUSH3 0x10F JUMPI PUSH1 0x0 DUP3 DUP2 MSTORE PUSH1 0x20 DUP2 DUP2 MSTORE PUSH1 0x40 DUP1 DUP4 KECCAK256 PUSH1 0x1 PUSH1 0x1 PUSH1 0xA0 SHL SUB DUP6 AND DUP5 MSTORE SWAP1 SWAP2 MSTORE SWAP1 KECCAK256 DUP1 SLOAD PUSH1 0xFF NOT AND PUSH1 0x1 OR SWAP1 SSTORE PUSH3 0x18A PUSH3 0x1E6 JUMP JUMPDEST PUSH1 0x1 PUSH1 0x1 PUSH1 0xA0 SHL SUB AND DUP2 PUSH1 0x1 PUSH1 0x1 PUSH1 0xA0 SHL SUB AND DUP4 PUSH32 0x2F8788117E7EFF1D82E926EC794901D17C78024A50270940304540A733656F0D PUSH1 0x40 MLOAD PUSH1 0x40 MLOAD DUP1 SWAP2 SUB SWAP1 LOG4 POP POP JUMP JUMPDEST PUSH1 0x0 DUP2 DUP2 MSTORE PUSH1 0x20 DUP2 SWAP1 MSTORE PUSH1 0x40 SWAP1 KECCAK256 PUSH1 0x1 ADD SLOAD JUMPDEST SWAP2 SWAP1 POP JUMP JUMPDEST CALLER SWAP1 JUMP JUMPDEST PUSH3 0x1F6 DUP3 DUP3 PUSH3 0x276 JUMP JUMPDEST PUSH3 0x10F JUMPI PUSH3 0x21C DUP2 PUSH1 0x1 PUSH1 0x1 PUSH1 0xA0 SHL SUB AND PUSH1 0x14 PUSH3 0x29F PUSH1 0x20 SHL PUSH3 0xE80 OR PUSH1 0x20 SHR JUMP JUMPDEST PUSH3 0x232 DUP4 PUSH1 0x20 PUSH3 0xE80 PUSH3 0x29F DUP3 SHL OR DUP2 SHR JUMP JUMPDEST PUSH1 0x40 MLOAD PUSH1 0x20 ADD PUSH3 0x245 SWAP3 SWAP2 SWAP1 PUSH3 0x507 JUMP JUMPDEST PUSH1 0x40 DUP1 MLOAD PUSH1 0x1F NOT DUP2 DUP5 SUB ADD DUP2 MSTORE SWAP1 DUP3 SWAP1 MSTORE PUSH3 0x461BCD PUSH1 0xE5 SHL DUP3 MSTORE PUSH3 0x26D SWAP2 PUSH1 0x4 ADD PUSH3 0x580 JUMP JUMPDEST PUSH1 0x40 MLOAD DUP1 SWAP2 SUB SWAP1 REVERT JUMPDEST PUSH1 0x0 SWAP2 DUP3 MSTORE PUSH1 0x20 DUP3 DUP2 MSTORE PUSH1 0x40 DUP1 DUP5 KECCAK256 PUSH1 0x1 PUSH1 0x1 PUSH1 0xA0 SHL SUB SWAP4 SWAP1 SWAP4 AND DUP5 MSTORE SWAP2 SWAP1 MSTORE SWAP1 KECCAK256 SLOAD PUSH1 0xFF AND SWAP1 JUMP JUMPDEST PUSH1 0x60 PUSH1 0x0 PUSH3 0x2B0 DUP4 PUSH1 0x2 PUSH3 0x605 JUMP JUMPDEST PUSH3 0x2BD SWAP1 PUSH1 0x2 PUSH3 0x5EA JUMP JUMPDEST PUSH1 0x1 PUSH1 0x1 PUSH1 0x40 SHL SUB DUP2 GT ISZERO PUSH3 0x2E3 JUMPI PUSH4 0x4E487B71 PUSH1 0xE0 SHL PUSH1 0x0 MSTORE PUSH1 0x41 PUSH1 0x4 MSTORE PUSH1 0x24 PUSH1 0x0 REVERT JUMPDEST PUSH1 0x40 MLOAD SWAP1 DUP1 DUP3 MSTORE DUP1 PUSH1 0x1F ADD PUSH1 0x1F NOT AND PUSH1 0x20 ADD DUP3 ADD PUSH1 0x40 MSTORE DUP1 ISZERO PUSH3 0x30E JUMPI PUSH1 0x20 DUP3 ADD DUP2 DUP1 CALLDATASIZE DUP4 CALLDATACOPY ADD SWAP1 POP JUMPDEST POP SWAP1 POP PUSH1 0x3 PUSH1 0xFC SHL DUP2 PUSH1 0x0 DUP2 MLOAD DUP2 LT PUSH3 0x338 JUMPI PUSH4 0x4E487B71 PUSH1 0xE0 SHL PUSH1 0x0 MSTORE PUSH1 0x32 PUSH1 0x4 MSTORE PUSH1 0x24 PUSH1 0x0 REVERT JUMPDEST PUSH1 0x20 ADD ADD SWAP1 PUSH1 0x1 PUSH1 0x1 PUSH1 0xF8 SHL SUB NOT AND SWAP1 DUP2 PUSH1 0x0 BYTE SWAP1 MSTORE8 POP PUSH1 0xF PUSH1 0xFB SHL DUP2 PUSH1 0x1 DUP2 MLOAD DUP2 LT PUSH3 0x376 JUMPI PUSH4 0x4E487B71 PUSH1 0xE0 SHL PUSH1 0x0 MSTORE PUSH1 0x32 PUSH1 0x4 MSTORE PUSH1 0x24 PUSH1 0x0 REVERT JUMPDEST PUSH1 0x20 ADD ADD SWAP1 PUSH1 0x1 PUSH1 0x1 PUSH1 0xF8 SHL SUB NOT AND SWAP1 DUP2 PUSH1 0x0 BYTE SWAP1 MSTORE8 POP PUSH1 0x0 PUSH3 0x39C DUP5 PUSH1 0x2 PUSH3 0x605 JUMP JUMPDEST PUSH3 0x3A9 SWAP1 PUSH1 0x1 PUSH3 0x5EA JUMP JUMPDEST SWAP1 POP JUMPDEST PUSH1 0x1 DUP2 GT ISZERO PUSH3 0x443 JUMPI PUSH16 0x181899199A1A9B1B9C1CB0B131B232B3 PUSH1 0x81 SHL DUP6 PUSH1 0xF AND PUSH1 0x10 DUP2 LT PUSH3 0x3ED JUMPI PUSH4 0x4E487B71 PUSH1 0xE0 SHL PUSH1 0x0 MSTORE PUSH1 0x32 PUSH1 0x4 MSTORE PUSH1 0x24 PUSH1 0x0 REVERT JUMPDEST BYTE PUSH1 0xF8 SHL DUP3 DUP3 DUP2 MLOAD DUP2 LT PUSH3 0x412 JUMPI PUSH4 0x4E487B71 PUSH1 0xE0 SHL PUSH1 0x0 MSTORE PUSH1 0x32 PUSH1 0x4 MSTORE PUSH1 0x24 PUSH1 0x0 REVERT JUMPDEST PUSH1 0x20 ADD ADD SWAP1 PUSH1 0x1 PUSH1 0x1 PUSH1 0xF8 SHL SUB NOT AND SWAP1 DUP2 PUSH1 0x0 BYTE SWAP1 MSTORE8 POP PUSH1 0x4 SWAP5 SWAP1 SWAP5 SHR SWAP4 PUSH3 0x43B DUP2 PUSH3 0x65A JUMP JUMPDEST SWAP1 POP PUSH3 0x3AC JUMP JUMPDEST POP DUP4 ISZERO PUSH3 0x465 JUMPI PUSH1 0x40 MLOAD PUSH3 0x461BCD PUSH1 0xE5 SHL DUP2 MSTORE PUSH1 0x4 ADD PUSH3 0x26D SWAP1 PUSH3 0x5B5 JUMP JUMPDEST SWAP4 SWAP3 POP POP POP JUMP JUMPDEST DUP1 MLOAD PUSH1 0x1 PUSH1 0x1 PUSH1 0xA0 SHL SUB DUP2 AND DUP2 EQ PUSH3 0x1E1 JUMPI PUSH1 0x0 DUP1 REVERT JUMPDEST PUSH1 0x0 DUP1 PUSH1 0x0 DUP1 PUSH1 0x0 DUP1 PUSH1 0x0 DUP1 PUSH2 0x100 DUP10 DUP12 SUB SLT ISZERO PUSH3 0x4A1 JUMPI DUP4 DUP5 REVERT JUMPDEST PUSH3 0x4AC DUP10 PUSH3 0x46C JUMP JUMPDEST SWAP8 POP PUSH3 0x4BC PUSH1 0x20 DUP11 ADD PUSH3 0x46C JUMP JUMPDEST SWAP7 POP PUSH3 0x4CC PUSH1 0x40 DUP11 ADD PUSH3 0x46C JUMP JUMPDEST SWAP6 POP PUSH3 0x4DC PUSH1 0x60 DUP11 ADD PUSH3 0x46C JUMP JUMPDEST SWAP5 POP PUSH1 0x80 DUP10 ADD MLOAD SWAP4 POP PUSH1 0xA0 DUP10 ADD MLOAD SWAP3 POP PUSH1 0xC0 DUP10 ADD MLOAD SWAP2 POP PUSH1 0xE0 DUP10 ADD MLOAD SWAP1 POP SWAP3 SWAP6 SWAP9 POP SWAP3 SWAP6 SWAP9 SWAP1 SWAP4 SWAP7 POP JUMP JUMPDEST PUSH1 0x0 PUSH32 0x416363657373436F6E74726F6C3A206163636F756E7420000000000000000000 DUP3 MSTORE DUP4 MLOAD PUSH3 0x541 DUP2 PUSH1 0x17 DUP6 ADD PUSH1 0x20 DUP9 ADD PUSH3 0x627 JUMP JUMPDEST PUSH17 0x1034B99036B4B9B9B4B733903937B6329 PUSH1 0x7D SHL PUSH1 0x17 SWAP2 DUP5 ADD SWAP2 DUP3 ADD MSTORE DUP4 MLOAD PUSH3 0x574 DUP2 PUSH1 0x28 DUP5 ADD PUSH1 0x20 DUP9 ADD PUSH3 0x627 JUMP JUMPDEST ADD PUSH1 0x28 ADD SWAP5 SWAP4 POP POP POP POP JUMP JUMPDEST PUSH1 0x0 PUSH1 0x20 DUP3 MSTORE DUP3 MLOAD DUP1 PUSH1 0x20 DUP5 ADD MSTORE PUSH3 0x5A1 DUP2 PUSH1 0x40 DUP6 ADD PUSH1 0x20 DUP8 ADD PUSH3 0x627 JUMP JUMPDEST PUSH1 0x1F ADD PUSH1 0x1F NOT AND SWAP2 SWAP1 SWAP2 ADD PUSH1 0x40 ADD SWAP3 SWAP2 POP POP JUMP JUMPDEST PUSH1 0x20 DUP1 DUP3 MSTORE DUP2 DUP2 ADD MSTORE PUSH32 0x537472696E67733A20686578206C656E67746820696E73756666696369656E74 PUSH1 0x40 DUP3 ADD MSTORE PUSH1 0x60 ADD SWAP1 JUMP JUMPDEST PUSH1 0x0 DUP3 NOT DUP3 GT ISZERO PUSH3 0x600 JUMPI PUSH3 0x600 PUSH3 0x674 JUMP JUMPDEST POP ADD SWAP1 JUMP JUMPDEST PUSH1 0x0 DUP2 PUSH1 0x0 NOT DIV DUP4 GT DUP3 ISZERO ISZERO AND ISZERO PUSH3 0x622 JUMPI PUSH3 0x622 PUSH3 0x674 JUMP JUMPDEST POP MUL SWAP1 JUMP JUMPDEST PUSH1 0x0 JUMPDEST DUP4 DUP2 LT ISZERO PUSH3 0x644 JUMPI DUP2 DUP2 ADD MLOAD DUP4 DUP3 ADD MSTORE PUSH1 0x20 ADD PUSH3 0x62A JUMP JUMPDEST DUP4 DUP2 GT ISZERO PUSH3 0x654 JUMPI PUSH1 0x0 DUP5 DUP5 ADD MSTORE JUMPDEST POP POP POP POP JUMP JUMPDEST PUSH1 0x0 DUP2 PUSH3 0x66C JUMPI PUSH3 0x66C PUSH3 0x674 JUMP JUMPDEST POP PUSH1 0x0 NOT ADD SWAP1 JUMP JUMPDEST PUSH4 0x4E487B71 PUSH1 0xE0 SHL PUSH1 0x0 MSTORE PUSH1 0x11 PUSH1 0x4 MSTORE PUSH1 0x24 PUSH1 0x0 REVERT JUMPDEST PUSH2 0x17DD DUP1 PUSH3 0x69A PUSH1 0x0 CODECOPY PUSH1 0x0 RETURN INVALID PUSH1 0x80 PUSH1 0x40 MSTORE CALLVALUE DUP1 ISZERO PUSH2 0x10 JUMPI PUSH1 0x0 DUP1 REVERT JUMPDEST POP PUSH1 0x4 CALLDATASIZE LT PUSH2 0x1CF JUMPI PUSH1 0x0 CALLDATALOAD PUSH1 0xE0 SHR DUP1 PUSH4 0x711241BC GT PUSH2 0x104 JUMPI DUP1 PUSH4 0xC72ADE2A GT PUSH2 0xA2 JUMPI DUP1 PUSH4 0xDAEA85C5 GT PUSH2 0x71 JUMPI DUP1 PUSH4 0xDAEA85C5 EQ PUSH2 0x38B JUMPI DUP1 PUSH4 0xE120D6B2 EQ PUSH2 0x39E JUMPI DUP1 PUSH4 0xEC860546 EQ PUSH2 0x3A6 JUMPI DUP1 PUSH4 0xFB4DB895 EQ PUSH2 0x3B9 JUMPI PUSH2 0x1CF JUMP JUMPDEST DUP1 PUSH4 0xC72ADE2A EQ PUSH2 0x355 JUMPI DUP1 PUSH4 0xCFBD01E3 EQ PUSH2 0x35D JUMPI DUP1 PUSH4 0xD547741F EQ PUSH2 0x365 JUMPI DUP1 PUSH4 0xD8CAE697 EQ PUSH2 0x378 JUMPI PUSH2 0x1CF JUMP JUMPDEST DUP1 PUSH4 0xA217FDDF GT PUSH2 0xDE JUMPI DUP1 PUSH4 0xA217FDDF EQ PUSH2 0x31F JUMPI DUP1 PUSH4 0xAF9B6FA6 EQ PUSH2 0x327 JUMPI DUP1 PUSH4 0xB6B55F25 EQ PUSH2 0x33A JUMPI DUP1 PUSH4 0xC392F766 EQ PUSH2 0x34D JUMPI PUSH2 0x1CF JUMP JUMPDEST DUP1 PUSH4 0x711241BC EQ PUSH2 0x2FC JUMPI DUP1 PUSH4 0x797669C9 EQ PUSH2 0x304 JUMPI DUP1 PUSH4 0x91D14854 EQ PUSH2 0x30C JUMPI PUSH2 0x1CF JUMP JUMPDEST DUP1 PUSH4 0x2E1A7D4D GT PUSH2 0x171 JUMPI DUP1 PUSH4 0x36568ABE GT PUSH2 0x14B JUMPI DUP1 PUSH4 0x36568ABE EQ PUSH2 0x2AC JUMPI DUP1 PUSH4 0x491D0A56 EQ PUSH2 0x2BF JUMPI DUP1 PUSH4 0x4DFEFC4B EQ PUSH2 0x2C7 JUMPI DUP1 PUSH4 0x6F7BC9BE EQ PUSH2 0x2DA JUMPI PUSH2 0x1CF JUMP JUMPDEST DUP1 PUSH4 0x2E1A7D4D EQ PUSH2 0x27C JUMPI DUP1 PUSH4 0x2F2FF15D EQ PUSH2 0x28F JUMPI DUP1 PUSH4 0x34AEDECD EQ PUSH2 0x2A4 JUMPI PUSH2 0x1CF JUMP JUMPDEST DUP1 PUSH4 0x2071BEE6 GT PUSH2 0x1AD JUMPI DUP1 PUSH4 0x2071BEE6 EQ PUSH2 0x230 JUMPI DUP1 PUSH4 0x21F8F729 EQ PUSH2 0x243 JUMPI DUP1 PUSH4 0x248A9CA3 EQ PUSH2 0x256 JUMPI DUP1 PUSH4 0x26B387BB EQ PUSH2 0x269 JUMPI PUSH2 0x1CF JUMP JUMPDEST DUP1 PUSH4 0x1FFC9A7 EQ PUSH2 0x1D4 JUMPI DUP1 PUSH4 0x2550E4D EQ PUSH2 0x1FD JUMPI DUP1 PUSH4 0xE91A5A5 EQ PUSH2 0x21D JUMPI JUMPDEST PUSH1 0x0 DUP1 REVERT JUMPDEST PUSH2 0x1E7 PUSH2 0x1E2 CALLDATASIZE PUSH1 0x4 PUSH2 0x1293 JUMP JUMPDEST PUSH2 0x3CC JUMP JUMPDEST PUSH1 0x40 MLOAD PUSH2 0x1F4 SWAP2 SWAP1 PUSH2 0x13AB JUMP JUMPDEST PUSH1 0x40 MLOAD DUP1 SWAP2 SUB SWAP1 RETURN JUMPDEST PUSH2 0x210 PUSH2 0x20B CALLDATASIZE PUSH1 0x4 PUSH2 0x11F4 JUMP JUMPDEST PUSH2 0x3F7 JUMP JUMPDEST PUSH1 0x40 MLOAD PUSH2 0x1F4 SWAP2 SWAP1 PUSH2 0x13B6 JUMP JUMPDEST PUSH2 0x1E7 PUSH2 0x22B CALLDATASIZE PUSH1 0x4 PUSH2 0x124C JUMP JUMPDEST PUSH2 0x41E JUMP JUMPDEST PUSH2 0x1E7 PUSH2 0x23E CALLDATASIZE PUSH1 0x4 PUSH2 0x124C JUMP JUMPDEST PUSH2 0x43C JUMP JUMPDEST PUSH2 0x210 PUSH2 0x251 CALLDATASIZE PUSH1 0x4 PUSH2 0x11F4 JUMP JUMPDEST PUSH2 0x455 JUMP JUMPDEST PUSH2 0x210 PUSH2 0x264 CALLDATASIZE PUSH1 0x4 PUSH2 0x124C JUMP JUMPDEST PUSH2 0x470 JUMP JUMPDEST PUSH2 0x210 PUSH2 0x277 CALLDATASIZE PUSH1 0x4 PUSH2 0x11F4 JUMP JUMPDEST PUSH2 0x485 JUMP JUMPDEST PUSH2 0x1E7 PUSH2 0x28A CALLDATASIZE PUSH1 0x4 PUSH2 0x124C JUMP JUMPDEST PUSH2 0x497 JUMP JUMPDEST PUSH2 0x2A2 PUSH2 0x29D CALLDATASIZE PUSH1 0x4 PUSH2 0x1264 JUMP JUMPDEST PUSH2 0x6BD JUMP JUMPDEST STOP JUMPDEST PUSH2 0x210 PUSH2 0x6E1 JUMP JUMPDEST PUSH2 0x2A2 PUSH2 0x2BA CALLDATASIZE PUSH1 0x4 PUSH2 0x1264 JUMP JUMPDEST PUSH2 0x705 JUMP JUMPDEST PUSH2 0x210 PUSH2 0x74B JUMP JUMPDEST PUSH2 0x1E7 PUSH2 0x2D5 CALLDATASIZE PUSH1 0x4 PUSH2 0x11F4 JUMP JUMPDEST PUSH2 0x7D1 JUMP JUMPDEST PUSH2 0x2ED PUSH2 0x2E8 CALLDATASIZE PUSH1 0x4 PUSH2 0x11F4 JUMP JUMPDEST PUSH2 0x7E6 JUMP JUMPDEST PUSH1 0x40 MLOAD PUSH2 0x1F4 SWAP4 SWAP3 SWAP2 SWAP1 PUSH2 0x16AE JUMP JUMPDEST PUSH2 0x210 PUSH2 0x807 JUMP JUMPDEST PUSH2 0x210 PUSH2 0x80D JUMP JUMPDEST PUSH2 0x1E7 PUSH2 0x31A CALLDATASIZE PUSH1 0x4 PUSH2 0x1264 JUMP JUMPDEST PUSH2 0x831 JUMP JUMPDEST PUSH2 0x210 PUSH2 0x85A JUMP JUMPDEST PUSH2 0x210 PUSH2 0x335 CALLDATASIZE PUSH1 0x4 PUSH2 0x11F4 JUMP JUMPDEST PUSH2 0x85F JUMP JUMPDEST PUSH2 0x1E7 PUSH2 0x348 CALLDATASIZE PUSH1 0x4 PUSH2 0x124C JUMP JUMPDEST PUSH2 0x886 JUMP JUMPDEST PUSH2 0x210 PUSH2 0xA7B JUMP JUMPDEST PUSH2 0x210 PUSH2 0xA81 JUMP JUMPDEST PUSH2 0x210 PUSH2 0xA87 JUMP JUMPDEST PUSH2 0x2A2 PUSH2 0x373 CALLDATASIZE PUSH1 0x4 PUSH2 0x1264 JUMP JUMPDEST PUSH2 0xA8D JUMP JUMPDEST PUSH2 0x1E7 PUSH2 0x386 CALLDATASIZE PUSH1 0x4 PUSH2 0x124C JUMP JUMPDEST PUSH2 0xAAC JUMP JUMPDEST PUSH2 0x1E7 PUSH2 0x399 CALLDATASIZE PUSH1 0x4 PUSH2 0x11F4 JUMP JUMPDEST PUSH2 0xAC5 JUMP JUMPDEST PUSH2 0x210 PUSH2 0xC83 JUMP JUMPDEST PUSH2 0x1E7 PUSH2 0x3B4 CALLDATASIZE PUSH1 0x4 PUSH2 0x12D3 JUMP JUMPDEST PUSH2 0xC89 JUMP JUMPDEST PUSH2 0x1E7 PUSH2 0x3C7 CALLDATASIZE PUSH1 0x4 PUSH2 0x124C JUMP JUMPDEST PUSH2 0xE67 JUMP JUMPDEST PUSH1 0x0 PUSH1 0x1 PUSH1 0x1 PUSH1 0xE0 SHL SUB NOT DUP3 AND PUSH4 0x7965DB0B PUSH1 0xE0 SHL EQ DUP1 PUSH2 0x3F1 JUMPI POP PUSH2 0x3F1 DUP3 PUSH2 0x1039 JUMP JUMPDEST SWAP3 SWAP2 POP POP JUMP JUMPDEST PUSH1 0x2 SLOAD PUSH1 0x1 PUSH1 0x1 PUSH1 0xA0 SHL SUB DUP3 AND PUSH1 0x0 SWAP1 DUP2 MSTORE PUSH1 0x8 PUSH1 0x20 MSTORE PUSH1 0x40 DUP2 KECCAK256 SLOAD SWAP1 SWAP2 PUSH2 0x3F1 SWAP2 PUSH2 0x1052 JUMP JUMPDEST PUSH1 0x0 DUP1 PUSH2 0x432 DUP2 PUSH2 0x42D PUSH2 0x107B JUMP JUMPDEST PUSH2 0x107F JUMP JUMPDEST POP POP PUSH1 0x2 SSTORE PUSH1 0x1 SWAP1 JUMP JUMPDEST PUSH1 0x0 DUP1 PUSH2 0x44B DUP2 PUSH2 0x42D PUSH2 0x107B JUMP JUMPDEST POP POP PUSH1 0x3 SSTORE PUSH1 0x1 SWAP1 JUMP JUMPDEST PUSH1 0x1 PUSH1 0x1 PUSH1 0xA0 SHL SUB AND PUSH1 0x0 SWAP1 DUP2 MSTORE PUSH1 0x8 PUSH1 0x20 MSTORE PUSH1 0x40 SWAP1 KECCAK256 SLOAD SWAP1 JUMP JUMPDEST PUSH1 0x0 SWAP1 DUP2 MSTORE PUSH1 0x20 DUP2 SWAP1 MSTORE PUSH1 0x40 SWAP1 KECCAK256 PUSH1 0x1 ADD SLOAD SWAP1 JUMP JUMPDEST PUSH1 0x9 PUSH1 0x20 MSTORE PUSH1 0x0 SWAP1 DUP2 MSTORE PUSH1 0x40 SWAP1 KECCAK256 SLOAD DUP2 JUMP JUMPDEST PUSH1 0x0 PUSH1 0xA PUSH1 0x0 PUSH2 0x4A5 PUSH2 0x107B JUMP JUMPDEST PUSH1 0x1 PUSH1 0x1 PUSH1 0xA0 SHL SUB AND DUP2 MSTORE PUSH1 0x20 DUP2 ADD SWAP2 SWAP1 SWAP2 MSTORE PUSH1 0x40 ADD PUSH1 0x0 KECCAK256 SLOAD PUSH1 0xFF AND PUSH2 0x4E7 JUMPI PUSH1 0x40 MLOAD PUSH3 0x461BCD PUSH1 0xE5 SHL DUP2 MSTORE PUSH1 0x4 ADD PUSH2 0x4DE SWAP1 PUSH2 0x1551 JUMP JUMPDEST PUSH1 0x40 MLOAD DUP1 SWAP2 SUB SWAP1 REVERT JUMPDEST PUSH1 0x8 PUSH1 0x0 PUSH2 0x4F3 PUSH2 0x107B JUMP JUMPDEST PUSH1 0x1 PUSH1 0x1 PUSH1 0xA0 SHL SUB AND PUSH1 0x1 PUSH1 0x1 PUSH1 0xA0 SHL SUB AND DUP2 MSTORE PUSH1 0x20 ADD SWAP1 DUP2 MSTORE PUSH1 0x20 ADD PUSH1 0x0 KECCAK256 PUSH1 0x1 ADD SLOAD DUP3 GT ISZERO PUSH2 0x536 JUMPI PUSH1 0x40 MLOAD PUSH3 0x461BCD PUSH1 0xE5 SHL DUP2 MSTORE PUSH1 0x4 ADD PUSH2 0x4DE SWAP1 PUSH2 0x167F JUMP JUMPDEST PUSH1 0x0 PUSH1 0x3C PUSH1 0x8 PUSH1 0x0 PUSH2 0x546 PUSH2 0x107B JUMP JUMPDEST PUSH1 0x1 PUSH1 0x1 PUSH1 0xA0 SHL SUB AND DUP2 MSTORE PUSH1 0x20 DUP2 ADD SWAP2 SWAP1 SWAP2 MSTORE PUSH1 0x40 ADD PUSH1 0x0 KECCAK256 PUSH1 0x2 ADD SLOAD PUSH2 0x56D SWAP1 TIMESTAMP PUSH2 0x171B JUMP JUMPDEST PUSH2 0x577 SWAP2 SWAP1 PUSH2 0x16DC JUMP JUMPDEST SWAP1 POP PUSH1 0x3 SLOAD PUSH1 0x3C PUSH2 0x588 SWAP2 SWAP1 PUSH2 0x16C4 JUMP JUMPDEST DUP2 LT ISZERO PUSH2 0x5A7 JUMPI PUSH1 0x40 MLOAD PUSH3 0x461BCD PUSH1 0xE5 SHL DUP2 MSTORE PUSH1 0x4 ADD PUSH2 0x4DE SWAP1 PUSH2 0x159B JUMP JUMPDEST PUSH1 0x6 SLOAD PUSH1 0x1 PUSH1 0x1 PUSH1 0xA0 SHL SUB AND PUSH4 0xA9059CBB PUSH2 0x5C0 PUSH2 0x107B JUMP JUMPDEST DUP6 PUSH1 0x40 MLOAD DUP4 PUSH4 0xFFFFFFFF AND PUSH1 0xE0 SHL DUP2 MSTORE PUSH1 0x4 ADD PUSH2 0x5DE SWAP3 SWAP2 SWAP1 PUSH2 0x1392 JUMP JUMPDEST PUSH1 0x20 PUSH1 0x40 MLOAD DUP1 DUP4 SUB DUP2 PUSH1 0x0 DUP8 DUP1 EXTCODESIZE ISZERO DUP1 ISZERO PUSH2 0x5F8 JUMPI PUSH1 0x0 DUP1 REVERT JUMPDEST POP GAS CALL ISZERO DUP1 ISZERO PUSH2 0x60C JUMPI RETURNDATASIZE PUSH1 0x0 DUP1 RETURNDATACOPY RETURNDATASIZE PUSH1 0x0 REVERT JUMPDEST POP POP POP POP PUSH1 0x40 MLOAD RETURNDATASIZE PUSH1 0x1F NOT PUSH1 0x1F DUP3 ADD AND DUP3 ADD DUP1 PUSH1 0x40 MSTORE POP DUP2 ADD SWAP1 PUSH2 0x630 SWAP2 SWAP1 PUSH2 0x122C JUMP JUMPDEST POP DUP3 PUSH1 0x8 PUSH1 0x0 PUSH2 0x63E PUSH2 0x107B JUMP JUMPDEST PUSH1 0x1 PUSH1 0x1 PUSH1 0xA0 SHL SUB AND PUSH1 0x1 PUSH1 0x1 PUSH1 0xA0 SHL SUB AND DUP2 MSTORE PUSH1 0x20 ADD SWAP1 DUP2 MSTORE PUSH1 0x20 ADD PUSH1 0x0 KECCAK256 PUSH1 0x1 ADD PUSH1 0x0 DUP3 DUP3 SLOAD PUSH2 0x670 SWAP2 SWAP1 PUSH2 0x171B JUMP JUMPDEST SWAP1 SWAP2 SSTORE POP DUP4 SWAP1 POP PUSH2 0x67F PUSH2 0x107B JUMP JUMPDEST PUSH1 0x1 PUSH1 0x1 PUSH1 0xA0 SHL SUB AND PUSH32 0x884EDAD9CE6FA2440D8A54CC123490EB96D2768479D49FF9C7366125A9424364 PUSH1 0x40 MLOAD PUSH1 0x40 MLOAD DUP1 SWAP2 SUB SWAP1 LOG3 POP PUSH1 0x1 SWAP3 SWAP2 POP POP JUMP JUMPDEST PUSH2 0x6C6 DUP3 PUSH2 0x470 JUMP JUMPDEST PUSH2 0x6D2 DUP2 PUSH2 0x42D PUSH2 0x107B JUMP JUMPDEST PUSH2 0x6DC DUP4 DUP4 PUSH2 0x10E3 JUMP JUMPDEST POP POP POP JUMP JUMPDEST PUSH32 0x914BB97CA83E85EF385857D9D418F187FF630589E0C9F44DB92976D8E4519CB DUP2 JUMP JUMPDEST PUSH2 0x70D PUSH2 0x107B JUMP JUMPDEST PUSH1 0x1 PUSH1 0x1 PUSH1 0xA0 SHL SUB AND DUP2 PUSH1 0x1 PUSH1 0x1 PUSH1 0xA0 SHL SUB AND EQ PUSH2 0x73D JUMPI PUSH1 0x40 MLOAD PUSH3 0x461BCD PUSH1 0xE5 SHL DUP2 MSTORE PUSH1 0x4 ADD PUSH2 0x4DE SWAP1 PUSH2 0x15E9 JUMP JUMPDEST PUSH2 0x747 DUP3 DUP3 PUSH2 0x1168 JUMP JUMPDEST POP POP JUMP JUMPDEST PUSH1 0x6 SLOAD PUSH1 0x40 MLOAD PUSH4 0x70A08231 PUSH1 0xE0 SHL DUP2 MSTORE PUSH1 0x0 SWAP2 PUSH1 0x1 PUSH1 0x1 PUSH1 0xA0 SHL SUB AND SWAP1 PUSH4 0x70A08231 SWAP1 PUSH2 0x77C SWAP1 ADDRESS SWAP1 PUSH1 0x4 ADD PUSH2 0x135A JUMP JUMPDEST PUSH1 0x20 PUSH1 0x40 MLOAD DUP1 DUP4 SUB DUP2 DUP7 DUP1 EXTCODESIZE ISZERO DUP1 ISZERO PUSH2 0x794 JUMPI PUSH1 0x0 DUP1 REVERT JUMPDEST POP GAS STATICCALL ISZERO DUP1 ISZERO PUSH2 0x7A8 JUMPI RETURNDATASIZE PUSH1 0x0 DUP1 RETURNDATACOPY RETURNDATASIZE PUSH1 0x0 REVERT JUMPDEST POP POP POP POP PUSH1 0x40 MLOAD RETURNDATASIZE PUSH1 0x1F NOT PUSH1 0x1F DUP3 ADD AND DUP3 ADD DUP1 PUSH1 0x40 MSTORE POP DUP2 ADD SWAP1 PUSH2 0x7CC SWAP2 SWAP1 PUSH2 0x12BB JUMP JUMPDEST SWAP1 POP SWAP1 JUMP JUMPDEST PUSH1 0xA PUSH1 0x20 MSTORE PUSH1 0x0 SWAP1 DUP2 MSTORE PUSH1 0x40 SWAP1 KECCAK256 SLOAD PUSH1 0xFF AND DUP2 JUMP JUMPDEST PUSH1 0x8 PUSH1 0x20 MSTORE PUSH1 0x0 SWAP1 DUP2 MSTORE PUSH1 0x40 SWAP1 KECCAK256 DUP1 SLOAD PUSH1 0x1 DUP3 ADD SLOAD PUSH1 0x2 SWAP1 SWAP3 ADD SLOAD SWAP1 SWAP2 SWAP1 DUP4 JUMP JUMPDEST PUSH1 0x4 SLOAD DUP2 JUMP JUMPDEST PUSH32 0x71F3D55856E4058ED06EE057D79ADA615F65CDF5F9EE88181B914225088F834F DUP2 JUMP JUMPDEST PUSH1 0x0 SWAP2 DUP3 MSTORE PUSH1 0x20 DUP3 DUP2 MSTORE PUSH1 0x40 DUP1 DUP5 KECCAK256 PUSH1 0x1 PUSH1 0x1 PUSH1 0xA0 SHL SUB SWAP4 SWAP1 SWAP4 AND DUP5 MSTORE SWAP2 SWAP1 MSTORE SWAP1 KECCAK256 SLOAD PUSH1 0xFF AND SWAP1 JUMP JUMPDEST PUSH1 0x0 DUP2 JUMP JUMPDEST PUSH1 0x1 PUSH1 0x1 PUSH1 0xA0 SHL SUB DUP2 AND PUSH1 0x0 SWAP1 DUP2 MSTORE PUSH1 0x8 PUSH1 0x20 MSTORE PUSH1 0x40 DUP2 KECCAK256 PUSH1 0x2 ADD SLOAD PUSH2 0x3F1 SWAP1 TIMESTAMP SWAP1 PUSH2 0x171B JUMP JUMPDEST PUSH1 0x0 DUP1 DUP3 PUSH1 0x9 PUSH1 0x0 PUSH2 0x896 PUSH2 0x107B JUMP JUMPDEST PUSH1 0x1 PUSH1 0x1 PUSH1 0xA0 SHL SUB AND PUSH1 0x1 PUSH1 0x1 PUSH1 0xA0 SHL SUB AND DUP2 MSTORE PUSH1 0x20 ADD SWAP1 DUP2 MSTORE PUSH1 0x20 ADD PUSH1 0x0 KECCAK256 PUSH1 0x0 DUP3 DUP3 SLOAD PUSH2 0x8C5 SWAP2 SWAP1 PUSH2 0x16C4 JUMP JUMPDEST SWAP3 POP POP DUP2 SWAP1 SSTORE SWAP1 POP PUSH1 0x1 SLOAD DUP2 LT ISZERO PUSH2 0x8EF JUMPI PUSH1 0x40 MLOAD PUSH3 0x461BCD PUSH1 0xE5 SHL DUP2 MSTORE PUSH1 0x4 ADD PUSH2 0x4DE SWAP1 PUSH2 0x1638 JUMP JUMPDEST PUSH1 0x6 SLOAD PUSH1 0x1 PUSH1 0x1 PUSH1 0xA0 SHL SUB AND PUSH4 0x23B872DD PUSH2 0x908 PUSH2 0x107B JUMP JUMPDEST ADDRESS DUP7 PUSH1 0x40 MLOAD DUP5 PUSH4 0xFFFFFFFF AND PUSH1 0xE0 SHL DUP2 MSTORE PUSH1 0x4 ADD PUSH2 0x928 SWAP4 SWAP3 SWAP2 SWAP1 PUSH2 0x136E JUMP JUMPDEST PUSH1 0x20 PUSH1 0x40 MLOAD DUP1 DUP4 SUB DUP2 PUSH1 0x0 DUP8 DUP1 EXTCODESIZE ISZERO DUP1 ISZERO PUSH2 0x942 JUMPI PUSH1 0x0 DUP1 REVERT JUMPDEST POP GAS CALL ISZERO DUP1 ISZERO PUSH2 0x956 JUMPI RETURNDATASIZE PUSH1 0x0 DUP1 RETURNDATACOPY RETURNDATASIZE PUSH1 0x0 REVERT JUMPDEST POP POP POP POP PUSH1 0x40 MLOAD RETURNDATASIZE PUSH1 0x1F NOT PUSH1 0x1F DUP3 ADD AND DUP3 ADD DUP1 PUSH1 0x40 MSTORE POP DUP2 ADD SWAP1 PUSH2 0x97A SWAP2 SWAP1 PUSH2 0x122C JUMP JUMPDEST POP PUSH1 0x0 PUSH2 0x989 PUSH1 0x2 SLOAD DUP4 PUSH2 0x1052 JUMP JUMPDEST PUSH2 0x993 SWAP1 DUP4 PUSH2 0x16C4 JUMP JUMPDEST SWAP1 POP PUSH1 0x40 MLOAD DUP1 PUSH1 0x60 ADD PUSH1 0x40 MSTORE DUP1 DUP4 DUP2 MSTORE PUSH1 0x20 ADD DUP3 DUP2 MSTORE PUSH1 0x20 ADD TIMESTAMP DUP2 MSTORE POP PUSH1 0x8 PUSH1 0x0 PUSH2 0x9BC PUSH2 0x107B JUMP JUMPDEST PUSH1 0x1 PUSH1 0x1 PUSH1 0xA0 SHL SUB AND PUSH1 0x1 PUSH1 0x1 PUSH1 0xA0 SHL SUB AND DUP2 MSTORE PUSH1 0x20 ADD SWAP1 DUP2 MSTORE PUSH1 0x20 ADD PUSH1 0x0 KECCAK256 PUSH1 0x0 DUP3 ADD MLOAD DUP2 PUSH1 0x0 ADD SSTORE PUSH1 0x20 DUP3 ADD MLOAD DUP2 PUSH1 0x1 ADD SSTORE PUSH1 0x40 DUP3 ADD MLOAD DUP2 PUSH1 0x2 ADD SSTORE SWAP1 POP POP PUSH1 0x1 PUSH1 0xA PUSH1 0x0 PUSH2 0xA0B PUSH2 0x107B JUMP JUMPDEST PUSH1 0x1 PUSH1 0x1 PUSH1 0xA0 SHL SUB AND DUP2 MSTORE PUSH1 0x20 DUP2 ADD SWAP2 SWAP1 SWAP2 MSTORE PUSH1 0x40 ADD PUSH1 0x0 KECCAK256 DUP1 SLOAD PUSH1 0xFF NOT AND SWAP2 ISZERO ISZERO SWAP2 SWAP1 SWAP2 OR SWAP1 SSTORE DUP4 PUSH2 0xA3C PUSH2 0x107B JUMP JUMPDEST PUSH1 0x1 PUSH1 0x1 PUSH1 0xA0 SHL SUB AND PUSH32 0xE1FFFCC4923D04B559F4D29A8BFC6CDA04EB5B0D3C460751C2402C5C5CC9109C PUSH1 0x40 MLOAD PUSH1 0x40 MLOAD DUP1 SWAP2 SUB SWAP1 LOG3 POP PUSH1 0x1 SWAP4 SWAP3 POP POP POP JUMP JUMPDEST PUSH1 0x2 SLOAD DUP2 JUMP JUMPDEST PUSH1 0x3 SLOAD DUP2 JUMP JUMPDEST PUSH1 0x1 SLOAD DUP2 JUMP JUMPDEST PUSH2 0xA96 DUP3 PUSH2 0x470 JUMP JUMPDEST PUSH2 0xAA2 DUP2 PUSH2 0x42D PUSH2 0x107B JUMP JUMPDEST PUSH2 0x6DC DUP4 DUP4 PUSH2 0x1168 JUMP JUMPDEST PUSH1 0x0 DUP1 PUSH2 0xABB DUP2 PUSH2 0x42D PUSH2 0x107B JUMP JUMPDEST POP POP PUSH1 0x4 SSTORE PUSH1 0x1 SWAP1 JUMP JUMPDEST PUSH1 0x0 PUSH32 0x71F3D55856E4058ED06EE057D79ADA615F65CDF5F9EE88181B914225088F834F PUSH2 0xAF4 DUP2 PUSH2 0x42D PUSH2 0x107B JUMP JUMPDEST PUSH1 0x1 PUSH1 0x1 PUSH1 0xA0 SHL SUB DUP4 AND PUSH2 0xB1A JUMPI PUSH1 0x40 MLOAD PUSH3 0x461BCD PUSH1 0xE5 SHL DUP2 MSTORE PUSH1 0x4 ADD PUSH2 0x4DE SWAP1 PUSH2 0x147B JUMP JUMPDEST PUSH1 0x0 PUSH1 0x1 PUSH1 0x1 PUSH1 0xA0 SHL SUB AND PUSH1 0x7 PUSH1 0x0 SWAP1 SLOAD SWAP1 PUSH2 0x100 EXP SWAP1 DIV PUSH1 0x1 PUSH1 0x1 PUSH1 0xA0 SHL SUB AND PUSH1 0x1 PUSH1 0x1 PUSH1 0xA0 SHL SUB AND PUSH4 0x6352211E DUP6 PUSH1 0x1 PUSH1 0x1 PUSH1 0xA0 SHL SUB AND PUSH4 0x17D70F7C PUSH1 0x40 MLOAD DUP2 PUSH4 0xFFFFFFFF AND PUSH1 0xE0 SHL DUP2 MSTORE PUSH1 0x4 ADD PUSH1 0x20 PUSH1 0x40 MLOAD DUP1 DUP4 SUB DUP2 DUP7 DUP1 EXTCODESIZE ISZERO DUP1 ISZERO PUSH2 0xB82 JUMPI PUSH1 0x0 DUP1 REVERT JUMPDEST POP GAS STATICCALL ISZERO DUP1 ISZERO PUSH2 0xB96 JUMPI RETURNDATASIZE PUSH1 0x0 DUP1 RETURNDATACOPY RETURNDATASIZE PUSH1 0x0 REVERT JUMPDEST POP POP POP POP PUSH1 0x40 MLOAD RETURNDATASIZE PUSH1 0x1F NOT PUSH1 0x1F DUP3 ADD AND DUP3 ADD DUP1 PUSH1 0x40 MSTORE POP DUP2 ADD SWAP1 PUSH2 0xBBA SWAP2 SWAP1 PUSH2 0x12BB JUMP JUMPDEST PUSH1 0x40 MLOAD DUP3 PUSH4 0xFFFFFFFF AND PUSH1 0xE0 SHL DUP2 MSTORE PUSH1 0x4 ADD PUSH2 0xBD6 SWAP2 SWAP1 PUSH2 0x13B6 JUMP JUMPDEST PUSH1 0x20 PUSH1 0x40 MLOAD DUP1 DUP4 SUB DUP2 DUP7 DUP1 EXTCODESIZE ISZERO DUP1 ISZERO PUSH2 0xBEE JUMPI PUSH1 0x0 DUP1 REVERT JUMPDEST POP GAS STATICCALL ISZERO DUP1 ISZERO PUSH2 0xC02 JUMPI RETURNDATASIZE PUSH1 0x0 DUP1 RETURNDATACOPY RETURNDATASIZE PUSH1 0x0 REVERT JUMPDEST POP POP POP POP PUSH1 0x40 MLOAD RETURNDATASIZE PUSH1 0x1F NOT PUSH1 0x1F DUP3 ADD AND DUP3 ADD DUP1 PUSH1 0x40 MSTORE POP DUP2 ADD SWAP1 PUSH2 0xC26 SWAP2 SWAP1 PUSH2 0x1210 JUMP JUMPDEST PUSH1 0x1 PUSH1 0x1 PUSH1 0xA0 SHL SUB AND EQ ISZERO PUSH2 0xC4D JUMPI PUSH1 0x40 MLOAD PUSH3 0x461BCD PUSH1 0xE5 SHL DUP2 MSTORE PUSH1 0x4 ADD PUSH2 0x4DE SWAP1 PUSH2 0x1503 JUMP JUMPDEST PUSH1 0x1 PUSH1 0x1 PUSH1 0xA0 SHL SUB DUP4 AND PUSH1 0x0 SWAP1 DUP2 MSTORE PUSH1 0xB PUSH1 0x20 MSTORE PUSH1 0x40 SWAP1 KECCAK256 DUP1 SLOAD PUSH1 0xFF NOT AND PUSH1 0x1 OR SWAP1 SSTORE PUSH2 0xC7A PUSH1 0x5 PUSH2 0x11EB JUMP JUMPDEST POP PUSH1 0x1 SWAP3 SWAP2 POP POP JUMP JUMPDEST PUSH1 0x5 SLOAD DUP2 JUMP JUMPDEST PUSH1 0x0 PUSH32 0x914BB97CA83E85EF385857D9D418F187FF630589E0C9F44DB92976D8E4519CB PUSH2 0xCB8 DUP2 PUSH2 0x42D PUSH2 0x107B JUMP JUMPDEST PUSH1 0x1 PUSH1 0x1 PUSH1 0xA0 SHL SUB DUP4 AND PUSH1 0x0 SWAP1 DUP2 MSTORE PUSH1 0xB PUSH1 0x20 MSTORE PUSH1 0x40 SWAP1 KECCAK256 SLOAD PUSH1 0xFF AND PUSH2 0xCF0 JUMPI PUSH1 0x40 MLOAD PUSH3 0x461BCD PUSH1 0xE5 SHL DUP2 MSTORE PUSH1 0x4 ADD PUSH2 0x4DE SWAP1 PUSH2 0x14CE JUMP JUMPDEST PUSH1 0x4 SLOAD DUP5 PUSH2 0xCFC PUSH2 0x74B JUMP JUMPDEST PUSH2 0xD06 SWAP2 SWAP1 PUSH2 0x171B JUMP JUMPDEST GT PUSH2 0xD23 JUMPI PUSH1 0x40 MLOAD PUSH3 0x461BCD PUSH1 0xE5 SHL DUP2 MSTORE PUSH1 0x4 ADD PUSH2 0x4DE SWAP1 PUSH2 0x1427 JUMP JUMPDEST PUSH1 0x6 SLOAD PUSH1 0x40 MLOAD PUSH4 0x95EA7B3 PUSH1 0xE0 SHL DUP2 MSTORE PUSH1 0x1 PUSH1 0x1 PUSH1 0xA0 SHL SUB SWAP1 SWAP2 AND SWAP1 PUSH4 0x95EA7B3 SWAP1 PUSH2 0xD55 SWAP1 DUP7 SWAP1 DUP9 SWAP1 PUSH1 0x4 ADD PUSH2 0x1392 JUMP JUMPDEST PUSH1 0x20 PUSH1 0x40 MLOAD DUP1 DUP4 SUB DUP2 PUSH1 0x0 DUP8 DUP1 EXTCODESIZE ISZERO DUP1 ISZERO PUSH2 0xD6F JUMPI PUSH1 0x0 DUP1 REVERT JUMPDEST POP GAS CALL ISZERO DUP1 ISZERO PUSH2 0xD83 JUMPI RETURNDATASIZE PUSH1 0x0 DUP1 RETURNDATACOPY RETURNDATASIZE PUSH1 0x0 REVERT JUMPDEST POP POP POP POP PUSH1 0x40 MLOAD RETURNDATASIZE PUSH1 0x1F NOT PUSH1 0x1F DUP3 ADD AND DUP3 ADD DUP1 PUSH1 0x40 MSTORE POP DUP2 ADD SWAP1 PUSH2 0xDA7 SWAP2 SWAP1 PUSH2 0x122C JUMP JUMPDEST POP PUSH1 0x40 MLOAD PUSH4 0xC290D691 PUSH1 0xE0 SHL DUP2 MSTORE PUSH1 0x1 PUSH1 0x1 PUSH1 0xA0 SHL SUB DUP5 AND SWAP1 PUSH4 0xC290D691 SWAP1 PUSH2 0xDD4 SWAP1 DUP8 SWAP1 PUSH1 0x4 ADD PUSH2 0x13B6 JUMP JUMPDEST PUSH1 0x20 PUSH1 0x40 MLOAD DUP1 DUP4 SUB DUP2 PUSH1 0x0 DUP8 DUP1 EXTCODESIZE ISZERO DUP1 ISZERO PUSH2 0xDEE JUMPI PUSH1 0x0 DUP1 REVERT JUMPDEST POP GAS CALL ISZERO DUP1 ISZERO PUSH2 0xE02 JUMPI RETURNDATASIZE PUSH1 0x0 DUP1 RETURNDATACOPY RETURNDATASIZE PUSH1 0x0 REVERT JUMPDEST POP POP POP POP PUSH1 0x40 MLOAD RETURNDATASIZE PUSH1 0x1F NOT PUSH1 0x1F DUP3 ADD AND DUP3 ADD DUP1 PUSH1 0x40 MSTORE POP DUP2 ADD SWAP1 PUSH2 0xE26 SWAP2 SWAP1 PUSH2 0x122C JUMP JUMPDEST POP PUSH1 0x40 MLOAD DUP5 SWAP1 PUSH1 0x1 PUSH1 0x1 PUSH1 0xA0 SHL SUB DUP6 AND SWAP1 PUSH32 0x1AF855F8ECF9E2874E8D95B2F5B91F1AFA7CEA4CFAC27E00FB165EBEC0E671AF SWAP1 PUSH1 0x0 SWAP1 LOG3 POP PUSH1 0x1 SWAP4 SWAP3 POP POP POP JUMP JUMPDEST PUSH1 0x0 DUP1 PUSH2 0xE76 DUP2 PUSH2 0x42D PUSH2 0x107B JUMP JUMPDEST POP POP PUSH1 0x1 SWAP1 DUP2 SSTORE SWAP1 JUMP JUMPDEST PUSH1 0x60 PUSH1 0x0 PUSH2 0xE8F DUP4 PUSH1 0x2 PUSH2 0x16FC JUMP JUMPDEST PUSH2 0xE9A SWAP1 PUSH1 0x2 PUSH2 0x16C4 JUMP JUMPDEST PUSH8 0xFFFFFFFFFFFFFFFF DUP2 GT ISZERO PUSH2 0xEC0 JUMPI PUSH4 0x4E487B71 PUSH1 0xE0 SHL PUSH1 0x0 MSTORE PUSH1 0x41 PUSH1 0x4 MSTORE PUSH1 0x24 PUSH1 0x0 REVERT JUMPDEST PUSH1 0x40 MLOAD SWAP1 DUP1 DUP3 MSTORE DUP1 PUSH1 0x1F ADD PUSH1 0x1F NOT AND PUSH1 0x20 ADD DUP3 ADD PUSH1 0x40 MSTORE DUP1 ISZERO PUSH2 0xEEA JUMPI PUSH1 0x20 DUP3 ADD DUP2 DUP1 CALLDATASIZE DUP4 CALLDATACOPY ADD SWAP1 POP JUMPDEST POP SWAP1 POP PUSH1 0x3 PUSH1 0xFC SHL DUP2 PUSH1 0x0 DUP2 MLOAD DUP2 LT PUSH2 0xF13 JUMPI PUSH4 0x4E487B71 PUSH1 0xE0 SHL PUSH1 0x0 MSTORE PUSH1 0x32 PUSH1 0x4 MSTORE PUSH1 0x24 PUSH1 0x0 REVERT JUMPDEST PUSH1 0x20 ADD ADD SWAP1 PUSH1 0x1 PUSH1 0x1 PUSH1 0xF8 SHL SUB NOT AND SWAP1 DUP2 PUSH1 0x0 BYTE SWAP1 MSTORE8 POP PUSH1 0xF PUSH1 0xFB SHL DUP2 PUSH1 0x1 DUP2 MLOAD DUP2 LT PUSH2 0xF50 JUMPI PUSH4 0x4E487B71 PUSH1 0xE0 SHL PUSH1 0x0 MSTORE PUSH1 0x32 PUSH1 0x4 MSTORE PUSH1 0x24 PUSH1 0x0 REVERT JUMPDEST PUSH1 0x20 ADD ADD SWAP1 PUSH1 0x1 PUSH1 0x1 PUSH1 0xF8 SHL SUB NOT AND SWAP1 DUP2 PUSH1 0x0 BYTE SWAP1 MSTORE8 POP PUSH1 0x0 PUSH2 0xF74 DUP5 PUSH1 0x2 PUSH2 0x16FC JUMP JUMPDEST PUSH2 0xF7F SWAP1 PUSH1 0x1 PUSH2 0x16C4 JUMP JUMPDEST SWAP1 POP JUMPDEST PUSH1 0x1 DUP2 GT ISZERO PUSH2 0x1013 JUMPI PUSH16 0x181899199A1A9B1B9C1CB0B131B232B3 PUSH1 0x81 SHL DUP6 PUSH1 0xF AND PUSH1 0x10 DUP2 LT PUSH2 0xFC1 JUMPI PUSH4 0x4E487B71 PUSH1 0xE0 SHL PUSH1 0x0 MSTORE PUSH1 0x32 PUSH1 0x4 MSTORE PUSH1 0x24 PUSH1 0x0 REVERT JUMPDEST BYTE PUSH1 0xF8 SHL DUP3 DUP3 DUP2 MLOAD DUP2 LT PUSH2 0xFE5 JUMPI PUSH4 0x4E487B71 PUSH1 0xE0 SHL PUSH1 0x0 MSTORE PUSH1 0x32 PUSH1 0x4 MSTORE PUSH1 0x24 PUSH1 0x0 REVERT JUMPDEST PUSH1 0x20 ADD ADD SWAP1 PUSH1 0x1 PUSH1 0x1 PUSH1 0xF8 SHL SUB NOT AND SWAP1 DUP2 PUSH1 0x0 BYTE SWAP1 MSTORE8 POP PUSH1 0x4 SWAP5 SWAP1 SWAP5 SHR SWAP4 PUSH2 0x100C DUP2 PUSH2 0x1762 JUMP JUMPDEST SWAP1 POP PUSH2 0xF82 JUMP JUMPDEST POP DUP4 ISZERO PUSH2 0x1032 JUMPI PUSH1 0x40 MLOAD PUSH3 0x461BCD PUSH1 0xE5 SHL DUP2 MSTORE PUSH1 0x4 ADD PUSH2 0x4DE SWAP1 PUSH2 0x13F2 JUMP JUMPDEST SWAP4 SWAP3 POP POP POP JUMP JUMPDEST PUSH1 0x1 PUSH1 0x1 PUSH1 0xE0 SHL SUB NOT DUP2 AND PUSH4 0x1FFC9A7 PUSH1 0xE0 SHL EQ SWAP2 SWAP1 POP JUMP JUMPDEST PUSH1 0x0 DUP1 PUSH9 0x56BC75E2D63100000 PUSH2 0x1069 DUP5 DUP7 PUSH2 0x16FC JUMP JUMPDEST PUSH2 0x1073 SWAP2 SWAP1 PUSH2 0x16DC JUMP JUMPDEST SWAP5 SWAP4 POP POP POP POP JUMP JUMPDEST CALLER SWAP1 JUMP JUMPDEST PUSH2 0x1089 DUP3 DUP3 PUSH2 0x831 JUMP JUMPDEST PUSH2 0x747 JUMPI PUSH2 0x10A1 DUP2 PUSH1 0x1 PUSH1 0x1 PUSH1 0xA0 SHL SUB AND PUSH1 0x14 PUSH2 0xE80 JUMP JUMPDEST PUSH2 0x10AC DUP4 PUSH1 0x20 PUSH2 0xE80 JUMP JUMPDEST PUSH1 0x40 MLOAD PUSH1 0x20 ADD PUSH2 0x10BD SWAP3 SWAP2 SWAP1 PUSH2 0x12E5 JUMP JUMPDEST PUSH1 0x40 DUP1 MLOAD PUSH1 0x1F NOT DUP2 DUP5 SUB ADD DUP2 MSTORE SWAP1 DUP3 SWAP1 MSTORE PUSH3 0x461BCD PUSH1 0xE5 SHL DUP3 MSTORE PUSH2 0x4DE SWAP2 PUSH1 0x4 ADD PUSH2 0x13BF JUMP JUMPDEST PUSH2 0x10ED DUP3 DUP3 PUSH2 0x831 JUMP JUMPDEST PUSH2 0x747 JUMPI PUSH1 0x0 DUP3 DUP2 MSTORE PUSH1 0x20 DUP2 DUP2 MSTORE PUSH1 0x40 DUP1 DUP4 KECCAK256 PUSH1 0x1 PUSH1 0x1 PUSH1 0xA0 SHL SUB DUP6 AND DUP5 MSTORE SWAP1 SWAP2 MSTORE SWAP1 KECCAK256 DUP1 SLOAD PUSH1 0xFF NOT AND PUSH1 0x1 OR SWAP1 SSTORE PUSH2 0x1124 PUSH2 0x107B JUMP JUMPDEST PUSH1 0x1 PUSH1 0x1 PUSH1 0xA0 SHL SUB AND DUP2 PUSH1 0x1 PUSH1 0x1 PUSH1 0xA0 SHL SUB AND DUP4 PUSH32 0x2F8788117E7EFF1D82E926EC794901D17C78024A50270940304540A733656F0D PUSH1 0x40 MLOAD PUSH1 0x40 MLOAD DUP1 SWAP2 SUB SWAP1 LOG4 POP POP JUMP JUMPDEST PUSH2 0x1172 DUP3 DUP3 PUSH2 0x831 JUMP JUMPDEST ISZERO PUSH2 0x747 JUMPI PUSH1 0x0 DUP3 DUP2 MSTORE PUSH1 0x20 DUP2 DUP2 MSTORE PUSH1 0x40 DUP1 DUP4 KECCAK256 PUSH1 0x1 PUSH1 0x1 PUSH1 0xA0 SHL SUB DUP6 AND DUP5 MSTORE SWAP1 SWAP2 MSTORE SWAP1 KECCAK256 DUP1 SLOAD PUSH1 0xFF NOT AND SWAP1 SSTORE PUSH2 0x11A7 PUSH2 0x107B JUMP JUMPDEST PUSH1 0x1 PUSH1 0x1 PUSH1 0xA0 SHL SUB AND DUP2 PUSH1 0x1 PUSH1 0x1 PUSH1 0xA0 SHL SUB AND DUP4 PUSH32 0xF6391F5C32D9C69D2A47EA670B442974B53935D1EDC7FD64EB21E047A839171B PUSH1 0x40 MLOAD PUSH1 0x40 MLOAD DUP1 SWAP2 SUB SWAP1 LOG4 POP POP JUMP JUMPDEST DUP1 SLOAD PUSH1 0x1 ADD SWAP1 SSTORE JUMP JUMPDEST PUSH1 0x0 PUSH1 0x20 DUP3 DUP5 SUB SLT ISZERO PUSH2 0x1205 JUMPI DUP1 DUP2 REVERT JUMPDEST DUP2 CALLDATALOAD PUSH2 0x1032 DUP2 PUSH2 0x178F JUMP JUMPDEST PUSH1 0x0 PUSH1 0x20 DUP3 DUP5 SUB SLT ISZERO PUSH2 0x1221 JUMPI DUP1 DUP2 REVERT JUMPDEST DUP2 MLOAD PUSH2 0x1032 DUP2 PUSH2 0x178F JUMP JUMPDEST PUSH1 0x0 PUSH1 0x20 DUP3 DUP5 SUB SLT ISZERO PUSH2 0x123D JUMPI DUP1 DUP2 REVERT JUMPDEST DUP2 MLOAD DUP1 ISZERO ISZERO DUP2 EQ PUSH2 0x1032 JUMPI DUP2 DUP3 REVERT JUMPDEST PUSH1 0x0 PUSH1 0x20 DUP3 DUP5 SUB SLT ISZERO PUSH2 0x125D JUMPI DUP1 DUP2 REVERT JUMPDEST POP CALLDATALOAD SWAP2 SWAP1 POP JUMP JUMPDEST PUSH1 0x0 DUP1 PUSH1 0x40 DUP4 DUP6 SUB SLT ISZERO PUSH2 0x1276 JUMPI DUP1 DUP2 REVERT JUMPDEST DUP3 CALLDATALOAD SWAP2 POP PUSH1 0x20 DUP4 ADD CALLDATALOAD PUSH2 0x1288 DUP2 PUSH2 0x178F JUMP JUMPDEST DUP1 SWAP2 POP POP SWAP3 POP SWAP3 SWAP1 POP JUMP JUMPDEST PUSH1 0x0 PUSH1 0x20 DUP3 DUP5 SUB SLT ISZERO PUSH2 0x12A4 JUMPI DUP1 DUP2 REVERT JUMPDEST DUP2 CALLDATALOAD PUSH1 0x1 PUSH1 0x1 PUSH1 0xE0 SHL SUB NOT DUP2 AND DUP2 EQ PUSH2 0x1032 JUMPI DUP2 DUP3 REVERT JUMPDEST PUSH1 0x0 PUSH1 0x20 DUP3 DUP5 SUB SLT ISZERO PUSH2 0x12CC JUMPI DUP1 DUP2 REVERT JUMPDEST POP MLOAD SWAP2 SWAP1 POP JUMP JUMPDEST PUSH1 0x0 DUP1 PUSH1 0x40 DUP4 DUP6 SUB SLT ISZERO PUSH2 0x1276 JUMPI DUP2 DUP3 REVERT JUMPDEST PUSH1 0x0 PUSH32 0x416363657373436F6E74726F6C3A206163636F756E7420000000000000000000 DUP3 MSTORE DUP4 MLOAD PUSH2 0x131D DUP2 PUSH1 0x17 DUP6 ADD PUSH1 0x20 DUP9 ADD PUSH2 0x1732 JUMP JUMPDEST PUSH17 0x1034B99036B4B9B9B4B733903937B6329 PUSH1 0x7D SHL PUSH1 0x17 SWAP2 DUP5 ADD SWAP2 DUP3 ADD MSTORE DUP4 MLOAD PUSH2 0x134E DUP2 PUSH1 0x28 DUP5 ADD PUSH1 0x20 DUP9 ADD PUSH2 0x1732 JUMP JUMPDEST ADD PUSH1 0x28 ADD SWAP5 SWAP4 POP POP POP POP JUMP JUMPDEST PUSH1 0x1 PUSH1 0x1 PUSH1 0xA0 SHL SUB SWAP2 SWAP1 SWAP2 AND DUP2 MSTORE PUSH1 0x20 ADD SWAP1 JUMP JUMPDEST PUSH1 0x1 PUSH1 0x1 PUSH1 0xA0 SHL SUB SWAP4 DUP5 AND DUP2 MSTORE SWAP2 SWAP1 SWAP3 AND PUSH1 0x20 DUP3 ADD MSTORE PUSH1 0x40 DUP2 ADD SWAP2 SWAP1 SWAP2 MSTORE PUSH1 0x60 ADD SWAP1 JUMP JUMPDEST PUSH1 0x1 PUSH1 0x1 PUSH1 0xA0 SHL SUB SWAP3 SWAP1 SWAP3 AND DUP3 MSTORE PUSH1 0x20 DUP3 ADD MSTORE PUSH1 0x40 ADD SWAP1 JUMP JUMPDEST SWAP1 ISZERO ISZERO DUP2 MSTORE PUSH1 0x20 ADD SWAP1 JUMP JUMPDEST SWAP1 DUP2 MSTORE PUSH1 0x20 ADD SWAP1 JUMP JUMPDEST PUSH1 0x0 PUSH1 0x20 DUP3 MSTORE DUP3 MLOAD DUP1 PUSH1 0x20 DUP5 ADD MSTORE PUSH2 0x13DE DUP2 PUSH1 0x40 DUP6 ADD PUSH1 0x20 DUP8 ADD PUSH2 0x1732 JUMP JUMPDEST PUSH1 0x1F ADD PUSH1 0x1F NOT AND SWAP2 SWAP1 SWAP2 ADD PUSH1 0x40 ADD SWAP3 SWAP2 POP POP JUMP JUMPDEST PUSH1 0x20 DUP1 DUP3 MSTORE DUP2 DUP2 ADD MSTORE PUSH32 0x537472696E67733A20686578206C656E67746820696E73756666696369656E74 PUSH1 0x40 DUP3 ADD MSTORE PUSH1 0x60 ADD SWAP1 JUMP JUMPDEST PUSH1 0x20 DUP1 DUP3 MSTORE PUSH1 0x34 SWAP1 DUP3 ADD MSTORE PUSH32 0x504F4F4C3A2054686520616D6F756E74206C656573207468616E20746865206D PUSH1 0x40 DUP3 ADD MSTORE PUSH20 0x30B933B4B7339037B31034B73B32B9BA34B73397 PUSH1 0x61 SHL PUSH1 0x60 DUP3 ADD MSTORE PUSH1 0x80 ADD SWAP1 JUMP JUMPDEST PUSH1 0x20 DUP1 DUP3 MSTORE PUSH1 0x33 SWAP1 DUP3 ADD MSTORE PUSH32 0x504F4F4C3A204D4F44455241544F5220717565727920666F72206E6F6E657869 PUSH1 0x40 DUP3 ADD MSTORE PUSH19 0x7374656E7420636F6E74726163742053616C65 PUSH1 0x68 SHL PUSH1 0x60 DUP3 ADD MSTORE PUSH1 0x80 ADD SWAP1 JUMP JUMPDEST PUSH1 0x20 DUP1 DUP3 MSTORE DUP2 DUP2 ADD MSTORE PUSH32 0x504F4F4C3A20546869732053616C65206973206E6F7420617070726F7665642E PUSH1 0x40 DUP3 ADD MSTORE PUSH1 0x60 ADD SWAP1 JUMP JUMPDEST PUSH1 0x20 DUP1 DUP3 MSTORE PUSH1 0x2E SWAP1 DUP3 ADD MSTORE PUSH32 0x504F4F4C3A204D4F44455241544F5220717565727920666F72206E6F6E206578 PUSH1 0x40 DUP3 ADD MSTORE PUSH14 0x1A5CDD195B9D081D1BDAD95B9259 PUSH1 0x92 SHL PUSH1 0x60 DUP3 ADD MSTORE PUSH1 0x80 ADD SWAP1 JUMP JUMPDEST PUSH1 0x20 DUP1 DUP3 MSTORE PUSH1 0x2A SWAP1 DUP3 ADD MSTORE PUSH32 0x504F4F4C3A20596F757220617265206E6F7420616E20696E766573746F722072 PUSH1 0x40 DUP3 ADD MSTORE PUSH10 0x32B3B4B9BA32B932B217 PUSH1 0xB1 SHL PUSH1 0x60 DUP3 ADD MSTORE PUSH1 0x80 ADD SWAP1 JUMP JUMPDEST PUSH1 0x20 DUP1 DUP3 MSTORE PUSH1 0x2E SWAP1 DUP3 ADD MSTORE PUSH32 0x504F4F4C3A20596F75206861766520746F207761697420616674657220746865 PUSH1 0x40 DUP3 ADD MSTORE PUSH14 0x103BB4BA34323930BB903230BC97 PUSH1 0x91 SHL PUSH1 0x60 DUP3 ADD MSTORE PUSH1 0x80 ADD SWAP1 JUMP JUMPDEST PUSH1 0x20 DUP1 DUP3 MSTORE PUSH1 0x2F SWAP1 DUP3 ADD MSTORE PUSH32 0x416363657373436F6E74726F6C3A2063616E206F6E6C792072656E6F756E6365 PUSH1 0x40 DUP3 ADD MSTORE PUSH15 0x103937B632B9903337B91039B2B633 PUSH1 0x89 SHL PUSH1 0x60 DUP3 ADD MSTORE PUSH1 0x80 ADD SWAP1 JUMP JUMPDEST PUSH1 0x20 DUP1 DUP3 MSTORE PUSH1 0x27 SWAP1 DUP3 ADD MSTORE PUSH32 0x504F4F4C3A204D696E20696E76657374696E6720657863656564732074686520 PUSH1 0x40 DUP3 ADD MSTORE PUSH7 0x30B6B7BAB73A17 PUSH1 0xC9 SHL PUSH1 0x60 DUP3 ADD MSTORE PUSH1 0x80 ADD SWAP1 JUMP JUMPDEST PUSH1 0x20 DUP1 DUP3 MSTORE PUSH1 0x15 SWAP1 DUP3 ADD MSTORE PUSH21 0x2CB7BA903237B713BA103430BB3290333AB7323997 PUSH1 0x59 SHL PUSH1 0x40 DUP3 ADD MSTORE PUSH1 0x60 ADD SWAP1 JUMP JUMPDEST SWAP3 DUP4 MSTORE PUSH1 0x20 DUP4 ADD SWAP2 SWAP1 SWAP2 MSTORE PUSH1 0x40 DUP3 ADD MSTORE PUSH1 0x60 ADD SWAP1 JUMP JUMPDEST PUSH1 0x0 DUP3 NOT DUP3 GT ISZERO PUSH2 0x16D7 JUMPI PUSH2 0x16D7 PUSH2 0x1779 JUMP JUMPDEST POP ADD SWAP1 JUMP JUMPDEST PUSH1 0x0 DUP3 PUSH2 0x16F7 JUMPI PUSH4 0x4E487B71 PUSH1 0xE0 SHL DUP2 MSTORE PUSH1 0x12 PUSH1 0x4 MSTORE PUSH1 0x24 DUP2 REVERT JUMPDEST POP DIV SWAP1 JUMP JUMPDEST PUSH1 0x0 DUP2 PUSH1 0x0 NOT DIV DUP4 GT DUP3 ISZERO ISZERO AND ISZERO PUSH2 0x1716 JUMPI PUSH2 0x1716 PUSH2 0x1779 JUMP JUMPDEST POP MUL SWAP1 JUMP JUMPDEST PUSH1 0x0 DUP3 DUP3 LT ISZERO PUSH2 0x172D JUMPI PUSH2 0x172D PUSH2 0x1779 JUMP JUMPDEST POP SUB SWAP1 JUMP JUMPDEST PUSH1 0x0 JUMPDEST DUP4 DUP2 LT ISZERO PUSH2 0x174D JUMPI DUP2 DUP2 ADD MLOAD DUP4 DUP3 ADD MSTORE PUSH1 0x20 ADD PUSH2 0x1735 JUMP JUMPDEST DUP4 DUP2 GT ISZERO PUSH2 0x175C JUMPI PUSH1 0x0 DUP5 DUP5 ADD MSTORE JUMPDEST POP POP POP POP JUMP JUMPDEST PUSH1 0x0 DUP2 PUSH2 0x1771 JUMPI PUSH2 0x1771 PUSH2 0x1779 JUMP JUMPDEST POP PUSH1 0x0 NOT ADD SWAP1 JUMP JUMPDEST PUSH4 0x4E487B71 PUSH1 0xE0 SHL PUSH1 0x0 MSTORE PUSH1 0x11 PUSH1 0x4 MSTORE PUSH1 0x24 PUSH1 0x0 REVERT JUMPDEST PUSH1 0x1 PUSH1 0x1 PUSH1 0xA0 SHL SUB DUP2 AND DUP2 EQ PUSH2 0x17A4 JUMPI PUSH1 0x0 DUP1 REVERT JUMPDEST POP JUMP INVALID LOG2 PUSH5 0x6970667358 0x22 SLT KECCAK256 SWAP11 SUB PUSH5 0x491122757 PUSH4 0x6111951B DUP3 0xD0 CALLDATACOPY DUP3 SWAP11 RETURNDATASIZE MSIZE SHR DUP16 0x24 0xAD 0xBE SELFBALANCE 0xC1 DUP9 0xD9 PUSH9 0x7D4464736F6C634300 ADDMOD ADD STOP CALLER "
		},
		"gasEstimates": {
			"creation": {
				"codeDepositCost": "1221800",
				"executionCost": "infinite",
				"totalCost": "infinite"
			},
			"external": {
				"DEFAULT_ADMIN_ROLE()": "273",
				"FUNDER_ROLE()": "318",
				"MODERATOR_ROLE()": "296",
				"_interest(uint256)": "infinite",
				"_liquidity()": "infinite",
				"_marginInvestment(uint256)": "infinite",
				"_minInvesting(uint256)": "infinite",
				"_numberOfInvestment()": "1094",
				"_stakingDays(uint256)": "infinite",
				"approve(address)": "infinite",
				"deposit(uint256)": "infinite",
				"exist(address)": "1347",
				"funding(uint256,address)": "infinite",
				"getRoleAdmin(bytes32)": "1270",
				"grantRole(bytes32,address)": "infinite",
				"hasRole(bytes32,address)": "1472",
				"interest()": "1139",
				"investingOf(address)": "1332",
				"investors(address)": "3035",
				"marginInvestment()": "1074",
				"minInvesting()": "1095",
				"pendingReturns(address)": "1358",
				"profit(address)": "2354",
				"renounceRole(bytes32,address)": "infinite",
				"revokeRole(bytes32,address)": "infinite",
				"showRemainingTimeToWithdraw(address)": "1416",
				"stakingDays()": "1073",
				"supportsInterface(bytes4)": "539",
				"withdraw(uint256)": "infinite"
			},
			"internal": {
				"_profit(uint256,uint256)": "184"
			}
		},
		"methodIdentifiers": {
			"DEFAULT_ADMIN_ROLE()": "a217fddf",
			"FUNDER_ROLE()": "34aedecd",
			"MODERATOR_ROLE()": "797669c9",
			"_interest(uint256)": "0e91a5a5",
			"_liquidity()": "491d0a56",
			"_marginInvestment(uint256)": "d8cae697",
			"_minInvesting(uint256)": "fb4db895",
			"_numberOfInvestment()": "e120d6b2",
			"_stakingDays(uint256)": "2071bee6",
			"approve(address)": "daea85c5",
			"deposit(uint256)": "b6b55f25",
			"exist(address)": "4dfefc4b",
			"funding(uint256,address)": "ec860546",
			"getRoleAdmin(bytes32)": "248a9ca3",
			"grantRole(bytes32,address)": "2f2ff15d",
			"hasRole(bytes32,address)": "91d14854",
			"interest()": "c392f766",
			"investingOf(address)": "21f8f729",
			"investors(address)": "6f7bc9be",
			"marginInvestment()": "711241bc",
			"minInvesting()": "cfbd01e3",
			"pendingReturns(address)": "26b387bb",
			"profit(address)": "02550e4d",
			"renounceRole(bytes32,address)": "36568abe",
			"revokeRole(bytes32,address)": "d547741f",
			"showRemainingTimeToWithdraw(address)": "af9b6fa6",
			"stakingDays()": "c72ade2a",
			"supportsInterface(bytes4)": "01ffc9a7",
			"withdraw(uint256)": "2e1a7d4d"
		}
	},
	"abi": [
		{
			"inputs": [
				{
					"internalType": "address",
					"name": "asset",
					"type": "address"
				},
				{
					"internalType": "address",
					"name": "reservaERC721",
					"type": "address"
				},
				{
					"internalType": "address",
					"name": "accountModerator",
					"type": "address"
				},
				{
					"internalType": "address",
					"name": "accountFunder",
					"type": "address"
				},
				{
					"internalType": "uint256",
					"name": "MinInvesting",
					"type": "uint256"
				},
				{
					"internalType": "uint256",
					"name": "Rate",
					"type": "uint256"
				},
				{
					"internalType": "uint256",
					"name": "StakingDays",
					"type": "uint256"
				},
				{
					"internalType": "uint256",
					"name": "MarginInvestment",
					"type": "uint256"
				}
			],
			"stateMutability": "nonpayable",
			"type": "constructor"
		},
		{
			"anonymous": false,
			"inputs": [
				{
					"indexed": true,
					"internalType": "address",
					"name": "investor",
					"type": "address"
				},
				{
					"indexed": true,
					"internalType": "uint256",
					"name": "amount",
					"type": "uint256"
				}
			],
			"name": "Deposit",
			"type": "event"
		},
		{
			"anonymous": false,
			"inputs": [
				{
					"indexed": true,
					"internalType": "address",
					"name": "contractSale",
					"type": "address"
				},
				{
					"indexed": true,
					"internalType": "uint256",
					"name": "amountFounding",
					"type": "uint256"
				}
			],
			"name": "Funding",
			"type": "event"
		},
		{
			"anonymous": false,
			"inputs": [
				{
					"indexed": true,
					"internalType": "bytes32",
					"name": "role",
					"type": "bytes32"
				},
				{
					"indexed": true,
					"internalType": "bytes32",
					"name": "previousAdminRole",
					"type": "bytes32"
				},
				{
					"indexed": true,
					"internalType": "bytes32",
					"name": "newAdminRole",
					"type": "bytes32"
				}
			],
			"name": "RoleAdminChanged",
			"type": "event"
		},
		{
			"anonymous": false,
			"inputs": [
				{
					"indexed": true,
					"internalType": "bytes32",
					"name": "role",
					"type": "bytes32"
				},
				{
					"indexed": true,
					"internalType": "address",
					"name": "account",
					"type": "address"
				},
				{
					"indexed": true,
					"internalType": "address",
					"name": "sender",
					"type": "address"
				}
			],
			"name": "RoleGranted",
			"type": "event"
		},
		{
			"anonymous": false,
			"inputs": [
				{
					"indexed": true,
					"internalType": "bytes32",
					"name": "role",
					"type": "bytes32"
				},
				{
					"indexed": true,
					"internalType": "address",
					"name": "account",
					"type": "address"
				},
				{
					"indexed": true,
					"internalType": "address",
					"name": "sender",
					"type": "address"
				}
			],
			"name": "RoleRevoked",
			"type": "event"
		},
		{
			"anonymous": false,
			"inputs": [
				{
					"indexed": true,
					"internalType": "address",
					"name": "investor",
					"type": "address"
				},
				{
					"indexed": true,
					"internalType": "uint256",
					"name": "amount",
					"type": "uint256"
				}
			],
			"name": "Withdraw",
			"type": "event"
		},
		{
			"inputs": [],
			"name": "DEFAULT_ADMIN_ROLE",
			"outputs": [
				{
					"internalType": "bytes32",
					"name": "",
					"type": "bytes32"
				}
			],
			"stateMutability": "view",
			"type": "function"
		},
		{
			"inputs": [],
			"name": "FUNDER_ROLE",
			"outputs": [
				{
					"internalType": "bytes32",
					"name": "",
					"type": "bytes32"
				}
			],
			"stateMutability": "view",
			"type": "function"
		},
		{
			"inputs": [],
			"name": "MODERATOR_ROLE",
			"outputs": [
				{
					"internalType": "bytes32",
					"name": "",
					"type": "bytes32"
				}
			],
			"stateMutability": "view",
			"type": "function"
		},
		{
			"inputs": [
				{
					"internalType": "uint256",
					"name": "newInterest",
					"type": "uint256"
				}
			],
			"name": "_interest",
			"outputs": [
				{
					"internalType": "bool",
					"name": "",
					"type": "bool"
				}
			],
			"stateMutability": "nonpayable",
			"type": "function"
		},
		{
			"inputs": [],
			"name": "_liquidity",
			"outputs": [
				{
					"internalType": "uint256",
					"name": "liquidity",
					"type": "uint256"
				}
			],
			"stateMutability": "view",
			"type": "function"
		},
		{
			"inputs": [
				{
					"internalType": "uint256",
					"name": "newMarginInvestmment",
					"type": "uint256"
				}
			],
			"name": "_marginInvestment",
			"outputs": [
				{
					"internalType": "bool",
					"name": "",
					"type": "bool"
				}
			],
			"stateMutability": "nonpayable",
			"type": "function"
		},
		{
			"inputs": [
				{
					"internalType": "uint256",
					"name": "newMinInvesting",
					"type": "uint256"
				}
			],
			"name": "_minInvesting",
			"outputs": [
				{
					"internalType": "bool",
					"name": "",
					"type": "bool"
				}
			],
			"stateMutability": "nonpayable",
			"type": "function"
		},
		{
			"inputs": [],
			"name": "_numberOfInvestment",
			"outputs": [
				{
					"internalType": "uint256",
					"name": "_value",
					"type": "uint256"
				}
			],
			"stateMutability": "view",
			"type": "function"
		},
		{
			"inputs": [
				{
					"internalType": "uint256",
					"name": "newStakingDays",
					"type": "uint256"
				}
			],
			"name": "_stakingDays",
			"outputs": [
				{
					"internalType": "bool",
					"name": "",
					"type": "bool"
				}
			],
			"stateMutability": "nonpayable",
			"type": "function"
		},
		{
			"inputs": [
				{
					"internalType": "address",
					"name": "contractSale",
					"type": "address"
				}
			],
			"name": "approve",
			"outputs": [
				{
					"internalType": "bool",
					"name": "",
					"type": "bool"
				}
			],
			"stateMutability": "nonpayable",
			"type": "function"
		},
		{
			"inputs": [
				{
					"internalType": "uint256",
					"name": "_amount",
					"type": "uint256"
				}
			],
			"name": "deposit",
			"outputs": [
				{
					"internalType": "bool",
					"name": "",
					"type": "bool"
				}
			],
			"stateMutability": "nonpayable",
			"type": "function"
		},
		{
			"inputs": [
				{
					"internalType": "address",
					"name": "",
					"type": "address"
				}
			],
			"name": "exist",
			"outputs": [
				{
					"internalType": "bool",
					"name": "",
					"type": "bool"
				}
			],
			"stateMutability": "view",
			"type": "function"
		},
		{
			"inputs": [
				{
					"internalType": "uint256",
					"name": "_amount",
					"type": "uint256"
				},
				{
					"internalType": "address",
					"name": "contractSale",
					"type": "address"
				}
			],
			"name": "funding",
			"outputs": [
				{
					"internalType": "bool",
					"name": "",
					"type": "bool"
				}
			],
			"stateMutability": "nonpayable",
			"type": "function"
		},
		{
			"inputs": [
				{
					"internalType": "bytes32",
					"name": "role",
					"type": "bytes32"
				}
			],
			"name": "getRoleAdmin",
			"outputs": [
				{
					"internalType": "bytes32",
					"name": "",
					"type": "bytes32"
				}
			],
			"stateMutability": "view",
			"type": "function"
		},
		{
			"inputs": [
				{
					"internalType": "bytes32",
					"name": "role",
					"type": "bytes32"
				},
				{
					"internalType": "address",
					"name": "account",
					"type": "address"
				}
			],
			"name": "grantRole",
			"outputs": [],
			"stateMutability": "nonpayable",
			"type": "function"
		},
		{
			"inputs": [
				{
					"internalType": "bytes32",
					"name": "role",
					"type": "bytes32"
				},
				{
					"internalType": "address",
					"name": "account",
					"type": "address"
				}
			],
			"name": "hasRole",
			"outputs": [
				{
					"internalType": "bool",
					"name": "",
					"type": "bool"
				}
			],
			"stateMutability": "view",
			"type": "function"
		},
		{
			"inputs": [],
			"name": "interest",
			"outputs": [
				{
					"internalType": "uint256",
					"name": "",
					"type": "uint256"
				}
			],
			"stateMutability": "view",
			"type": "function"
		},
		{
			"inputs": [
				{
					"internalType": "address",
					"name": "_investor",
					"type": "address"
				}
			],
			"name": "investingOf",
			"outputs": [
				{
					"internalType": "uint256",
					"name": "balance",
					"type": "uint256"
				}
			],
			"stateMutability": "view",
			"type": "function"
		},
		{
			"inputs": [
				{
					"internalType": "address",
					"name": "",
					"type": "address"
				}
			],
			"name": "investors",
			"outputs": [
				{
					"internalType": "uint256",
					"name": "amountFounding",
					"type": "uint256"
				},
				{
					"internalType": "uint256",
					"name": "benefits",
					"type": "uint256"
				},
				{
					"internalType": "uint256",
					"name": "dayDeposit",
					"type": "uint256"
				}
			],
			"stateMutability": "view",
			"type": "function"
		},
		{
			"inputs": [],
			"name": "marginInvestment",
			"outputs": [
				{
					"internalType": "uint256",
					"name": "",
					"type": "uint256"
				}
			],
			"stateMutability": "view",
			"type": "function"
		},
		{
			"inputs": [],
			"name": "minInvesting",
			"outputs": [
				{
					"internalType": "uint256",
					"name": "",
					"type": "uint256"
				}
			],
			"stateMutability": "view",
			"type": "function"
		},
		{
			"inputs": [
				{
					"internalType": "address",
					"name": "",
					"type": "address"
				}
			],
			"name": "pendingReturns",
			"outputs": [
				{
					"internalType": "uint256",
					"name": "",
					"type": "uint256"
				}
			],
			"stateMutability": "view",
			"type": "function"
		},
		{
			"inputs": [
				{
					"internalType": "address",
					"name": "_investor",
					"type": "address"
				}
			],
			"name": "profit",
			"outputs": [
				{
					"internalType": "uint256",
					"name": "",
					"type": "uint256"
				}
			],
			"stateMutability": "view",
			"type": "function"
		},
		{
			"inputs": [
				{
					"internalType": "bytes32",
					"name": "role",
					"type": "bytes32"
				},
				{
					"internalType": "address",
					"name": "account",
					"type": "address"
				}
			],
			"name": "renounceRole",
			"outputs": [],
			"stateMutability": "nonpayable",
			"type": "function"
		},
		{
			"inputs": [
				{
					"internalType": "bytes32",
					"name": "role",
					"type": "bytes32"
				},
				{
					"internalType": "address",
					"name": "account",
					"type": "address"
				}
			],
			"name": "revokeRole",
			"outputs": [],
			"stateMutability": "nonpayable",
			"type": "function"
		},
		{
			"inputs": [
				{
					"internalType": "address",
					"name": "investor",
					"type": "address"
				}
			],
			"name": "showRemainingTimeToWithdraw",
			"outputs": [
				{
					"internalType": "uint256",
					"name": "",
					"type": "uint256"
				}
			],
			"stateMutability": "view",
			"type": "function"
		},
		{
			"inputs": [],
			"name": "stakingDays",
			"outputs": [
				{
					"internalType": "uint256",
					"name": "",
					"type": "uint256"
				}
			],
			"stateMutability": "view",
			"type": "function"
		},
		{
			"inputs": [
				{
					"internalType": "bytes4",
					"name": "interfaceId",
					"type": "bytes4"
				}
			],
			"name": "supportsInterface",
			"outputs": [
				{
					"internalType": "bool",
					"name": "",
					"type": "bool"
				}
			],
			"stateMutability": "view",
			"type": "function"
		},
		{
			"inputs": [
				{
					"internalType": "uint256",
					"name": "_valueWithdrawal",
					"type": "uint256"
				}
			],
			"name": "withdraw",
			"outputs": [
				{
					"internalType": "bool",
					"name": "",
					"type": "bool"
				}
			],
			"stateMutability": "nonpayable",
			"type": "function"
		}
	]
}