{
  "contractName": "MarketPlace",
  "abi": [
    {
      "inputs": [
        {
          "internalType": "address",
          "name": "_asset",
          "type": "address"
        },
        {
          "internalType": "address",
          "name": "_commodity",
          "type": "address"
        }
      ],
      "stateMutability": "nonpayable",
      "type": "constructor"
    },
    {
      "anonymous": false,
      "inputs": [
        {
          "indexed": false,
          "internalType": "uint256",
          "name": "tokenId",
          "type": "uint256"
        },
        {
          "indexed": false,
          "internalType": "uint256",
          "name": "price",
          "type": "uint256"
        }
      ],
      "name": "PriceSeted",
      "type": "event"
    },
    {
      "anonymous": false,
      "inputs": [
        {
          "indexed": false,
          "internalType": "address",
          "name": "recipient",
          "type": "address"
        },
        {
          "indexed": false,
          "internalType": "uint256",
          "name": "tokenId",
          "type": "uint256"
        },
        {
          "indexed": true,
          "internalType": "uint256",
          "name": "hightBlock",
          "type": "uint256"
        }
      ],
      "name": "SuccessTrade",
      "type": "event"
    },
    {
      "inputs": [],
      "name": "nonce",
      "outputs": [
        {
          "internalType": "uint256",
          "name": "_value",
          "type": "uint256"
        }
      ],
      "stateMutability": "view",
      "type": "function"
    },
    {
      "inputs": [
        {
          "internalType": "bytes4",
          "name": "interfaceId",
          "type": "bytes4"
        }
      ],
      "name": "supportsInterface",
      "outputs": [
        {
          "internalType": "bool",
          "name": "",
          "type": "bool"
        }
      ],
      "stateMutability": "view",
      "type": "function"
    },
    {
      "inputs": [
        {
          "internalType": "uint256",
          "name": "_tokenId",
          "type": "uint256"
        },
        {
          "internalType": "uint256",
          "name": "_value",
          "type": "uint256"
        }
      ],
      "name": "pay",
      "outputs": [
        {
          "internalType": "bool",
          "name": "",
          "type": "bool"
        }
      ],
      "stateMutability": "nonpayable",
      "type": "function"
    },
    {
      "inputs": [
        {
          "internalType": "uint256",
          "name": "_tokenId",
          "type": "uint256"
        },
        {
          "internalType": "uint256",
          "name": "_price",
          "type": "uint256"
        }
      ],
      "name": "putPriceToItem",
      "outputs": [
        {
          "internalType": "bool",
          "name": "",
          "type": "bool"
        }
      ],
      "stateMutability": "nonpayable",
      "type": "function"
    }
  ],
  "bytecode": "0x608060405234801561001057600080fd5b506040516108bb3803806108bb83398101604081905261002f9161007c565b600180546001600160a01b039384166001600160a01b031991821617909155600280549290931691161790556100ae565b80516001600160a01b038116811461007757600080fd5b919050565b6000806040838503121561008e578182fd5b61009783610060565b91506100a560208401610060565b90509250929050565b6107fe806100bd6000396000f3fe608060405234801561001057600080fd5b506004361061004c5760003560e01c806301ffc9a7146100515780638da9d6421461007a578063affed0e01461008d578063ef48eee6146100a2575b600080fd5b61006461005f3660046105c4565b6100b5565b604051610071919061064a565b60405180910390f35b6100646100883660046105ec565b6100fb565b6100956102ed565b60405161007191906107b1565b6100646100b03660046105ec565b6102f3565b60006001600160e01b031982166336372b0760e01b14806100e657506001600160e01b031982166380ac58cd60e01b145b806100f557506100f582610550565b92915050565b6002546040516331a9108f60e11b815260009133916001600160a01b0390911690636352211e906101309087906004016107b1565b60206040518083038186803b15801561014857600080fd5b505afa15801561015c573d6000803e3d6000fd5b505050506040513d601f19601f820116820180604052508101906101809190610576565b6001600160a01b0316146101af5760405162461bcd60e51b81526004016101a690610763565b60405180910390fd5b60008381526004602052604090205460ff16156101de5760405162461bcd60e51b81526004016101a6906106cb565b60025460405163020604bf60e21b815230916001600160a01b03169063081812fc9061020e9087906004016107b1565b60206040518083038186803b15801561022657600080fd5b505afa15801561023a573d6000803e3d6000fd5b505050506040513d601f19601f8201168201806040525081019061025e9190610576565b6001600160a01b0316146102845760405162461bcd60e51b81526004016101a690610714565b6000838152600360209081526040808320859055600490915290819020805460ff19166001179055517fb45b13eea2b3a850c9e2a104d766cb38d025908dbfbdc5cede6916a8be30868e906102dc90859085906107ba565b60405180910390a150600192915050565b60005481565b60008281526003602052604081205482146103205760405162461bcd60e51b81526004016101a690610655565b6001546002546040516331a9108f60e11b81526001600160a01b03928316926323b872dd923392911690636352211e9061035e9089906004016107b1565b60206040518083038186803b15801561037657600080fd5b505afa15801561038a573d6000803e3d6000fd5b505050506040513d601f19601f820116820180604052508101906103ae9190610576565b856040518463ffffffff1660e01b81526004016103cd9392919061060d565b602060405180830381600087803b1580156103e757600080fd5b505af11580156103fb573d6000803e3d6000fd5b505050506040513d601f19601f8201168201806040525081019061041f91906105a4565b506002546040516331a9108f60e11b81526001600160a01b03909116906323b872dd908290636352211e906104589088906004016107b1565b60206040518083038186803b15801561047057600080fd5b505afa158015610484573d6000803e3d6000fd5b505050506040513d601f19601f820116820180604052508101906104a89190610576565b33866040518463ffffffff1660e01b81526004016104c89392919061060d565b600060405180830381600087803b1580156104e257600080fd5b505af11580156104f6573d6000803e3d6000fd5b505050506105046000610569565b61050e6000610572565b7f733773760b3de2eff8d7b67b0be89282fa65b36fb337d8ba655786c73fcc684b338560405161053f929190610631565b60405180910390a250600192915050565b6001600160e01b031981166301ffc9a760e01b14919050565b80546001019055565b5490565b600060208284031215610587578081fd5b81516001600160a01b038116811461059d578182fd5b9392505050565b6000602082840312156105b5578081fd5b8151801515811461059d578182fd5b6000602082840312156105d5578081fd5b81356001600160e01b03198116811461059d578182fd5b600080604083850312156105fe578081fd5b50508035926020909101359150565b6001600160a01b039384168152919092166020820152604081019190915260600190565b6001600160a01b03929092168252602082015260400190565b901515815260200190565b60208082526050908201527f4d61726b6574706c6163653a205468652076616c7565207468617420796f752060408201527f74727920746f20706179206e6f74206d6174636820776974682074686520766160608201526f6c7565206f6620636f6d6d6f6469747960801b608082015260a00190565b60208082526029908201527f4d61726b6574706c6163653a2054686973206974656d207072696365206974206040820152681dd85cc81cd95d195960ba1b606082015260800190565b6020808252602f908201527f4d61726b6574706c6163653a204920646f6e277420686176652072696768742060408201526e37bb32b9103a3434b99034ba32b69760891b606082015260800190565b6020808252602e908201527f4d61726b6574506c61636520596f7520617265206e6f7420746865206f776e6560408201526d72206f662074686973206974656d60901b606082015260800190565b90815260200190565b91825260208201526040019056fea26469706673582212200fe42fb3951886292243b9e34b725d461c5af0ebb9f10e874d8c4adc6e6df8b764736f6c63430008000033",
  "immutableReferences": {},
  "source": "// SPDX-License-Identifier: MIT\npragma solidity >=0.8.0 <0.9.0;\n\nimport \"@openzeppelin/contracts/token/ERC20/IERC20.sol\";\nimport \"@openzeppelin/contracts/token/ERC721/IERC721.sol\";\nimport \"@openzeppelin/contracts/utils/introspection/ERC165.sol\";\nimport \"@openzeppelin/contracts/utils/Counters.sol\";\n\ncontract MarketPlace is ERC165{\n  using Counters for Counters.Counter;\n  Counters.Counter public nonce;\n  IERC20 asset;\n  IERC721 commodity;\n\n\n\n  mapping (uint256 => uint256) private priceItems;\n  mapping (uint256 => bool) private isPriceSeted;\n\n  event SuccessTrade(address recipient, uint256 tokenId, uint256 indexed hightBlock);\n  event PriceSeted(uint256 tokenId, uint256 price);\n\n  constructor(address _asset, address _commodity) {\n    asset = IERC20(_asset);\n    commodity = IERC721(_commodity);\n  }\n\n  function supportsInterface(bytes4 interfaceId) public view virtual override returns (bool) {\n        return interfaceId == type(IERC20).interfaceId\n            || interfaceId == type(IERC721).interfaceId || super.supportsInterface(interfaceId);\n  }\n\n  function pay(uint256 _tokenId, uint256 _value) external returns (bool){\n    require(priceItems[_tokenId] == _value, \"Marketplace: The value that you try to pay not match with the value of commodity\");\n    asset.transferFrom(msg.sender, commodity.ownerOf(_tokenId), _value);\n    commodity.transferFrom(commodity.ownerOf(_tokenId), msg.sender, _tokenId);\n    nonce.increment();\n    emit SuccessTrade(msg.sender, _tokenId, nonce.current());\n    return true;\n  }\n\n  function putPriceToItem(uint256 _tokenId, uint256 _price) external returns (bool) {\n    require(commodity.ownerOf(_tokenId) == msg.sender, \"MarketPlace You are not the owner of this item\");\n    require(isPriceSeted[_tokenId] == false, \"Marketplace: This item price it was seted\");\n    require(commodity.getApproved(_tokenId) == address(this), \"Marketplace: I don't have right over this item.\");\n    priceItems[_tokenId] = _price;\n    isPriceSeted[_tokenId] = true;\n    emit PriceSeted(_tokenId, _price);\n    return true;\n\n  }\n\n  \n}\n",
  "sourcePath": "D:/Trabajo/0-Reservafs/Proyectos/DIF PROJECT/DIF/contracts/MarketPlace.sol",
  "compiler": {
    "name": "solc",
    "version": "0.8.0+commit.c7dfd78e.Emscripten.clang"
  },
  "schemaVersion": "3.3.4",
  "updatedAt": "2021-08-03T03:35:34.406Z",
  "devdoc": {
    "kind": "dev",
    "methods": {
      "supportsInterface(bytes4)": {
        "details": "See {IERC165-supportsInterface}."
      }
    },
    "version": 1
  },
  "userdoc": {
    "kind": "user",
    "methods": {},
    "version": 1
  }
}