{
  "contractName": "POOL",
  "abi": [
    {
      "inputs": [
        {
          "internalType": "address",
          "name": "asset",
          "type": "address"
        },
        {
          "internalType": "uint256",
          "name": "MinInvesting",
          "type": "uint256"
        },
        {
          "internalType": "uint256",
          "name": "Rate",
          "type": "uint256"
        },
        {
          "internalType": "uint256",
          "name": "WithdrawDay",
          "type": "uint256"
        },
        {
          "internalType": "uint256",
          "name": "MarginInvestment",
          "type": "uint256"
        }
      ],
      "stateMutability": "nonpayable",
      "type": "constructor"
    },
    {
      "anonymous": false,
      "inputs": [
        {
          "indexed": true,
          "internalType": "address",
          "name": "investor",
          "type": "address"
        },
        {
          "indexed": true,
          "internalType": "uint256",
          "name": "amount",
          "type": "uint256"
        }
      ],
      "name": "Deposit",
      "type": "event"
    },
    {
      "anonymous": false,
      "inputs": [
        {
          "indexed": true,
          "internalType": "address",
          "name": "contractSale",
          "type": "address"
        },
        {
          "indexed": true,
          "internalType": "uint256",
          "name": "amountFounding",
          "type": "uint256"
        }
      ],
      "name": "Funding",
      "type": "event"
    },
    {
      "anonymous": false,
      "inputs": [
        {
          "indexed": true,
          "internalType": "address",
          "name": "previousOwner",
          "type": "address"
        },
        {
          "indexed": true,
          "internalType": "address",
          "name": "newOwner",
          "type": "address"
        }
      ],
      "name": "OwnershipTransferred",
      "type": "event"
    },
    {
      "anonymous": false,
      "inputs": [
        {
          "indexed": true,
          "internalType": "address",
          "name": "investor",
          "type": "address"
        },
        {
          "indexed": true,
          "internalType": "uint256",
          "name": "amount",
          "type": "uint256"
        }
      ],
      "name": "Withdraw",
      "type": "event"
    },
    {
      "inputs": [
        {
          "internalType": "address",
          "name": "",
          "type": "address"
        }
      ],
      "name": "exist",
      "outputs": [
        {
          "internalType": "bool",
          "name": "",
          "type": "bool"
        }
      ],
      "stateMutability": "view",
      "type": "function"
    },
    {
      "inputs": [],
      "name": "interest",
      "outputs": [
        {
          "internalType": "uint256",
          "name": "",
          "type": "uint256"
        }
      ],
      "stateMutability": "view",
      "type": "function"
    },
    {
      "inputs": [
        {
          "internalType": "address",
          "name": "",
          "type": "address"
        }
      ],
      "name": "investors",
      "outputs": [
        {
          "internalType": "uint256",
          "name": "amountFounding",
          "type": "uint256"
        },
        {
          "internalType": "uint256",
          "name": "benefits",
          "type": "uint256"
        },
        {
          "internalType": "uint256",
          "name": "dayDeposit",
          "type": "uint256"
        }
      ],
      "stateMutability": "view",
      "type": "function"
    },
    {
      "inputs": [],
      "name": "marginInvestment",
      "outputs": [
        {
          "internalType": "uint256",
          "name": "",
          "type": "uint256"
        }
      ],
      "stateMutability": "view",
      "type": "function"
    },
    {
      "inputs": [],
      "name": "minInvesting",
      "outputs": [
        {
          "internalType": "uint256",
          "name": "",
          "type": "uint256"
        }
      ],
      "stateMutability": "view",
      "type": "function"
    },
    {
      "inputs": [],
      "name": "owner",
      "outputs": [
        {
          "internalType": "address",
          "name": "",
          "type": "address"
        }
      ],
      "stateMutability": "view",
      "type": "function"
    },
    {
      "inputs": [
        {
          "internalType": "address",
          "name": "",
          "type": "address"
        }
      ],
      "name": "pendingReturns",
      "outputs": [
        {
          "internalType": "uint256",
          "name": "",
          "type": "uint256"
        }
      ],
      "stateMutability": "view",
      "type": "function"
    },
    {
      "inputs": [],
      "name": "renounceOwnership",
      "outputs": [],
      "stateMutability": "nonpayable",
      "type": "function"
    },
    {
      "inputs": [
        {
          "internalType": "address",
          "name": "newOwner",
          "type": "address"
        }
      ],
      "name": "transferOwnership",
      "outputs": [],
      "stateMutability": "nonpayable",
      "type": "function"
    },
    {
      "inputs": [],
      "name": "withdrawDay",
      "outputs": [
        {
          "internalType": "uint256",
          "name": "",
          "type": "uint256"
        }
      ],
      "stateMutability": "view",
      "type": "function"
    },
    {
      "inputs": [
        {
          "internalType": "address",
          "name": "_investor",
          "type": "address"
        }
      ],
      "name": "investingOf",
      "outputs": [
        {
          "internalType": "uint256",
          "name": "balance",
          "type": "uint256"
        }
      ],
      "stateMutability": "view",
      "type": "function"
    },
    {
      "inputs": [
        {
          "internalType": "address",
          "name": "_investor",
          "type": "address"
        }
      ],
      "name": "profit",
      "outputs": [
        {
          "internalType": "uint256",
          "name": "",
          "type": "uint256"
        }
      ],
      "stateMutability": "view",
      "type": "function"
    },
    {
      "inputs": [],
      "name": "_liquidity",
      "outputs": [
        {
          "internalType": "uint256",
          "name": "liquidity",
          "type": "uint256"
        }
      ],
      "stateMutability": "view",
      "type": "function"
    },
    {
      "inputs": [
        {
          "internalType": "uint256",
          "name": "newInterest",
          "type": "uint256"
        }
      ],
      "name": "_interest",
      "outputs": [
        {
          "internalType": "bool",
          "name": "status",
          "type": "bool"
        }
      ],
      "stateMutability": "nonpayable",
      "type": "function"
    },
    {
      "inputs": [
        {
          "internalType": "uint256",
          "name": "newMinInvesting",
          "type": "uint256"
        }
      ],
      "name": "_minInvesting",
      "outputs": [
        {
          "internalType": "bool",
          "name": "status",
          "type": "bool"
        }
      ],
      "stateMutability": "nonpayable",
      "type": "function"
    },
    {
      "inputs": [
        {
          "internalType": "uint256",
          "name": "newMarginInvestmment",
          "type": "uint256"
        }
      ],
      "name": "_marginInvestment",
      "outputs": [
        {
          "internalType": "bool",
          "name": "status",
          "type": "bool"
        }
      ],
      "stateMutability": "nonpayable",
      "type": "function"
    },
    {
      "inputs": [
        {
          "internalType": "uint256",
          "name": "_amount",
          "type": "uint256"
        }
      ],
      "name": "deposit",
      "outputs": [
        {
          "internalType": "bool",
          "name": "",
          "type": "bool"
        }
      ],
      "stateMutability": "nonpayable",
      "type": "function"
    },
    {
      "inputs": [
        {
          "internalType": "uint256",
          "name": "_valueWithdrawal",
          "type": "uint256"
        }
      ],
      "name": "withdraw",
      "outputs": [
        {
          "internalType": "bool",
          "name": "",
          "type": "bool"
        }
      ],
      "stateMutability": "nonpayable",
      "type": "function"
    },
    {
      "inputs": [
        {
          "internalType": "uint256",
          "name": "_amount",
          "type": "uint256"
        },
        {
          "internalType": "address",
          "name": "contractSale",
          "type": "address"
        }
      ],
      "name": "funding",
      "outputs": [
        {
          "internalType": "bool",
          "name": "",
          "type": "bool"
        }
      ],
      "stateMutability": "nonpayable",
      "type": "function"
    }
  ],
  "bytecode": "0x60806040523480156200001157600080fd5b5060405162001155380380620011558339810160408190526200003491620000e0565b600062000040620000dc565b600080546001600160a01b0319166001600160a01b0383169081178255604051929350917f8be0079c531659141344cd1fd0a4f28419497f9722a3daafe3b4186f6b6457e0908290a35060018490556002839055600680546001600160a01b0319166001600160a01b03871617905542620000bf836201518062000150565b620000cb919062000135565b600355600455506200018892505050565b3390565b600080600080600060a08688031215620000f8578081fd5b85516001600160a01b03811681146200010f578182fd5b602087015160408801516060890151608090990151929a91995097965090945092505050565b600082198211156200014b576200014b62000172565b500190565b60008160001904831182151516156200016d576200016d62000172565b500290565b634e487b7160e01b600052601160045260246000fd5b610fbd80620001986000396000f3fe608060405234801561001057600080fd5b50600436106101215760003560e01c8063715018a6116100ad578063cfbd01e311610071578063cfbd01e31461022f578063d8cae69714610237578063ec8605461461024a578063f2fde38b1461025d578063fb4db8951461027057610121565b8063715018a6146101ed5780638da5cb5b146101f7578063b33f1fee1461020c578063b6b55f2514610214578063c392f7661461022757610121565b80632e1a7d4d116100f45780632e1a7d4d14610195578063491d0a56146101a85780634dfefc4b146101b05780636f7bc9be146101c3578063711241bc146101e557610121565b806302550e4d146101265780630e91a5a51461014f57806321f8f7291461016f57806326b387bb14610182575b600080fd5b610139610134366004610c12565b610283565b6040516101469190610ee4565b60405180910390f35b61016261015d366004610c53565b6102b2565b6040516101469190610cff565b61013961017d366004610c12565b610305565b610139610190366004610c12565b610320565b6101626101a3366004610c53565b610332565b61013961054f565b6101626101be366004610c12565b6105d5565b6101d66101d1366004610c12565b6105ea565b60405161014693929190610eed565b61013961060b565b6101f5610611565b005b6101ff61069a565b6040516101469190610cae565b6101396106a9565b610162610222366004610c53565b6106af565b6101396108ae565b6101396108b4565b610162610245366004610c53565b6108ba565b610162610258366004610c83565b610904565b6101f561026b366004610c12565b610abb565b61016261027e366004610c53565b610b7b565b6002546001600160a01b03821660009081526007602052604081205490916102aa91610bc5565b90505b919050565b60006102bc610bee565b6001600160a01b03166102cd61069a565b6001600160a01b0316146102fc5760405162461bcd60e51b81526004016102f390610da1565b60405180910390fd5b50600255600190565b6001600160a01b031660009081526007602052604090205490565b60086020526000908152604090205481565b600060096000610340610bee565b6001600160a01b0316815260208101919091526040016000205460ff166103795760405162461bcd60e51b81526004016102f390610dd6565b60076000610385610bee565b6001600160a01b03166001600160a01b03168152602001908152602001600020600101548211156103c85760405162461bcd60e51b81526004016102f390610eb5565b6000603c600760006103d8610bee565b6001600160a01b031681526020810191909152604001600020600201546103ff9042610f5a565b6104099190610f1b565b9050600354603c61041a9190610f03565b8110156104395760405162461bcd60e51b81526004016102f390610e20565b6006546001600160a01b031663a9059cbb610452610bee565b856040518363ffffffff1660e01b8152600401610470929190610ce6565b602060405180830381600087803b15801561048a57600080fd5b505af115801561049e573d6000803e3d6000fd5b505050506040513d601f19601f820116820180604052508101906104c29190610c33565b5082600760006104d0610bee565b6001600160a01b03166001600160a01b0316815260200190815260200160002060010160008282546105029190610f5a565b90915550839050610511610bee565b6001600160a01b03167f884edad9ce6fa2440d8a54cc123490eb96d2768479d49ff9c7366125a942436460405160405180910390a350600192915050565b6006546040516370a0823160e01b81526000916001600160a01b0316906370a0823190610580903090600401610cae565b60206040518083038186803b15801561059857600080fd5b505afa1580156105ac573d6000803e3d6000fd5b505050506040513d601f19601f820116820180604052508101906105d09190610c6b565b905090565b60096020526000908152604090205460ff1681565b60076020526000908152604090208054600182015460029092015490919083565b60045481565b610619610bee565b6001600160a01b031661062a61069a565b6001600160a01b0316146106505760405162461bcd60e51b81526004016102f390610da1565b600080546040516001600160a01b03909116907f8be0079c531659141344cd1fd0a4f28419497f9722a3daafe3b4186f6b6457e0908390a3600080546001600160a01b0319169055565b6000546001600160a01b031690565b60035481565b60008082600860006106bf610bee565b6001600160a01b03166001600160a01b0316815260200190815260200160002060008282546106ee9190610f03565b92505081905590506001548110156107185760405162461bcd60e51b81526004016102f390610e6e565b6006546001600160a01b03166323b872dd610731610bee565b30866040518463ffffffff1660e01b815260040161075193929190610cc2565b602060405180830381600087803b15801561076b57600080fd5b505af115801561077f573d6000803e3d6000fd5b505050506040513d601f19601f820116820180604052508101906107a39190610c33565b5060006107b260025483610bc5565b6107bc9083610f03565b9050604051806060016040528083815260200182815260200142815250600760006107e5610bee565b6001600160a01b03166001600160a01b03168152602001908152602001600020600082015181600001556020820151816001015560408201518160020155905050600160096000610834610bee565b6001600160a01b031681526020810191909152604001600020805460ff19169115159190911790556108666005610bf2565b8361086f610bee565b6001600160a01b03167fe1fffcc4923d04b559f4d29a8bfc6cda04eb5b0d3c460751c2402c5c5cc9109c60405160405180910390a35060019392505050565b60025481565b60015481565b60006108c4610bee565b6001600160a01b03166108d561069a565b6001600160a01b0316146108fb5760405162461bcd60e51b81526004016102f390610da1565b50600455600190565b600061090e610bee565b6001600160a01b031661091f61069a565b6001600160a01b0316146109455760405162461bcd60e51b81526004016102f390610da1565b6004548361095161054f565b61095b9190610f5a565b116109785760405162461bcd60e51b81526004016102f390610d50565b60065460405163095ea7b360e01b81526001600160a01b039091169063095ea7b3906109aa9085908790600401610ce6565b602060405180830381600087803b1580156109c457600080fd5b505af11580156109d8573d6000803e3d6000fd5b505050506040513d601f19601f820116820180604052508101906109fc9190610c33565b5060405163c290d69160e01b81526001600160a01b0383169063c290d69190610a29908690600401610ee4565b602060405180830381600087803b158015610a4357600080fd5b505af1158015610a57573d6000803e3d6000fd5b505050506040513d601f19601f82011682018060405250810190610a7b9190610c33565b5060405183906001600160a01b038416907f1af855f8ecf9e2874e8d95b2f5b91f1afa7cea4cfac27e00fb165ebec0e671af90600090a350600192915050565b610ac3610bee565b6001600160a01b0316610ad461069a565b6001600160a01b031614610afa5760405162461bcd60e51b81526004016102f390610da1565b6001600160a01b038116610b205760405162461bcd60e51b81526004016102f390610d0a565b600080546040516001600160a01b03808516939216917f8be0079c531659141344cd1fd0a4f28419497f9722a3daafe3b4186f6b6457e091a3600080546001600160a01b0319166001600160a01b0392909216919091179055565b6000610b85610bee565b6001600160a01b0316610b9661069a565b6001600160a01b031614610bbc5760405162461bcd60e51b81526004016102f390610da1565b50600190815590565b60008068056bc75e2d63100000610bdc8486610f3b565b610be69190610f1b565b949350505050565b3390565b80546001019055565b80356001600160a01b03811681146102ad57600080fd5b600060208284031215610c23578081fd5b610c2c82610bfb565b9392505050565b600060208284031215610c44578081fd5b81518015158114610c2c578182fd5b600060208284031215610c64578081fd5b5035919050565b600060208284031215610c7c578081fd5b5051919050565b60008060408385031215610c95578081fd5b82359150610ca560208401610bfb565b90509250929050565b6001600160a01b0391909116815260200190565b6001600160a01b039384168152919092166020820152604081019190915260600190565b6001600160a01b03929092168252602082015260400190565b901515815260200190565b60208082526026908201527f4f776e61626c653a206e6577206f776e657220697320746865207a65726f206160408201526564647265737360d01b606082015260800190565b60208082526031908201527f504f4f4c3a2054686520616d6f756e742065786365656420746865206d61726760408201527034b7339037b31034b73b32b9ba34b7339760791b606082015260800190565b6020808252818101527f4f776e61626c653a2063616c6c6572206973206e6f7420746865206f776e6572604082015260600190565b6020808252602a908201527f504f4f4c3a20596f757220617265206e6f7420616e20696e766573746f72207260408201526932b3b4b9ba32b932b21760b11b606082015260800190565b6020808252602e908201527f504f4f4c3a20596f75206861766520746f20776169742061667465722074686560408201526d103bb4ba34323930bb903230bc9760911b606082015260800190565b60208082526027908201527f504f4f4c3a204d696e20696e76657374696e672065786365656473207468652060408201526630b6b7bab73a1760c91b606082015260800190565b6020808252601590820152742cb7ba903237b713ba103430bb3290333ab732399760591b604082015260600190565b90815260200190565b9283526020830191909152604082015260600190565b60008219821115610f1657610f16610f71565b500190565b600082610f3657634e487b7160e01b81526012600452602481fd5b500490565b6000816000190483118215151615610f5557610f55610f71565b500290565b600082821015610f6c57610f6c610f71565b500390565b634e487b7160e01b600052601160045260246000fdfea2646970667358221220787ec19f50ee659585825456c738b8f8108e09062bc91b1422762798af5b6f7e64736f6c63430008000033",
  "immutableReferences": {},
  "source": "// SPDX-License-Identifier: MIT\npragma solidity ^0.8.0;\n\nimport \"@openzeppelin/contracts/access/Ownable.sol\";\nimport \"@openzeppelin/contracts/token/ERC20/IERC20.sol\";\nimport \"@openzeppelin/contracts/utils/Counters.sol\";\nimport \"./ISale.sol\";\n\ncontract POOL is Ownable {\n  using Counters for Counters.Counter;\n  uint256 public minInvesting;\n  uint256 public interest;\n  uint256 public withdrawDay;\n  uint256 public marginInvestment;\n  Counters.Counter private _numberOfInvestment;\n  IERC20 dai;\n\n  \n  struct Investor {\n    uint256 amountFounding;\n    uint256 benefits;\n    uint256 dayDeposit;\n  }\n\n  mapping (address => Investor) public investors;\n  mapping(address => uint) public pendingReturns;\n  mapping (address => bool) public exist;\n\n  event Deposit(address indexed investor, uint256 indexed amount);\n  event Withdraw(address indexed investor, uint256 indexed amount);\n  event Funding(address indexed contractSale, uint256 indexed amountFounding);\n\n  constructor(address asset, uint256 MinInvesting, uint256 Rate, uint256 WithdrawDay, uint256 MarginInvestment) {\n      minInvesting = MinInvesting;\n      interest = Rate;\n      dai = IERC20(asset);\n      withdrawDay = (WithdrawDay * 1440 minutes) + block.timestamp;\n      marginInvestment = MarginInvestment;\n  }\n  \n  function investingOf(address _investor) public view returns(uint256 balance){\n    balance = investors[_investor].amountFounding;\n  }\n  \n  function profit(address _investor) public view returns(uint256) {\n    return _profit(interest, investors[_investor].amountFounding);\n  }\n\n  function _liquidity() public view returns(uint256 liquidity) {\n    liquidity = dai.balanceOf(address(this));\n  } \n\n  function _interest(uint256 newInterest) public onlyOwner() returns(bool status) {\n    interest = newInterest;\n    status = true;\n  }\n\n  function _minInvesting(uint256 newMinInvesting) public onlyOwner() returns(bool status) {\n    minInvesting = newMinInvesting;\n    status = true;\n  }\n\n  function _marginInvestment(uint256 newMarginInvestmment) public onlyOwner() returns(bool status) {\n    marginInvestment = newMarginInvestmment;\n    status = true;\n  }\n\n  function deposit(uint256 _amount) external returns(bool) {\n    uint256 valueINV = pendingReturns[_msgSender()] += _amount;\n    require(valueINV >= minInvesting, \"POOL: Min investing exceeds the amount.\");\n    dai.transferFrom(_msgSender(), address(this), _amount);\n    uint256 _benefits = valueINV + _profit(interest, valueINV);\n    investors[_msgSender()] = Investor(valueINV, _benefits, block.timestamp);\n    exist[_msgSender()] = true;\n    _numberOfInvestment.increment();\n    emit Deposit(_msgSender(), _amount);\n    return true; \n  }\n\n  function withdraw(uint256 _valueWithdrawal) external returns(bool) {\n    require(exist[_msgSender()], \"POOL: Your are not an investor registered.\");\n    require(_valueWithdrawal <= investors[_msgSender()].benefits, \"You don't have funds.\");\n    uint256 daysPassed = (block.timestamp - investors[_msgSender()].dayDeposit) / 1 minutes;\n    require(daysPassed >=  withdrawDay + 1 minutes, \"POOL: You have to wait after the withdraw day.\");\n    dai.transfer(_msgSender(), _valueWithdrawal);\n    investors[_msgSender()].benefits -= _valueWithdrawal;\n    emit Withdraw(_msgSender(), _valueWithdrawal);\n    return true;\n  }  \n\n\n  function funding(uint256 _amount, address contractSale) external onlyOwner() returns(bool) {\n    require(_liquidity() - _amount > marginInvestment, \"POOL: The amount exceed the marging of investing.\");\n    dai.approve(contractSale, _amount);\n    ISale(contractSale).pay(_amount);\n    emit Funding(contractSale, _amount);\n    return true;\n  }\n\n  function _profit(uint256 _interestInPorcentage, uint256 _amount) private pure returns(uint256) {\n     uint256 value = (_interestInPorcentage * _amount) / (100 * 10 **18);\n     return value;\n  }\n\n\n}\n",
  "sourcePath": "D:/Trabajo/0-Reservafs/Proyectos/DIF/contracts/POOL.sol",
  "compiler": {
    "name": "solc",
    "version": "0.8.0+commit.c7dfd78e.Emscripten.clang"
  },
  "schemaVersion": "3.3.4",
  "updatedAt": "2021-07-02T01:52:51.642Z",
  "devdoc": {
    "kind": "dev",
    "methods": {
      "owner()": {
        "details": "Returns the address of the current owner."
      },
      "renounceOwnership()": {
        "details": "Leaves the contract without owner. It will not be possible to call `onlyOwner` functions anymore. Can only be called by the current owner. NOTE: Renouncing ownership will leave the contract without an owner, thereby removing any functionality that is only available to the owner."
      },
      "transferOwnership(address)": {
        "details": "Transfers ownership of the contract to a new account (`newOwner`). Can only be called by the current owner."
      }
    },
    "version": 1
  },
  "userdoc": {
    "kind": "user",
    "methods": {},
    "version": 1
  }
}