{
  "contractName": "PooLRBAC",
  "abi": [
    {
      "inputs": [
        {
          "internalType": "address",
          "name": "asset",
          "type": "address"
        },
        {
          "internalType": "address",
          "name": "reservaERC721",
          "type": "address"
        },
        {
          "internalType": "address",
          "name": "accountModerator",
          "type": "address"
        },
        {
          "internalType": "address",
          "name": "accountFunder",
          "type": "address"
        },
        {
          "internalType": "uint256",
          "name": "MinInvesting",
          "type": "uint256"
        },
        {
          "internalType": "uint256",
          "name": "Rate",
          "type": "uint256"
        },
        {
          "internalType": "uint256",
          "name": "StakingDays",
          "type": "uint256"
        },
        {
          "internalType": "uint256",
          "name": "MarginInvestment",
          "type": "uint256"
        }
      ],
      "stateMutability": "nonpayable",
      "type": "constructor"
    },
    {
      "anonymous": false,
      "inputs": [
        {
          "indexed": true,
          "internalType": "address",
          "name": "investor",
          "type": "address"
        },
        {
          "indexed": true,
          "internalType": "uint256",
          "name": "amount",
          "type": "uint256"
        }
      ],
      "name": "Deposit",
      "type": "event"
    },
    {
      "anonymous": false,
      "inputs": [
        {
          "indexed": true,
          "internalType": "address",
          "name": "contractSale",
          "type": "address"
        },
        {
          "indexed": true,
          "internalType": "uint256",
          "name": "amountFounding",
          "type": "uint256"
        }
      ],
      "name": "Funding",
      "type": "event"
    },
    {
      "anonymous": false,
      "inputs": [
        {
          "indexed": true,
          "internalType": "bytes32",
          "name": "role",
          "type": "bytes32"
        },
        {
          "indexed": true,
          "internalType": "bytes32",
          "name": "previousAdminRole",
          "type": "bytes32"
        },
        {
          "indexed": true,
          "internalType": "bytes32",
          "name": "newAdminRole",
          "type": "bytes32"
        }
      ],
      "name": "RoleAdminChanged",
      "type": "event"
    },
    {
      "anonymous": false,
      "inputs": [
        {
          "indexed": true,
          "internalType": "bytes32",
          "name": "role",
          "type": "bytes32"
        },
        {
          "indexed": true,
          "internalType": "address",
          "name": "account",
          "type": "address"
        },
        {
          "indexed": true,
          "internalType": "address",
          "name": "sender",
          "type": "address"
        }
      ],
      "name": "RoleGranted",
      "type": "event"
    },
    {
      "anonymous": false,
      "inputs": [
        {
          "indexed": true,
          "internalType": "bytes32",
          "name": "role",
          "type": "bytes32"
        },
        {
          "indexed": true,
          "internalType": "address",
          "name": "account",
          "type": "address"
        },
        {
          "indexed": true,
          "internalType": "address",
          "name": "sender",
          "type": "address"
        }
      ],
      "name": "RoleRevoked",
      "type": "event"
    },
    {
      "anonymous": false,
      "inputs": [
        {
          "indexed": true,
          "internalType": "address",
          "name": "investor",
          "type": "address"
        },
        {
          "indexed": true,
          "internalType": "uint256",
          "name": "amount",
          "type": "uint256"
        }
      ],
      "name": "Withdraw",
      "type": "event"
    },
    {
      "inputs": [],
      "name": "DEFAULT_ADMIN_ROLE",
      "outputs": [
        {
          "internalType": "bytes32",
          "name": "",
          "type": "bytes32"
        }
      ],
      "stateMutability": "view",
      "type": "function",
      "constant": true
    },
    {
      "inputs": [],
      "name": "FUNDER_ROLE",
      "outputs": [
        {
          "internalType": "bytes32",
          "name": "",
          "type": "bytes32"
        }
      ],
      "stateMutability": "view",
      "type": "function",
      "constant": true
    },
    {
      "inputs": [],
      "name": "MODERATOR_ROLE",
      "outputs": [
        {
          "internalType": "bytes32",
          "name": "",
          "type": "bytes32"
        }
      ],
      "stateMutability": "view",
      "type": "function",
      "constant": true
    },
    {
      "inputs": [],
      "name": "_numberOfInvestment",
      "outputs": [
        {
          "internalType": "uint256",
          "name": "_value",
          "type": "uint256"
        }
      ],
      "stateMutability": "view",
      "type": "function",
      "constant": true
    },
    {
      "inputs": [
        {
          "internalType": "address",
          "name": "",
          "type": "address"
        }
      ],
      "name": "exist",
      "outputs": [
        {
          "internalType": "bool",
          "name": "",
          "type": "bool"
        }
      ],
      "stateMutability": "view",
      "type": "function",
      "constant": true
    },
    {
      "inputs": [
        {
          "internalType": "bytes32",
          "name": "role",
          "type": "bytes32"
        }
      ],
      "name": "getRoleAdmin",
      "outputs": [
        {
          "internalType": "bytes32",
          "name": "",
          "type": "bytes32"
        }
      ],
      "stateMutability": "view",
      "type": "function",
      "constant": true
    },
    {
      "inputs": [
        {
          "internalType": "bytes32",
          "name": "role",
          "type": "bytes32"
        },
        {
          "internalType": "address",
          "name": "account",
          "type": "address"
        }
      ],
      "name": "grantRole",
      "outputs": [],
      "stateMutability": "nonpayable",
      "type": "function"
    },
    {
      "inputs": [
        {
          "internalType": "bytes32",
          "name": "role",
          "type": "bytes32"
        },
        {
          "internalType": "address",
          "name": "account",
          "type": "address"
        }
      ],
      "name": "hasRole",
      "outputs": [
        {
          "internalType": "bool",
          "name": "",
          "type": "bool"
        }
      ],
      "stateMutability": "view",
      "type": "function",
      "constant": true
    },
    {
      "inputs": [],
      "name": "interest",
      "outputs": [
        {
          "internalType": "uint256",
          "name": "",
          "type": "uint256"
        }
      ],
      "stateMutability": "view",
      "type": "function",
      "constant": true
    },
    {
      "inputs": [
        {
          "internalType": "address",
          "name": "",
          "type": "address"
        }
      ],
      "name": "investors",
      "outputs": [
        {
          "internalType": "uint256",
          "name": "amountFounding",
          "type": "uint256"
        },
        {
          "internalType": "uint256",
          "name": "benefits",
          "type": "uint256"
        },
        {
          "internalType": "uint256",
          "name": "dayDeposit",
          "type": "uint256"
        }
      ],
      "stateMutability": "view",
      "type": "function",
      "constant": true
    },
    {
      "inputs": [],
      "name": "marginInvestment",
      "outputs": [
        {
          "internalType": "uint256",
          "name": "",
          "type": "uint256"
        }
      ],
      "stateMutability": "view",
      "type": "function",
      "constant": true
    },
    {
      "inputs": [],
      "name": "minInvesting",
      "outputs": [
        {
          "internalType": "uint256",
          "name": "",
          "type": "uint256"
        }
      ],
      "stateMutability": "view",
      "type": "function",
      "constant": true
    },
    {
      "inputs": [
        {
          "internalType": "address",
          "name": "",
          "type": "address"
        }
      ],
      "name": "pendingReturns",
      "outputs": [
        {
          "internalType": "uint256",
          "name": "",
          "type": "uint256"
        }
      ],
      "stateMutability": "view",
      "type": "function",
      "constant": true
    },
    {
      "inputs": [
        {
          "internalType": "bytes32",
          "name": "role",
          "type": "bytes32"
        },
        {
          "internalType": "address",
          "name": "account",
          "type": "address"
        }
      ],
      "name": "renounceRole",
      "outputs": [],
      "stateMutability": "nonpayable",
      "type": "function"
    },
    {
      "inputs": [
        {
          "internalType": "bytes32",
          "name": "role",
          "type": "bytes32"
        },
        {
          "internalType": "address",
          "name": "account",
          "type": "address"
        }
      ],
      "name": "revokeRole",
      "outputs": [],
      "stateMutability": "nonpayable",
      "type": "function"
    },
    {
      "inputs": [],
      "name": "stakingDays",
      "outputs": [
        {
          "internalType": "uint256",
          "name": "",
          "type": "uint256"
        }
      ],
      "stateMutability": "view",
      "type": "function",
      "constant": true
    },
    {
      "inputs": [
        {
          "internalType": "bytes4",
          "name": "interfaceId",
          "type": "bytes4"
        }
      ],
      "name": "supportsInterface",
      "outputs": [
        {
          "internalType": "bool",
          "name": "",
          "type": "bool"
        }
      ],
      "stateMutability": "view",
      "type": "function",
      "constant": true
    },
    {
      "inputs": [
        {
          "internalType": "address",
          "name": "_investor",
          "type": "address"
        }
      ],
      "name": "investingOf",
      "outputs": [
        {
          "internalType": "uint256",
          "name": "balance",
          "type": "uint256"
        }
      ],
      "stateMutability": "view",
      "type": "function",
      "constant": true
    },
    {
      "inputs": [
        {
          "internalType": "address",
          "name": "_investor",
          "type": "address"
        }
      ],
      "name": "profit",
      "outputs": [
        {
          "internalType": "uint256",
          "name": "",
          "type": "uint256"
        }
      ],
      "stateMutability": "view",
      "type": "function",
      "constant": true
    },
    {
      "inputs": [],
      "name": "_liquidity",
      "outputs": [
        {
          "internalType": "uint256",
          "name": "liquidity",
          "type": "uint256"
        }
      ],
      "stateMutability": "view",
      "type": "function",
      "constant": true
    },
    {
      "inputs": [
        {
          "internalType": "address",
          "name": "investor",
          "type": "address"
        }
      ],
      "name": "showRemainingTimeToWithdraw",
      "outputs": [
        {
          "internalType": "uint256",
          "name": "",
          "type": "uint256"
        }
      ],
      "stateMutability": "view",
      "type": "function",
      "constant": true
    },
    {
      "inputs": [
        {
          "internalType": "uint256",
          "name": "newInterest",
          "type": "uint256"
        }
      ],
      "name": "_interest",
      "outputs": [
        {
          "internalType": "bool",
          "name": "status",
          "type": "bool"
        }
      ],
      "stateMutability": "nonpayable",
      "type": "function"
    },
    {
      "inputs": [
        {
          "internalType": "uint256",
          "name": "newMinInvesting",
          "type": "uint256"
        }
      ],
      "name": "_minInvesting",
      "outputs": [
        {
          "internalType": "bool",
          "name": "status",
          "type": "bool"
        }
      ],
      "stateMutability": "nonpayable",
      "type": "function"
    },
    {
      "inputs": [
        {
          "internalType": "uint256",
          "name": "newMarginInvestmment",
          "type": "uint256"
        }
      ],
      "name": "_marginInvestment",
      "outputs": [
        {
          "internalType": "bool",
          "name": "status",
          "type": "bool"
        }
      ],
      "stateMutability": "nonpayable",
      "type": "function"
    },
    {
      "inputs": [
        {
          "internalType": "uint256",
          "name": "_amount",
          "type": "uint256"
        }
      ],
      "name": "deposit",
      "outputs": [
        {
          "internalType": "bool",
          "name": "",
          "type": "bool"
        }
      ],
      "stateMutability": "nonpayable",
      "type": "function"
    },
    {
      "inputs": [
        {
          "internalType": "uint256",
          "name": "_valueWithdrawal",
          "type": "uint256"
        }
      ],
      "name": "withdraw",
      "outputs": [
        {
          "internalType": "bool",
          "name": "",
          "type": "bool"
        }
      ],
      "stateMutability": "nonpayable",
      "type": "function"
    },
    {
      "inputs": [
        {
          "internalType": "address",
          "name": "contractSale",
          "type": "address"
        }
      ],
      "name": "approve",
      "outputs": [
        {
          "internalType": "bool",
          "name": "",
          "type": "bool"
        }
      ],
      "stateMutability": "nonpayable",
      "type": "function"
    },
    {
      "inputs": [
        {
          "internalType": "uint256",
          "name": "_amount",
          "type": "uint256"
        },
        {
          "internalType": "address",
          "name": "contractSale",
          "type": "address"
        }
      ],
      "name": "funding",
      "outputs": [
        {
          "internalType": "bool",
          "name": "",
          "type": "bool"
        }
      ],
      "stateMutability": "nonpayable",
      "type": "function"
    }
  ],
  "bytecode": "0x60806040523480156200001157600080fd5b5060405162001e4038038062001e40833981016040819052620000349162000484565b60018490556002839055600680546001600160a01b03808b166001600160a01b03199283161790925560078054928a1692909116919091179055426200007c83603c62000605565b620000889190620005ea565b60035560048190556200009d60003362000103565b620000c97f71f3d55856e4058ed06ee057d79ada615f65cdf5f9ee88181b914225088f834f8762000113565b620000f57f0914bb97ca83e85ef385857d9d418f187ff630589e0c9f44db92976d8e4519cb8662000113565b50505050505050506200068a565b6200010f828262000144565b5050565b6200011e82620001ce565b62000133816200012d620001e6565b620001ea565b6200013f838362000144565b505050565b62000150828262000276565b6200010f576000828152602081815260408083206001600160a01b03851684529091529020805460ff191660011790556200018a620001e6565b6001600160a01b0316816001600160a01b0316837f2f8788117e7eff1d82e926ec794901d17c78024a50270940304540a733656f0d60405160405180910390a45050565b6000818152602081905260409020600101545b919050565b3390565b620001f6828262000276565b6200010f576200021c816001600160a01b031660146200029f60201b62000e491760201c565b6200023283602062000e496200029f821b17811c565b6040516020016200024592919062000507565b60408051601f198184030181529082905262461bcd60e51b82526200026d9160040162000580565b60405180910390fd5b6000918252602082815260408084206001600160a01b0393909316845291905290205460ff1690565b60606000620002b083600262000605565b620002bd906002620005ea565b6001600160401b03811115620002e357634e487b7160e01b600052604160045260246000fd5b6040519080825280601f01601f1916602001820160405280156200030e576020820181803683370190505b509050600360fc1b816000815181106200033857634e487b7160e01b600052603260045260246000fd5b60200101906001600160f81b031916908160001a905350600f60fb1b816001815181106200037657634e487b7160e01b600052603260045260246000fd5b60200101906001600160f81b031916908160001a90535060006200039c84600262000605565b620003a9906001620005ea565b90505b600181111562000443576f181899199a1a9b1b9c1cb0b131b232b360811b85600f1660108110620003ed57634e487b7160e01b600052603260045260246000fd5b1a60f81b8282815181106200041257634e487b7160e01b600052603260045260246000fd5b60200101906001600160f81b031916908160001a90535060049490941c936200043b816200065a565b9050620003ac565b508315620004655760405162461bcd60e51b81526004016200026d90620005b5565b9392505050565b80516001600160a01b0381168114620001e157600080fd5b600080600080600080600080610100898b031215620004a1578384fd5b620004ac896200046c565b9750620004bc60208a016200046c565b9650620004cc60408a016200046c565b9550620004dc60608a016200046c565b94506080890151935060a0890151925060c0890151915060e089015190509295985092959890939650565b60007f416363657373436f6e74726f6c3a206163636f756e7420000000000000000000825283516200054181601785016020880162000627565b7001034b99036b4b9b9b4b733903937b6329607d1b60179184019182015283516200057481602884016020880162000627565b01602801949350505050565b6000602082528251806020840152620005a181604085016020870162000627565b601f01601f19169190910160400192915050565b6020808252818101527f537472696e67733a20686578206c656e67746820696e73756666696369656e74604082015260600190565b6000821982111562000600576200060062000674565b500190565b600081600019048311821515161562000622576200062262000674565b500290565b60005b83811015620006445781810151838201526020016200062a565b8381111562000654576000848401525b50505050565b6000816200066c576200066c62000674565b506000190190565b634e487b7160e01b600052601160045260246000fd5b6117a6806200069a6000396000f3fe608060405234801561001057600080fd5b50600436106101c45760003560e01c8063797669c9116100f9578063cfbd01e311610097578063daea85c511610071578063daea85c51461036d578063e120d6b214610380578063ec86054614610388578063fb4db8951461039b576101c4565b8063cfbd01e31461033f578063d547741f14610347578063d8cae6971461035a576101c4565b8063af9b6fa6116100d3578063af9b6fa614610309578063b6b55f251461031c578063c392f7661461032f578063c72ade2a14610337576101c4565b8063797669c9146102e657806391d14854146102ee578063a217fddf14610301576101c4565b80632f2ff15d11610166578063491d0a5611610140578063491d0a56146102a15780634dfefc4b146102a95780636f7bc9be146102bc578063711241bc146102de576101c4565b80632f2ff15d1461027157806334aedecd1461028657806336568abe1461028e576101c4565b806321f8f729116101a257806321f8f72914610225578063248a9ca31461023857806326b387bb1461024b5780632e1a7d4d1461025e576101c4565b806301ffc9a7146101c957806302550e4d146101f25780630e91a5a514610212575b600080fd5b6101dc6101d736600461125c565b6103ae565b6040516101e99190611374565b60405180910390f35b6102056102003660046111bd565b6103d9565b6040516101e9919061137f565b6101dc610220366004611215565b610400565b6102056102333660046111bd565b61041e565b610205610246366004611215565b610439565b6102056102593660046111bd565b61044e565b6101dc61026c366004611215565b610460565b61028461027f36600461122d565b610686565b005b6102056106aa565b61028461029c36600461122d565b6106ce565b610205610714565b6101dc6102b73660046111bd565b61079a565b6102cf6102ca3660046111bd565b6107af565b6040516101e993929190611677565b6102056107d0565b6102056107d6565b6101dc6102fc36600461122d565b6107fa565b610205610823565b6102056103173660046111bd565b610828565b6101dc61032a366004611215565b61084f565b610205610a44565b610205610a4a565b610205610a50565b61028461035536600461122d565b610a56565b6101dc610368366004611215565b610a75565b6101dc61037b3660046111bd565b610a8e565b610205610c4c565b6101dc61039636600461129c565b610c52565b6101dc6103a9366004611215565b610e30565b60006001600160e01b03198216637965db0b60e01b14806103d357506103d382611002565b92915050565b6002546001600160a01b03821660009081526008602052604081205490916103d39161101b565b6000806104148161040f611044565b611048565b5050600255600190565b6001600160a01b031660009081526008602052604090205490565b60009081526020819052604090206001015490565b60096020526000908152604090205481565b6000600a600061046e611044565b6001600160a01b0316815260208101919091526040016000205460ff166104b05760405162461bcd60e51b81526004016104a79061151a565b60405180910390fd5b600860006104bc611044565b6001600160a01b03166001600160a01b03168152602001908152602001600020600101548211156104ff5760405162461bcd60e51b81526004016104a790611648565b6000603c6008600061050f611044565b6001600160a01b0316815260208101919091526040016000206002015461053690426116e4565b61054091906116a5565b9050600354603c610551919061168d565b8110156105705760405162461bcd60e51b81526004016104a790611564565b6006546001600160a01b031663a9059cbb610589611044565b856040518363ffffffff1660e01b81526004016105a792919061135b565b602060405180830381600087803b1580156105c157600080fd5b505af11580156105d5573d6000803e3d6000fd5b505050506040513d601f19601f820116820180604052508101906105f991906111f5565b508260086000610607611044565b6001600160a01b03166001600160a01b03168152602001908152602001600020600101600082825461063991906116e4565b90915550839050610648611044565b6001600160a01b03167f884edad9ce6fa2440d8a54cc123490eb96d2768479d49ff9c7366125a942436460405160405180910390a350600192915050565b61068f82610439565b61069b8161040f611044565b6106a583836110ac565b505050565b7f0914bb97ca83e85ef385857d9d418f187ff630589e0c9f44db92976d8e4519cb81565b6106d6611044565b6001600160a01b0316816001600160a01b0316146107065760405162461bcd60e51b81526004016104a7906115b2565b6107108282611131565b5050565b6006546040516370a0823160e01b81526000916001600160a01b0316906370a0823190610745903090600401611323565b60206040518083038186803b15801561075d57600080fd5b505afa158015610771573d6000803e3d6000fd5b505050506040513d601f19601f820116820180604052508101906107959190611284565b905090565b600a6020526000908152604090205460ff1681565b60086020526000908152604090208054600182015460029092015490919083565b60045481565b7f71f3d55856e4058ed06ee057d79ada615f65cdf5f9ee88181b914225088f834f81565b6000918252602082815260408084206001600160a01b0393909316845291905290205460ff1690565b600081565b6001600160a01b0381166000908152600860205260408120600201546103d39042906116e4565b600080826009600061085f611044565b6001600160a01b03166001600160a01b03168152602001908152602001600020600082825461088e919061168d565b92505081905590506001548110156108b85760405162461bcd60e51b81526004016104a790611601565b6006546001600160a01b03166323b872dd6108d1611044565b30866040518463ffffffff1660e01b81526004016108f193929190611337565b602060405180830381600087803b15801561090b57600080fd5b505af115801561091f573d6000803e3d6000fd5b505050506040513d601f19601f8201168201806040525081019061094391906111f5565b5060006109526002548361101b565b61095c908361168d565b905060405180606001604052808381526020018281526020014281525060086000610985611044565b6001600160a01b03166001600160a01b031681526020019081526020016000206000820151816000015560208201518160010155604082015181600201559050506001600a60006109d4611044565b6001600160a01b031681526020810191909152604001600020805460ff191691151591909117905583610a05611044565b6001600160a01b03167fe1fffcc4923d04b559f4d29a8bfc6cda04eb5b0d3c460751c2402c5c5cc9109c60405160405180910390a35060019392505050565b60025481565b60035481565b60015481565b610a5f82610439565b610a6b8161040f611044565b6106a58383611131565b600080610a848161040f611044565b5050600455600190565b60007f71f3d55856e4058ed06ee057d79ada615f65cdf5f9ee88181b914225088f834f610abd8161040f611044565b6001600160a01b038316610ae35760405162461bcd60e51b81526004016104a790611444565b60006001600160a01b0316600760009054906101000a90046001600160a01b03166001600160a01b0316636352211e856001600160a01b03166317d70f7c6040518163ffffffff1660e01b815260040160206040518083038186803b158015610b4b57600080fd5b505afa158015610b5f573d6000803e3d6000fd5b505050506040513d601f19601f82011682018060405250810190610b839190611284565b6040518263ffffffff1660e01b8152600401610b9f919061137f565b60206040518083038186803b158015610bb757600080fd5b505afa158015610bcb573d6000803e3d6000fd5b505050506040513d601f19601f82011682018060405250810190610bef91906111d9565b6001600160a01b03161415610c165760405162461bcd60e51b81526004016104a7906114cc565b6001600160a01b0383166000908152600b60205260409020805460ff19166001179055610c4360056111b4565b50600192915050565b60055481565b60007f0914bb97ca83e85ef385857d9d418f187ff630589e0c9f44db92976d8e4519cb610c818161040f611044565b6001600160a01b0383166000908152600b602052604090205460ff16610cb95760405162461bcd60e51b81526004016104a790611497565b60045484610cc5610714565b610ccf91906116e4565b11610cec5760405162461bcd60e51b81526004016104a7906113f0565b60065460405163095ea7b360e01b81526001600160a01b039091169063095ea7b390610d1e908690889060040161135b565b602060405180830381600087803b158015610d3857600080fd5b505af1158015610d4c573d6000803e3d6000fd5b505050506040513d601f19601f82011682018060405250810190610d7091906111f5565b5060405163c290d69160e01b81526001600160a01b0384169063c290d69190610d9d90879060040161137f565b602060405180830381600087803b158015610db757600080fd5b505af1158015610dcb573d6000803e3d6000fd5b505050506040513d601f19601f82011682018060405250810190610def91906111f5565b5060405184906001600160a01b038516907f1af855f8ecf9e2874e8d95b2f5b91f1afa7cea4cfac27e00fb165ebec0e671af90600090a35060019392505050565b600080610e3f8161040f611044565b5050600190815590565b60606000610e588360026116c5565b610e6390600261168d565b67ffffffffffffffff811115610e8957634e487b7160e01b600052604160045260246000fd5b6040519080825280601f01601f191660200182016040528015610eb3576020820181803683370190505b509050600360fc1b81600081518110610edc57634e487b7160e01b600052603260045260246000fd5b60200101906001600160f81b031916908160001a905350600f60fb1b81600181518110610f1957634e487b7160e01b600052603260045260246000fd5b60200101906001600160f81b031916908160001a9053506000610f3d8460026116c5565b610f4890600161168d565b90505b6001811115610fdc576f181899199a1a9b1b9c1cb0b131b232b360811b85600f1660108110610f8a57634e487b7160e01b600052603260045260246000fd5b1a60f81b828281518110610fae57634e487b7160e01b600052603260045260246000fd5b60200101906001600160f81b031916908160001a90535060049490941c93610fd58161172b565b9050610f4b565b508315610ffb5760405162461bcd60e51b81526004016104a7906113bb565b9392505050565b6001600160e01b031981166301ffc9a760e01b14919050565b60008068056bc75e2d6310000061103284866116c5565b61103c91906116a5565b949350505050565b3390565b61105282826107fa565b6107105761106a816001600160a01b03166014610e49565b611075836020610e49565b6040516020016110869291906112ae565b60408051601f198184030181529082905262461bcd60e51b82526104a791600401611388565b6110b682826107fa565b610710576000828152602081815260408083206001600160a01b03851684529091529020805460ff191660011790556110ed611044565b6001600160a01b0316816001600160a01b0316837f2f8788117e7eff1d82e926ec794901d17c78024a50270940304540a733656f0d60405160405180910390a45050565b61113b82826107fa565b15610710576000828152602081815260408083206001600160a01b03851684529091529020805460ff19169055611170611044565b6001600160a01b0316816001600160a01b0316837ff6391f5c32d9c69d2a47ea670b442974b53935d1edc7fd64eb21e047a839171b60405160405180910390a45050565b80546001019055565b6000602082840312156111ce578081fd5b8135610ffb81611758565b6000602082840312156111ea578081fd5b8151610ffb81611758565b600060208284031215611206578081fd5b81518015158114610ffb578182fd5b600060208284031215611226578081fd5b5035919050565b6000806040838503121561123f578081fd5b82359150602083013561125181611758565b809150509250929050565b60006020828403121561126d578081fd5b81356001600160e01b031981168114610ffb578182fd5b600060208284031215611295578081fd5b5051919050565b6000806040838503121561123f578182fd5b60007f416363657373436f6e74726f6c3a206163636f756e7420000000000000000000825283516112e68160178501602088016116fb565b7001034b99036b4b9b9b4b733903937b6329607d1b60179184019182015283516113178160288401602088016116fb565b01602801949350505050565b6001600160a01b0391909116815260200190565b6001600160a01b039384168152919092166020820152604081019190915260600190565b6001600160a01b03929092168252602082015260400190565b901515815260200190565b90815260200190565b60006020825282518060208401526113a78160408501602087016116fb565b601f01601f19169190910160400192915050565b6020808252818101527f537472696e67733a20686578206c656e67746820696e73756666696369656e74604082015260600190565b60208082526034908201527f504f4f4c3a2054686520616d6f756e74206c656573207468616e20746865206d60408201527330b933b4b7339037b31034b73b32b9ba34b7339760611b606082015260800190565b60208082526033908201527f504f4f4c3a204d4f44455241544f5220717565727920666f72206e6f6e6578696040820152727374656e7420636f6e74726163742053616c6560681b606082015260800190565b6020808252818101527f504f4f4c3a20546869732053616c65206973206e6f7420617070726f7665642e604082015260600190565b6020808252602e908201527f504f4f4c3a204d4f44455241544f5220717565727920666f72206e6f6e20657860408201526d1a5cdd195b9d081d1bdad95b925960921b606082015260800190565b6020808252602a908201527f504f4f4c3a20596f757220617265206e6f7420616e20696e766573746f72207260408201526932b3b4b9ba32b932b21760b11b606082015260800190565b6020808252602e908201527f504f4f4c3a20596f75206861766520746f20776169742061667465722074686560408201526d103bb4ba34323930bb903230bc9760911b606082015260800190565b6020808252602f908201527f416363657373436f6e74726f6c3a2063616e206f6e6c792072656e6f756e636560408201526e103937b632b9903337b91039b2b63360891b606082015260800190565b60208082526027908201527f504f4f4c3a204d696e20696e76657374696e672065786365656473207468652060408201526630b6b7bab73a1760c91b606082015260800190565b6020808252601590820152742cb7ba903237b713ba103430bb3290333ab732399760591b604082015260600190565b9283526020830191909152604082015260600190565b600082198211156116a0576116a0611742565b500190565b6000826116c057634e487b7160e01b81526012600452602481fd5b500490565b60008160001904831182151516156116df576116df611742565b500290565b6000828210156116f6576116f6611742565b500390565b60005b838110156117165781810151838201526020016116fe565b83811115611725576000848401525b50505050565b60008161173a5761173a611742565b506000190190565b634e487b7160e01b600052601160045260246000fd5b6001600160a01b038116811461176d57600080fd5b5056fea2646970667358221220984dc18a11a5ac2e204d6c76096c77e76c5387c3250dea3a3f1a163917bf212264736f6c63430008000033",
  "immutableReferences": {},
  "source": "// SPDX-License-Identifier: MIT\npragma solidity ^0.8.0;\n\nimport \"@openzeppelin/contracts/token/ERC20/IERC20.sol\";\nimport \"@openzeppelin/contracts/token/ERC721/IERC721.sol\";\nimport \"@openzeppelin/contracts/utils/Counters.sol\";\nimport \"@openzeppelin/contracts/access/AccessControl.sol\";\nimport \"./ISale.sol\";\n\ncontract PooLRBAC is AccessControl {\n  using Counters for Counters.Counter;\n  \n  bytes32 public constant MODERATOR_ROLE = keccak256(\"MODERATOR_ROLE\");\n  bytes32 public constant FUNDER_ROLE = keccak256(\"FUNDER_ROLE\");\n\n  uint256 public minInvesting;\n  uint256 public interest;\n  uint256 public stakingDays;\n  uint256 public marginInvestment;\n  Counters.Counter public _numberOfInvestment;\n  IERC20 dai;\n  IERC721 tokenFactoring;\n\n  \n  struct Investor {\n    uint256 amountFounding;\n    uint256 benefits;\n    uint256 dayDeposit;\n  }\n\n  mapping (address => Investor) public investors;\n  mapping (address => uint) public pendingReturns;\n  mapping (address => bool) public exist;\n  mapping (address => bool) private allowance;\n\n  event Deposit(address indexed investor, uint256 indexed amount);\n  event Withdraw(address indexed investor, uint256 indexed amount);\n  event Funding(address indexed contractSale, uint256 indexed amountFounding);\n\n  constructor(\n    address asset,\n    address reservaERC721, \n    address accountModerator, \n    address accountFunder, \n    uint256 MinInvesting, uint256 Rate, uint256 StakingDays, uint256 MarginInvestment) {\n      minInvesting = MinInvesting;\n      interest = Rate;\n      dai = IERC20(asset);\n      tokenFactoring = IERC721(reservaERC721);\n      stakingDays = (StakingDays * 1 minutes) + block.timestamp;\n      marginInvestment = MarginInvestment;\n      _setupRole(DEFAULT_ADMIN_ROLE, msg.sender);\n      grantRole(MODERATOR_ROLE, accountModerator);\n      grantRole(FUNDER_ROLE, accountFunder);\n  }\n  \n  function investingOf(address _investor) public view returns(uint256 balance){\n    balance = investors[_investor].amountFounding;\n  }\n  \n  function profit(address _investor) public view returns(uint256) {\n    return _profit(interest, investors[_investor].amountFounding);\n  }\n\n  function _liquidity() public view returns(uint256 liquidity) {\n    liquidity = dai.balanceOf(address(this));\n  }\n\n  function showRemainingTimeToWithdraw(address investor) public view returns(uint256) {\n    return (investors[investor].dayDeposit - block.timestamp);\n  } \n\n  function _interest(uint256 newInterest) public onlyRole(DEFAULT_ADMIN_ROLE) returns(bool status) {\n    interest = newInterest;\n    status = true;\n  }\n\n  function _minInvesting(uint256 newMinInvesting) public onlyRole(DEFAULT_ADMIN_ROLE) returns(bool status) {\n    minInvesting = newMinInvesting;\n    status = true;\n  }\n\n  function _marginInvestment(uint256 newMarginInvestmment) public onlyRole(DEFAULT_ADMIN_ROLE) returns(bool status) {\n    marginInvestment = newMarginInvestmment;\n    status = true;\n  }\n\n  function deposit(uint256 _amount) external returns(bool) {\n    uint256 valueINV = pendingReturns[_msgSender()] += _amount;\n    require(valueINV >= minInvesting, \"POOL: Min investing exceeds the amount.\");\n    dai.transferFrom(_msgSender(), address(this), _amount);\n    uint256 _benefits = valueINV + _profit(interest, valueINV);\n    investors[_msgSender()] = Investor(valueINV, _benefits, block.timestamp);\n    exist[_msgSender()] = true;\n    emit Deposit(_msgSender(), _amount);\n    return true; \n  }\n\n  function withdraw(uint256 _valueWithdrawal) external returns(bool) {\n    require(exist[_msgSender()], \"POOL: Your are not an investor registered.\");\n    require(_valueWithdrawal <= investors[_msgSender()].benefits, \"You don't have funds.\");\n    uint256 daysPassed = (block.timestamp - investors[_msgSender()].dayDeposit) / 1 minutes;\n    require(daysPassed >=  stakingDays + 1 minutes, \"POOL: You have to wait after the withdraw day.\");\n    dai.transfer(_msgSender(), _valueWithdrawal);\n    investors[_msgSender()].benefits -= _valueWithdrawal;\n    emit Withdraw(_msgSender(), _valueWithdrawal);\n    return true;\n  }  \n\n  function approve(address contractSale) external onlyRole(MODERATOR_ROLE) returns(bool) {\n    require(contractSale != address(0), \"POOL: MODERATOR query for nonexistent contract Sale\");\n    require(tokenFactoring.ownerOf(ISale(contractSale).tokenId()) != address(0), \"POOL: MODERATOR query for non existent tokenId\");\n    allowance[contractSale] = true;\n    _numberOfInvestment.increment();\n    return true;\n  }\n\n\n  function funding(uint256 _amount, address contractSale) external onlyRole(FUNDER_ROLE) returns(bool) {\n    require(allowance[contractSale], \"POOL: This Sale is not approved.\");\n    require(_liquidity() - _amount > marginInvestment, \"POOL: The amount lees than the marging of investing.\");\n    dai.approve(contractSale, _amount);\n    ISale(contractSale).pay(_amount);\n    emit Funding(contractSale, _amount);\n    return true;\n  }\n\n  function _profit(uint256 _interestInPorcentage, uint256 _amount) private pure returns(uint256) {\n     uint256 value = (_interestInPorcentage * _amount) / (100 * 10 **18);\n     return value;\n  }\n\n}\n\n",
  "sourcePath": "D:/Trabajo/0-Reservafs/Proyectos/DIF/contracts/PoolRBAC.sol",
  "compiler": {
    "name": "solc",
    "version": "0.8.0+commit.c7dfd78e.Emscripten.clang"
  },
  "schemaVersion": "3.3.4",
  "updatedAt": "2021-07-02T06:28:45.452Z",
  "networkType": "ethereum",
  "devdoc": {
    "kind": "dev",
    "methods": {
      "getRoleAdmin(bytes32)": {
        "details": "Returns the admin role that controls `role`. See {grantRole} and {revokeRole}. To change a role's admin, use {_setRoleAdmin}."
      },
      "grantRole(bytes32,address)": {
        "details": "Grants `role` to `account`. If `account` had not been already granted `role`, emits a {RoleGranted} event. Requirements: - the caller must have ``role``'s admin role."
      },
      "hasRole(bytes32,address)": {
        "details": "Returns `true` if `account` has been granted `role`."
      },
      "renounceRole(bytes32,address)": {
        "details": "Revokes `role` from the calling account. Roles are often managed via {grantRole} and {revokeRole}: this function's purpose is to provide a mechanism for accounts to lose their privileges if they are compromised (such as when a trusted device is misplaced). If the calling account had been granted `role`, emits a {RoleRevoked} event. Requirements: - the caller must be `account`."
      },
      "revokeRole(bytes32,address)": {
        "details": "Revokes `role` from `account`. If `account` had been granted `role`, emits a {RoleRevoked} event. Requirements: - the caller must have ``role``'s admin role."
      },
      "supportsInterface(bytes4)": {
        "details": "See {IERC165-supportsInterface}."
      }
    },
    "version": 1
  },
  "userdoc": {
    "kind": "user",
    "methods": {},
    "version": 1
  }
}