{
  "contractName": "Sale",
  "abi": [
    {
      "inputs": [
        {
          "internalType": "address",
          "name": "asset",
          "type": "address"
        },
        {
          "internalType": "address",
          "name": "addressDIF",
          "type": "address"
        },
        {
          "internalType": "uint256",
          "name": "_tokenId",
          "type": "uint256"
        },
        {
          "internalType": "uint256",
          "name": "_price",
          "type": "uint256"
        }
      ],
      "stateMutability": "nonpayable",
      "type": "constructor"
    },
    {
      "anonymous": false,
      "inputs": [
        {
          "indexed": true,
          "internalType": "uint256",
          "name": "tokenId",
          "type": "uint256"
        },
        {
          "indexed": true,
          "internalType": "uint256",
          "name": "price",
          "type": "uint256"
        }
      ],
      "name": "NewSale",
      "type": "event"
    },
    {
      "anonymous": false,
      "inputs": [
        {
          "indexed": true,
          "internalType": "address",
          "name": "previousOwner",
          "type": "address"
        },
        {
          "indexed": true,
          "internalType": "address",
          "name": "newOwner",
          "type": "address"
        }
      ],
      "name": "OwnershipTransferred",
      "type": "event"
    },
    {
      "anonymous": false,
      "inputs": [
        {
          "indexed": true,
          "internalType": "address",
          "name": "payer",
          "type": "address"
        },
        {
          "indexed": true,
          "internalType": "uint256",
          "name": "tokenId",
          "type": "uint256"
        }
      ],
      "name": "PaidUP",
      "type": "event"
    },
    {
      "inputs": [],
      "name": "ended",
      "outputs": [
        {
          "internalType": "bool",
          "name": "",
          "type": "bool"
        }
      ],
      "stateMutability": "view",
      "type": "function"
    },
    {
      "inputs": [],
      "name": "factor",
      "outputs": [
        {
          "internalType": "address",
          "name": "",
          "type": "address"
        }
      ],
      "stateMutability": "view",
      "type": "function"
    },
    {
      "inputs": [],
      "name": "owner",
      "outputs": [
        {
          "internalType": "address",
          "name": "",
          "type": "address"
        }
      ],
      "stateMutability": "view",
      "type": "function"
    },
    {
      "inputs": [],
      "name": "price",
      "outputs": [
        {
          "internalType": "uint256",
          "name": "",
          "type": "uint256"
        }
      ],
      "stateMutability": "view",
      "type": "function"
    },
    {
      "inputs": [],
      "name": "renounceOwnership",
      "outputs": [],
      "stateMutability": "nonpayable",
      "type": "function"
    },
    {
      "inputs": [],
      "name": "seller",
      "outputs": [
        {
          "internalType": "address",
          "name": "",
          "type": "address"
        }
      ],
      "stateMutability": "view",
      "type": "function"
    },
    {
      "inputs": [],
      "name": "tokenId",
      "outputs": [
        {
          "internalType": "uint256",
          "name": "",
          "type": "uint256"
        }
      ],
      "stateMutability": "view",
      "type": "function"
    },
    {
      "inputs": [
        {
          "internalType": "address",
          "name": "newOwner",
          "type": "address"
        }
      ],
      "name": "transferOwnership",
      "outputs": [],
      "stateMutability": "nonpayable",
      "type": "function"
    },
    {
      "inputs": [
        {
          "internalType": "uint256",
          "name": "_amount",
          "type": "uint256"
        }
      ],
      "name": "pay",
      "outputs": [
        {
          "internalType": "bool",
          "name": "",
          "type": "bool"
        }
      ],
      "stateMutability": "nonpayable",
      "type": "function"
    },
    {
      "inputs": [],
      "name": "showRemainingDate",
      "outputs": [
        {
          "internalType": "uint256",
          "name": "",
          "type": "uint256"
        }
      ],
      "stateMutability": "view",
      "type": "function"
    },
    {
      "inputs": [],
      "name": "showProfit",
      "outputs": [
        {
          "internalType": "uint256",
          "name": "",
          "type": "uint256"
        }
      ],
      "stateMutability": "view",
      "type": "function"
    },
    {
      "inputs": [
        {
          "internalType": "uint256",
          "name": "_tokenId",
          "type": "uint256"
        },
        {
          "internalType": "uint256",
          "name": "_price",
          "type": "uint256"
        }
      ],
      "name": "newSale",
      "outputs": [
        {
          "internalType": "bool",
          "name": "",
          "type": "bool"
        }
      ],
      "stateMutability": "nonpayable",
      "type": "function"
    }
  ],
  "bytecode": "0x608060405234801561001057600080fd5b50604051610cf9380380610cf983398101604081905261002f9161011b565b60006100396100ec565b600080546001600160a01b0319166001600160a01b0383169081178255604051929350917f8be0079c531659141344cd1fd0a4f28419497f9722a3daafe3b4186f6b6457e0908290a350600180546001600160a01b038087166001600160a01b03199283161790925560028054928616929091169190911790556100bb6100f0565b600380546001600160a01b0319166001600160a01b03929092169190911790556005919091556006555061015d9050565b3390565b6000546001600160a01b031690565b80516001600160a01b038116811461011657600080fd5b919050565b60008060008060808587031215610130578384fd5b610139856100ff565b9350610147602086016100ff565b6040860151606090960151949790965092505050565b610b8d8061016c6000396000f3fe608060405234801561001057600080fd5b50600436106100b45760003560e01c80638f351464116100715780638f3514641461011b578063961a42c314610123578063a035b1fe1461012b578063c290d69114610133578063f2fde38b14610146578063ff36cae314610159576100b4565b806308551a53146100b957806312fa6feb146100d757806317d70f7c146100ec57806354f703f814610101578063715018a6146101095780638da5cb5b14610113575b600080fd5b6100c161016c565b6040516100ce919061090f565b60405180910390f35b6100df61017b565b6040516100ce9190610947565b6100f4610184565b6040516100ce9190610af5565b6100c161018a565b610111610199565b005b6100c161022b565b6100f461023a565b6100f46102de565b6100f46103a6565b6100df610141366004610858565b6103ac565b61011161015436600461080a565b6105e8565b6100df610167366004610870565b6106a8565b6003546001600160a01b031681565b60075460ff1681565b60055481565b6004546001600160a01b031681565b6101a1610765565b6001600160a01b03166101b261022b565b6001600160a01b0316146101e15760405162461bcd60e51b81526004016101d890610ac0565b60405180910390fd5b600080546040516001600160a01b03909116907f8be0079c531659141344cd1fd0a4f28419497f9722a3daafe3b4186f6b6457e0908390a3600080546001600160a01b0319169055565b6000546001600160a01b031690565b600254600554604051633342f39b60e11b815260009283926001600160a01b0390911691636685e7369161027091600401610af5565b60006040518083038186803b15801561028857600080fd5b505afa15801561029c573d6000803e3d6000fd5b505050506040513d6000823e601f3d908101601f191682016040526102c49190810190610891565b505050509050600654816102d89190610b1e565b91505090565b600254600554604051633342f39b60e11b815260009283926001600160a01b0390911691636685e7369161031491600401610af5565b60006040518083038186803b15801561032c57600080fd5b505afa158015610340573d6000803e3d6000fd5b505050506040513d6000823e601f3d908101601f191682016040526103689190810190610891565b5050925050508042111561038e5760405162461bcd60e51b81526004016101d890610952565b6201518061039c4283610b1e565b6102d89190610afe565b60065481565b600254600554604051633342f39b60e11b815260009283926001600160a01b0390911691636685e736916103e291600401610af5565b60006040518083038186803b1580156103fa57600080fd5b505afa15801561040e573d6000803e3d6000fd5b505050506040513d6000823e601f3d908101601f191682016040526104369190810190610891565b50509250505080421061045b5760405162461bcd60e51b81526004016101d890610a7c565b826006541461047c5760405162461bcd60e51b81526004016101d8906109cf565b610484610765565b600480546001600160a01b0319166001600160a01b03928316178082556001546003546040516323b872dd60e01b8152918516946323b872dd946104d2948216939290911691899101610923565b602060405180830381600087803b1580156104ec57600080fd5b505af1158015610500573d6000803e3d6000fd5b505050506040513d601f19601f820116820180604052508101906105249190610838565b50600254600354600480546005546040516323b872dd60e01b81526001600160a01b03958616956323b872dd956105649590821694909116929101610923565b600060405180830381600087803b15801561057e57600080fd5b505af1158015610592573d6000803e3d6000fd5b50506005546004546040519193506001600160a01b031691507fd3cfab0c51558aadd43b78de331c7dc118459153e35dd41c6566d82822a1847890600090a350506007805460ff19166001908117909155919050565b6105f0610765565b6001600160a01b031661060161022b565b6001600160a01b0316146106275760405162461bcd60e51b81526004016101d890610ac0565b6001600160a01b03811661064d5760405162461bcd60e51b81526004016101d890610989565b600080546040516001600160a01b03808516939216917f8be0079c531659141344cd1fd0a4f28419497f9722a3daafe3b4186f6b6457e091a3600080546001600160a01b0319166001600160a01b0392909216919091179055565b60006106b2610765565b6001600160a01b03166106c361022b565b6001600160a01b0316146106e95760405162461bcd60e51b81526004016101d890610ac0565b60075460ff1661070b5760405162461bcd60e51b81526004016101d890610a2c565b600480546001600160a01b0319169055600583905560068290556007805460ff19169055604051829084907f7752f985370f9475f09c7dc0523f4e9e8ace8514776ca241f4ddede3d7d7981f90600090a350600192915050565b3390565b600082601f830112610779578081fd5b815167ffffffffffffffff8082111561079457610794610b41565b6040516020601f8401601f19168201810183811183821017156107b9576107b9610b41565b60405283825285840181018710156107cf578485fd5b8492505b838310156107f057858301810151828401820152918201916107d3565b8383111561080057848185840101525b5095945050505050565b60006020828403121561081b578081fd5b81356001600160a01b0381168114610831578182fd5b9392505050565b600060208284031215610849578081fd5b81518015158114610831578182fd5b600060208284031215610869578081fd5b5035919050565b60008060408385031215610882578081fd5b50508035926020909101359150565b600080600080600060a086880312156108a8578081fd5b855194506020860151935060408601519250606086015167ffffffffffffffff808211156108d4578283fd5b6108e089838a01610769565b935060808801519150808211156108f5578283fd5b5061090288828901610769565b9150509295509295909350565b6001600160a01b0391909116815260200190565b6001600160a01b039384168152919092166020820152604081019190915260600190565b901515815260200190565b6020808252601e908201527f53616c653a205468697320746f6b656e20686173206578706972617465640000604082015260600190565b60208082526026908201527f4f776e61626c653a206e6577206f776e657220697320746865207a65726f206160408201526564647265737360d01b606082015260800190565b60208082526037908201527f53616c653a204e6f74206d617463682074686520616d6f756e74207472616e7360408201527f6665726564207769746820746f6b656e2070726963652e000000000000000000606082015260800190565b60208082526030908201527f53616c653a20596f752068616520746f207761697420746f20656e646e67207460408201526f34329031bab93932b73a1039b0b6329760811b606082015260800190565b60208082526024908201527f53616c653a205468697320746f6b656e20686173206265656e206578706972616040820152633a32b21760e11b606082015260800190565b6020808252818101527f4f776e61626c653a2063616c6c6572206973206e6f7420746865206f776e6572604082015260600190565b90815260200190565b600082610b1957634e487b7160e01b81526012600452602481fd5b500490565b600082821015610b3c57634e487b7160e01b81526011600452602481fd5b500390565b634e487b7160e01b600052604160045260246000fdfea264697066735822122083dabead233f57582b013569ee424d7e0af047fe7e29d90579fbd54dcbb12dea64736f6c63430008000033",
  "immutableReferences": {},
  "source": "// SPDX-License-Identifier: MIT\r\npragma solidity ^0.8.0;\r\n\r\nimport \"./ITokenFactoring.sol\";\r\nimport \"@openzeppelin/contracts/token/ERC20/IERC20.sol\";\r\nimport \"@openzeppelin/contracts/access/Ownable.sol\";\r\n\r\ncontract Sale is Ownable{\r\n\r\n    IERC20 dai;\r\n    ITokenFactoring dif;\r\n\r\n    address public seller;\r\n    address public factor;\r\n    uint256 public tokenId;\r\n    uint256 public price;\r\n    bool public ended;\r\n\r\n    event PaidUP (address indexed payer, uint256 indexed tokenId);\r\n    event NewSale(uint256 indexed tokenId, uint256 indexed price);\r\n\r\n    constructor (address asset, address addressDIF, uint256 _tokenId, uint256 _price) {\r\n        dai = IERC20(asset);\r\n        dif = ITokenFactoring(addressDIF);\r\n        seller = owner();\r\n        tokenId = _tokenId;\r\n        price = _price;\r\n    }\r\n\r\n    function pay(uint256 _amount) external returns(bool) {\r\n       (, , uint256 expirationDate, , ) = dif.getDataToken(tokenId);\r\n       require(block.timestamp < expirationDate, \"Sale: This token has been expirated.\");\r\n       require(price == _amount, \"Sale: Not match the amount transfered with token price.\");\r\n       factor = _msgSender();\r\n       dai.transferFrom(factor, seller, _amount);\r\n       dif.transferFrom(seller, factor, tokenId);\r\n       emit PaidUP(factor, tokenId);\r\n       ended = true;\r\n       return true;\r\n    }\r\n\r\n    function showRemainingDate() external view returns(uint256) {\r\n        (, , uint256 expirationDate, , ) = dif.getDataToken(tokenId);\r\n        require(block.timestamp <= expirationDate, \"Sale: This token has expirated\");\r\n        return (expirationDate - block.timestamp) / 1 days;  \r\n    }\r\n\r\n    function showProfit() external view returns(uint256) {\r\n        (uint256 value, , , , ) = dif.getDataToken(tokenId);\r\n        return value - price;\r\n    }\r\n\r\n    function newSale(uint256 _tokenId, uint256 _price) external onlyOwner() returns(bool) {\r\n        require(ended, \"Sale: You hae to wait to endng the current sale.\");\r\n        factor = address(0);\r\n        tokenId = _tokenId;\r\n        price = _price;\r\n        ended = false;\r\n        emit NewSale(tokenId, price);    \r\n        return true;\r\n    }\r\n\r\n}",
  "sourcePath": "D:/Trabajo/0-Reservafs/Proyectos/DIF PROJECT/DIF/contracts/Sale.sol",
  "compiler": {
    "name": "solc",
    "version": "0.8.0+commit.c7dfd78e.Emscripten.clang"
  },
  "schemaVersion": "3.3.4",
  "updatedAt": "2021-07-31T19:53:07.656Z",
  "devdoc": {
    "kind": "dev",
    "methods": {
      "owner()": {
        "details": "Returns the address of the current owner."
      },
      "renounceOwnership()": {
        "details": "Leaves the contract without owner. It will not be possible to call `onlyOwner` functions anymore. Can only be called by the current owner. NOTE: Renouncing ownership will leave the contract without an owner, thereby removing any functionality that is only available to the owner."
      },
      "transferOwnership(address)": {
        "details": "Transfers ownership of the contract to a new account (`newOwner`). Can only be called by the current owner."
      }
    },
    "version": 1
  },
  "userdoc": {
    "kind": "user",
    "methods": {},
    "version": 1
  }
}