{
  "contractName": "TokenFactoring",
  "abi": [
    {
      "inputs": [],
      "stateMutability": "nonpayable",
      "type": "constructor"
    },
    {
      "anonymous": false,
      "inputs": [
        {
          "indexed": true,
          "internalType": "address",
          "name": "owner",
          "type": "address"
        },
        {
          "indexed": true,
          "internalType": "address",
          "name": "approved",
          "type": "address"
        },
        {
          "indexed": true,
          "internalType": "uint256",
          "name": "tokenId",
          "type": "uint256"
        }
      ],
      "name": "Approval",
      "type": "event"
    },
    {
      "anonymous": false,
      "inputs": [
        {
          "indexed": true,
          "internalType": "address",
          "name": "owner",
          "type": "address"
        },
        {
          "indexed": true,
          "internalType": "address",
          "name": "operator",
          "type": "address"
        },
        {
          "indexed": false,
          "internalType": "bool",
          "name": "approved",
          "type": "bool"
        }
      ],
      "name": "ApprovalForAll",
      "type": "event"
    },
    {
      "anonymous": false,
      "inputs": [
        {
          "indexed": true,
          "internalType": "bytes32",
          "name": "role",
          "type": "bytes32"
        },
        {
          "indexed": true,
          "internalType": "bytes32",
          "name": "previousAdminRole",
          "type": "bytes32"
        },
        {
          "indexed": true,
          "internalType": "bytes32",
          "name": "newAdminRole",
          "type": "bytes32"
        }
      ],
      "name": "RoleAdminChanged",
      "type": "event"
    },
    {
      "anonymous": false,
      "inputs": [
        {
          "indexed": true,
          "internalType": "bytes32",
          "name": "role",
          "type": "bytes32"
        },
        {
          "indexed": true,
          "internalType": "address",
          "name": "account",
          "type": "address"
        },
        {
          "indexed": true,
          "internalType": "address",
          "name": "sender",
          "type": "address"
        }
      ],
      "name": "RoleGranted",
      "type": "event"
    },
    {
      "anonymous": false,
      "inputs": [
        {
          "indexed": true,
          "internalType": "bytes32",
          "name": "role",
          "type": "bytes32"
        },
        {
          "indexed": true,
          "internalType": "address",
          "name": "account",
          "type": "address"
        },
        {
          "indexed": true,
          "internalType": "address",
          "name": "sender",
          "type": "address"
        }
      ],
      "name": "RoleRevoked",
      "type": "event"
    },
    {
      "anonymous": false,
      "inputs": [
        {
          "indexed": true,
          "internalType": "address",
          "name": "from",
          "type": "address"
        },
        {
          "indexed": true,
          "internalType": "address",
          "name": "to",
          "type": "address"
        },
        {
          "indexed": true,
          "internalType": "uint256",
          "name": "tokenId",
          "type": "uint256"
        }
      ],
      "name": "Transfer",
      "type": "event"
    },
    {
      "inputs": [],
      "name": "DEFAULT_ADMIN_ROLE",
      "outputs": [
        {
          "internalType": "bytes32",
          "name": "",
          "type": "bytes32"
        }
      ],
      "stateMutability": "view",
      "type": "function"
    },
    {
      "inputs": [],
      "name": "_tokenIds",
      "outputs": [
        {
          "internalType": "uint256",
          "name": "_value",
          "type": "uint256"
        }
      ],
      "stateMutability": "view",
      "type": "function"
    },
    {
      "inputs": [
        {
          "internalType": "address",
          "name": "to",
          "type": "address"
        },
        {
          "internalType": "uint256",
          "name": "tokenId",
          "type": "uint256"
        }
      ],
      "name": "approve",
      "outputs": [],
      "stateMutability": "nonpayable",
      "type": "function"
    },
    {
      "inputs": [
        {
          "internalType": "address",
          "name": "owner",
          "type": "address"
        }
      ],
      "name": "balanceOf",
      "outputs": [
        {
          "internalType": "uint256",
          "name": "",
          "type": "uint256"
        }
      ],
      "stateMutability": "view",
      "type": "function"
    },
    {
      "inputs": [
        {
          "internalType": "uint256",
          "name": "",
          "type": "uint256"
        }
      ],
      "name": "expirationDate",
      "outputs": [
        {
          "internalType": "uint256",
          "name": "",
          "type": "uint256"
        }
      ],
      "stateMutability": "view",
      "type": "function"
    },
    {
      "inputs": [
        {
          "internalType": "uint256",
          "name": "tokenId",
          "type": "uint256"
        }
      ],
      "name": "getApproved",
      "outputs": [
        {
          "internalType": "address",
          "name": "",
          "type": "address"
        }
      ],
      "stateMutability": "view",
      "type": "function"
    },
    {
      "inputs": [
        {
          "internalType": "bytes32",
          "name": "role",
          "type": "bytes32"
        }
      ],
      "name": "getRoleAdmin",
      "outputs": [
        {
          "internalType": "bytes32",
          "name": "",
          "type": "bytes32"
        }
      ],
      "stateMutability": "view",
      "type": "function"
    },
    {
      "inputs": [
        {
          "internalType": "bytes32",
          "name": "role",
          "type": "bytes32"
        },
        {
          "internalType": "address",
          "name": "account",
          "type": "address"
        }
      ],
      "name": "grantRole",
      "outputs": [],
      "stateMutability": "nonpayable",
      "type": "function"
    },
    {
      "inputs": [
        {
          "internalType": "bytes32",
          "name": "role",
          "type": "bytes32"
        },
        {
          "internalType": "address",
          "name": "account",
          "type": "address"
        }
      ],
      "name": "hasRole",
      "outputs": [
        {
          "internalType": "bool",
          "name": "",
          "type": "bool"
        }
      ],
      "stateMutability": "view",
      "type": "function"
    },
    {
      "inputs": [
        {
          "internalType": "address",
          "name": "owner",
          "type": "address"
        },
        {
          "internalType": "address",
          "name": "operator",
          "type": "address"
        }
      ],
      "name": "isApprovedForAll",
      "outputs": [
        {
          "internalType": "bool",
          "name": "",
          "type": "bool"
        }
      ],
      "stateMutability": "view",
      "type": "function"
    },
    {
      "inputs": [],
      "name": "name",
      "outputs": [
        {
          "internalType": "string",
          "name": "",
          "type": "string"
        }
      ],
      "stateMutability": "view",
      "type": "function"
    },
    {
      "inputs": [
        {
          "internalType": "uint256",
          "name": "tokenId",
          "type": "uint256"
        }
      ],
      "name": "ownerOf",
      "outputs": [
        {
          "internalType": "address",
          "name": "",
          "type": "address"
        }
      ],
      "stateMutability": "view",
      "type": "function"
    },
    {
      "inputs": [
        {
          "internalType": "bytes32",
          "name": "role",
          "type": "bytes32"
        },
        {
          "internalType": "address",
          "name": "account",
          "type": "address"
        }
      ],
      "name": "renounceRole",
      "outputs": [],
      "stateMutability": "nonpayable",
      "type": "function"
    },
    {
      "inputs": [
        {
          "internalType": "bytes32",
          "name": "role",
          "type": "bytes32"
        },
        {
          "internalType": "address",
          "name": "account",
          "type": "address"
        }
      ],
      "name": "revokeRole",
      "outputs": [],
      "stateMutability": "nonpayable",
      "type": "function"
    },
    {
      "inputs": [
        {
          "internalType": "address",
          "name": "from",
          "type": "address"
        },
        {
          "internalType": "address",
          "name": "to",
          "type": "address"
        },
        {
          "internalType": "uint256",
          "name": "tokenId",
          "type": "uint256"
        }
      ],
      "name": "safeTransferFrom",
      "outputs": [],
      "stateMutability": "nonpayable",
      "type": "function"
    },
    {
      "inputs": [
        {
          "internalType": "address",
          "name": "from",
          "type": "address"
        },
        {
          "internalType": "address",
          "name": "to",
          "type": "address"
        },
        {
          "internalType": "uint256",
          "name": "tokenId",
          "type": "uint256"
        },
        {
          "internalType": "bytes",
          "name": "_data",
          "type": "bytes"
        }
      ],
      "name": "safeTransferFrom",
      "outputs": [],
      "stateMutability": "nonpayable",
      "type": "function"
    },
    {
      "inputs": [
        {
          "internalType": "address",
          "name": "operator",
          "type": "address"
        },
        {
          "internalType": "bool",
          "name": "approved",
          "type": "bool"
        }
      ],
      "name": "setApprovalForAll",
      "outputs": [],
      "stateMutability": "nonpayable",
      "type": "function"
    },
    {
      "inputs": [],
      "name": "symbol",
      "outputs": [
        {
          "internalType": "string",
          "name": "",
          "type": "string"
        }
      ],
      "stateMutability": "view",
      "type": "function"
    },
    {
      "inputs": [
        {
          "internalType": "uint256",
          "name": "tokenId",
          "type": "uint256"
        }
      ],
      "name": "tokenURI",
      "outputs": [
        {
          "internalType": "string",
          "name": "",
          "type": "string"
        }
      ],
      "stateMutability": "view",
      "type": "function"
    },
    {
      "inputs": [
        {
          "internalType": "address",
          "name": "from",
          "type": "address"
        },
        {
          "internalType": "address",
          "name": "to",
          "type": "address"
        },
        {
          "internalType": "uint256",
          "name": "tokenId",
          "type": "uint256"
        }
      ],
      "name": "transferFrom",
      "outputs": [],
      "stateMutability": "nonpayable",
      "type": "function"
    },
    {
      "inputs": [
        {
          "internalType": "bytes4",
          "name": "interfaceId",
          "type": "bytes4"
        }
      ],
      "name": "supportsInterface",
      "outputs": [
        {
          "internalType": "bool",
          "name": "",
          "type": "bool"
        }
      ],
      "stateMutability": "view",
      "type": "function"
    },
    {
      "inputs": [
        {
          "internalType": "string",
          "name": "tokenURI",
          "type": "string"
        },
        {
          "internalType": "uint256",
          "name": "_expirationDate",
          "type": "uint256"
        }
      ],
      "name": "createInvoice",
      "outputs": [
        {
          "internalType": "uint256",
          "name": "",
          "type": "uint256"
        }
      ],
      "stateMutability": "nonpayable",
      "type": "function"
    },
    {
      "inputs": [
        {
          "internalType": "uint256",
          "name": "_tokenId",
          "type": "uint256"
        }
      ],
      "name": "destroyInvoice",
      "outputs": [
        {
          "internalType": "bool",
          "name": "",
          "type": "bool"
        }
      ],
      "stateMutability": "nonpayable",
      "type": "function"
    }
  ],
  "bytecode": "0x60806040523480156200001157600080fd5b50604080518082018252601f81527f446563656e7472616c697a656420496e766f69636520466163746f72696e67006020808301918252835180850190945260038452622224a360e91b90840152815191929162000072916000916200016b565b508051620000889060019060208401906200016b565b506200009a91506000905033620000a0565b6200024e565b620000ac8282620000b0565b5050565b620000bc82826200013c565b620000ac5760008281526007602090815260408083206001600160a01b03851684529091529020805460ff19166001179055620000f862000167565b6001600160a01b0316816001600160a01b0316837f2f8788117e7eff1d82e926ec794901d17c78024a50270940304540a733656f0d60405160405180910390a45050565b60009182526007602090815260408084206001600160a01b0393909316845291905290205460ff1690565b3390565b828054620001799062000211565b90600052602060002090601f0160209004810192826200019d5760008555620001e8565b82601f10620001b857805160ff1916838001178555620001e8565b82800160010185558215620001e8579182015b82811115620001e8578251825591602001919060010190620001cb565b50620001f6929150620001fa565b5090565b5b80821115620001f65760008155600101620001fb565b6002810460018216806200022657607f821691505b602082108114156200024857634e487b7160e01b600052602260045260246000fd5b50919050565b612071806200025e6000396000f3fe608060405234801561001057600080fd5b506004361061014d5760003560e01c806391d14854116100c3578063b88d4fde1161007c578063b88d4fde146102a8578063c87b56dd146102bb578063d4280d5a146102ce578063d547741f146102e1578063deb245f2146102f4578063e985e9c5146103075761014d565b806391d148541461025757806395d89b411461026a578063a080ee8c14610272578063a217fddf14610285578063a22cb4651461028d578063aa46a400146102a05761014d565b8063248a9ca311610115578063248a9ca3146101d85780632f2ff15d146101f857806336568abe1461020b57806342842e0e1461021e5780636352211e1461023157806370a08231146102445761014d565b806301ffc9a71461015257806306fdde031461017b578063081812fc14610190578063095ea7b3146101b057806323b872dd146101c5575b600080fd5b61016561016036600461178f565b61031a565b604051610172919061193e565b60405180910390f35b610183610398565b6040516101729190611967565b6101a361019e366004611755565b61042a565b60405161017291906118ed565b6101c36101be366004611710565b610476565b005b6101c36101d3366004611626565b61050e565b6101eb6101e6366004611755565b610546565b6040516101729190611949565b6101c361020636600461176d565b61055b565b6101c361021936600461176d565b61057f565b6101c361022c366004611626565b6105c5565b6101a361023f366004611755565b6105e0565b6101eb6102523660046115da565b610615565b61016561026536600461176d565b610659565b610183610684565b6101eb610280366004611755565b610693565b6101eb6106a5565b6101c361029b3660046116da565b6106aa565b6101eb610778565b6101c36102b6366004611661565b61077e565b6101836102c9366004611755565b6107bd565b6101eb6102dc3660046117c7565b6108de565b6101c36102ef36600461176d565b610948565b610165610302366004611755565b610967565b6101656103153660046115f4565b6109db565b6040516301ffc9a760e01b815260009030906301ffc9a790610340908590600401611952565b60206040518083038186803b15801561035857600080fd5b505afa15801561036c573d6000803e3d6000fd5b505050506040513d601f19601f820116820180604052508101906103909190611739565b90505b919050565b6060600080546103a790611f71565b80601f01602080910402602001604051908101604052809291908181526020018280546103d390611f71565b80156104205780601f106103f557610100808354040283529160200191610420565b820191906000526020600020905b81548152906001019060200180831161040357829003601f168201915b5050505050905090565b600061043582610a09565b61045a5760405162461bcd60e51b815260040161045190611d07565b60405180910390fd5b506000908152600460205260409020546001600160a01b031690565b6000610481826105e0565b9050806001600160a01b0316836001600160a01b031614156104b55760405162461bcd60e51b815260040161045190611deb565b806001600160a01b03166104c7610a26565b6001600160a01b031614806104e357506104e381610315610a26565b6104ff5760405162461bcd60e51b815260040161045190611aff565b6105098383610a2a565b505050565b61051f610519610a26565b82610a98565b61053b5760405162461bcd60e51b815260040161045190611e2c565b610509838383610b15565b60009081526007602052604090206001015490565b61056482610546565b61057581610570610a26565b610c42565b6105098383610ca6565b610587610a26565b6001600160a01b0316816001600160a01b0316146105b75760405162461bcd60e51b815260040161045190611e7d565b6105c18282610d2d565b5050565b6105098383836040518060200160405280600081525061077e565b6000818152600260205260408120546001600160a01b0316806103905760405162461bcd60e51b815260040161045190611ba6565b60006001600160a01b03821661063d5760405162461bcd60e51b815260040161045190611b5c565b506001600160a01b031660009081526003602052604090205490565b60009182526007602090815260408084206001600160a01b0393909316845291905290205460ff1690565b6060600180546103a790611f71565b60096020526000908152604090205481565b600081565b6106b2610a26565b6001600160a01b0316826001600160a01b031614156106e35760405162461bcd60e51b815260040161045190611a7c565b80600560006106f0610a26565b6001600160a01b03908116825260208083019390935260409182016000908120918716808252919093529120805460ff191692151592909217909155610734610a26565b6001600160a01b03167f17307eab39ab6107e8899845ad3d59bd9653f200f220920489ca2b5937696c318360405161076c919061193e565b60405180910390a35050565b60085481565b61078f610789610a26565b83610a98565b6107ab5760405162461bcd60e51b815260040161045190611e2c565b6107b784848484610db2565b50505050565b60606107c882610a09565b6107e45760405162461bcd60e51b815260040161045190611cb6565b600082815260066020526040812080546107fd90611f71565b80601f016020809104026020016040519081016040528092919081815260200182805461082990611f71565b80156108765780601f1061084b57610100808354040283529160200191610876565b820191906000526020600020905b81548152906001019060200180831161085957829003601f168201915b505050505090506000610887610de5565b905080516000141561089b57509050610393565b8151156108cd5780826040516020016108b5929190611849565b60405160208183030381529060405292505050610393565b6108d684610df7565b949350505050565b6000806108ed81610570610a26565b6108f76008610e7a565b60006109036008610e83565b905061090f3382610e87565b6109198186610f66565b426109278562015180611ef8565b6109319190611ecc565b600082815260096020526040902055949350505050565b61095182610546565b61095d81610570610a26565b6105098383610d2d565b60008061097681610570610a26565b60008381526009602052604090205442116109a35760405162461bcd60e51b815260040161045190611c3d565b6109ac83610faa565b600083815260096020526040902054156109d0576000838152600960205260408120555b600191505b50919050565b6001600160a01b03918216600090815260056020908152604080832093909416825291909152205460ff1690565b6000908152600260205260409020546001600160a01b0316151590565b3390565b600081815260046020526040902080546001600160a01b0319166001600160a01b0384169081179091558190610a5f826105e0565b6001600160a01b03167f8c5be1e5ebec7d5bd14f71427d1e84f3dd0314c0f7b2291e5b200ac8c7c3b92560405160405180910390a45050565b6000610aa382610a09565b610abf5760405162461bcd60e51b815260040161045190611ab3565b6000610aca836105e0565b9050806001600160a01b0316846001600160a01b03161480610b055750836001600160a01b0316610afa8461042a565b6001600160a01b0316145b806108d657506108d681856109db565b826001600160a01b0316610b28826105e0565b6001600160a01b031614610b4e5760405162461bcd60e51b815260040161045190611d53565b6001600160a01b038216610b745760405162461bcd60e51b815260040161045190611a38565b610b7f838383610509565b610b8a600082610a2a565b6001600160a01b0383166000908152600360205260408120805460019290610bb3908490611f17565b90915550506001600160a01b0382166000908152600360205260408120805460019290610be1908490611ecc565b909155505060008181526002602052604080822080546001600160a01b0319166001600160a01b0386811691821790925591518493918716917fddf252ad1be2c89b69c2b068fc378daa952ba7f163c4a11628f55a4df523b3ef91a4505050565b610c4c8282610659565b6105c157610c64816001600160a01b03166014610fed565b610c6f836020610fed565b604051602001610c80929190611878565b60408051601f198184030181529082905262461bcd60e51b825261045191600401611967565b610cb08282610659565b6105c15760008281526007602090815260408083206001600160a01b03851684529091529020805460ff19166001179055610ce9610a26565b6001600160a01b0316816001600160a01b0316837f2f8788117e7eff1d82e926ec794901d17c78024a50270940304540a733656f0d60405160405180910390a45050565b610d378282610659565b156105c15760008281526007602090815260408083206001600160a01b03851684529091529020805460ff19169055610d6e610a26565b6001600160a01b0316816001600160a01b0316837ff6391f5c32d9c69d2a47ea670b442974b53935d1edc7fd64eb21e047a839171b60405160405180910390a45050565b610dbd848484610b15565b610dc98484848461119f565b6107b75760405162461bcd60e51b8152600401610451906119af565b60408051602081019091526000815290565b6060610e0282610a09565b610e1e5760405162461bcd60e51b815260040161045190611d9c565b6000610e28610de5565b90506000815111610e485760405180602001604052806000815250610e73565b80610e52846112ba565b604051602001610e63929190611849565b6040516020818303038152906040525b9392505050565b80546001019055565b5490565b6001600160a01b038216610ead5760405162461bcd60e51b815260040161045190611c81565b610eb681610a09565b15610ed35760405162461bcd60e51b815260040161045190611a01565b610edf60008383610509565b6001600160a01b0382166000908152600360205260408120805460019290610f08908490611ecc565b909155505060008181526002602052604080822080546001600160a01b0319166001600160a01b03861690811790915590518392907fddf252ad1be2c89b69c2b068fc378daa952ba7f163c4a11628f55a4df523b3ef908290a45050565b610f6f82610a09565b610f8b5760405162461bcd60e51b815260040161045190611bef565b6000828152600660209081526040909120825161050992840190611482565b610fb3816113d5565b60008181526006602052604090208054610fcc90611f71565b159050610fea576000818152600660205260408120610fea91611506565b50565b60606000610ffc836002611ef8565b611007906002611ecc565b67ffffffffffffffff81111561102d57634e487b7160e01b600052604160045260246000fd5b6040519080825280601f01601f191660200182016040528015611057576020820181803683370190505b509050600360fc1b8160008151811061108057634e487b7160e01b600052603260045260246000fd5b60200101906001600160f81b031916908160001a905350600f60fb1b816001815181106110bd57634e487b7160e01b600052603260045260246000fd5b60200101906001600160f81b031916908160001a90535060006110e1846002611ef8565b6110ec906001611ecc565b90505b6001811115611180576f181899199a1a9b1b9c1cb0b131b232b360811b85600f166010811061112e57634e487b7160e01b600052603260045260246000fd5b1a60f81b82828151811061115257634e487b7160e01b600052603260045260246000fd5b60200101906001600160f81b031916908160001a90535060049490941c9361117981611f5a565b90506110ef565b508315610e735760405162461bcd60e51b81526004016104519061197a565b60006111b3846001600160a01b031661147c565b156112af57836001600160a01b031663150b7a026111cf610a26565b8786866040518563ffffffff1660e01b81526004016111f19493929190611901565b602060405180830381600087803b15801561120b57600080fd5b505af192505050801561123b575060408051601f3d908101601f19168201909252611238918101906117ab565b60015b611295573d808015611269576040519150601f19603f3d011682016040523d82523d6000602084013e61126e565b606091505b50805161128d5760405162461bcd60e51b8152600401610451906119af565b805181602001fd5b6001600160e01b031916630a85bd0160e11b1490506108d6565b506001949350505050565b6060816112df57506040805180820190915260018152600360fc1b6020820152610393565b8160005b811561130957806112f381611fa6565b91506113029050600a83611ee4565b91506112e3565b60008167ffffffffffffffff81111561133257634e487b7160e01b600052604160045260246000fd5b6040519080825280601f01601f19166020018201604052801561135c576020820181803683370190505b5090505b84156108d657611371600183611f17565b915061137e600a86611fc1565b611389906030611ecc565b60f81b8183815181106113ac57634e487b7160e01b600052603260045260246000fd5b60200101906001600160f81b031916908160001a9053506113ce600a86611ee4565b9450611360565b60006113e0826105e0565b90506113ee81600084610509565b6113f9600083610a2a565b6001600160a01b0381166000908152600360205260408120805460019290611422908490611f17565b909155505060008281526002602052604080822080546001600160a01b0319169055518391906001600160a01b038416907fddf252ad1be2c89b69c2b068fc378daa952ba7f163c4a11628f55a4df523b3ef908390a45050565b3b151590565b82805461148e90611f71565b90600052602060002090601f0160209004810192826114b057600085556114f6565b82601f106114c957805160ff19168380011785556114f6565b828001600101855582156114f6579182015b828111156114f65782518255916020019190600101906114db565b5061150292915061153e565b5090565b50805461151290611f71565b6000825580601f106115245750610fea565b601f016020900490600052602060002090810190610fea91905b5b80821115611502576000815560010161153f565b600067ffffffffffffffff8084111561156e5761156e612001565b604051601f8501601f19168101602001828111828210171561159257611592612001565b6040528481529150818385018610156115aa57600080fd5b8484602083013760006020868301015250509392505050565b80356001600160a01b038116811461039357600080fd5b6000602082840312156115eb578081fd5b610e73826115c3565b60008060408385031215611606578081fd5b61160f836115c3565b915061161d602084016115c3565b90509250929050565b60008060006060848603121561163a578081fd5b611643846115c3565b9250611651602085016115c3565b9150604084013590509250925092565b60008060008060808587031215611676578081fd5b61167f856115c3565b935061168d602086016115c3565b925060408501359150606085013567ffffffffffffffff8111156116af578182fd5b8501601f810187136116bf578182fd5b6116ce87823560208401611553565b91505092959194509250565b600080604083850312156116ec578182fd5b6116f5836115c3565b9150602083013561170581612017565b809150509250929050565b60008060408385031215611722578182fd5b61172b836115c3565b946020939093013593505050565b60006020828403121561174a578081fd5b8151610e7381612017565b600060208284031215611766578081fd5b5035919050565b6000806040838503121561177f578182fd5b8235915061161d602084016115c3565b6000602082840312156117a0578081fd5b8135610e7381612025565b6000602082840312156117bc578081fd5b8151610e7381612025565b600080604083850312156117d9578182fd5b823567ffffffffffffffff8111156117ef578283fd5b8301601f810185136117ff578283fd5b61180e85823560208401611553565b95602094909401359450505050565b60008151808452611835816020860160208601611f2e565b601f01601f19169290920160200192915050565b6000835161185b818460208801611f2e565b83519083019061186f818360208801611f2e565b01949350505050565b60007f416363657373436f6e74726f6c3a206163636f756e7420000000000000000000825283516118b0816017850160208801611f2e565b7001034b99036b4b9b9b4b733903937b6329607d1b60179184019182015283516118e1816028840160208801611f2e565b01602801949350505050565b6001600160a01b0391909116815260200190565b6001600160a01b03858116825284166020820152604081018390526080606082018190526000906119349083018461181d565b9695505050505050565b901515815260200190565b90815260200190565b6001600160e01b031991909116815260200190565b600060208252610e73602083018461181d565b6020808252818101527f537472696e67733a20686578206c656e67746820696e73756666696369656e74604082015260600190565b60208082526032908201527f4552433732313a207472616e7366657220746f206e6f6e20455243373231526560408201527131b2b4bb32b91034b6b83632b6b2b73a32b960711b606082015260800190565b6020808252601c908201527f4552433732313a20746f6b656e20616c7265616479206d696e74656400000000604082015260600190565b60208082526024908201527f4552433732313a207472616e7366657220746f20746865207a65726f206164646040820152637265737360e01b606082015260800190565b60208082526019908201527f4552433732313a20617070726f766520746f2063616c6c657200000000000000604082015260600190565b6020808252602c908201527f4552433732313a206f70657261746f7220717565727920666f72206e6f6e657860408201526b34b9ba32b73a103a37b5b2b760a11b606082015260800190565b60208082526038908201527f4552433732313a20617070726f76652063616c6c6572206973206e6f74206f7760408201527f6e6572206e6f7220617070726f76656420666f7220616c6c0000000000000000606082015260800190565b6020808252602a908201527f4552433732313a2062616c616e636520717565727920666f7220746865207a65604082015269726f206164647265737360b01b606082015260800190565b60208082526029908201527f4552433732313a206f776e657220717565727920666f72206e6f6e657869737460408201526832b73a103a37b5b2b760b91b606082015260800190565b6020808252602e908201527f45524337323155524953746f726167653a2055524920736574206f66206e6f6e60408201526d32bc34b9ba32b73a103a37b5b2b760911b606082015260800190565b60208082526024908201527f4449463a205761697420746f20746f6b656e27732065787069726174696f6e206040820152636461746560e01b606082015260800190565b6020808252818101527f4552433732313a206d696e7420746f20746865207a65726f2061646472657373604082015260600190565b60208082526031908201527f45524337323155524953746f726167653a2055524920717565727920666f72206040820152703737b732bc34b9ba32b73a103a37b5b2b760791b606082015260800190565b6020808252602c908201527f4552433732313a20617070726f76656420717565727920666f72206e6f6e657860408201526b34b9ba32b73a103a37b5b2b760a11b606082015260800190565b60208082526029908201527f4552433732313a207472616e73666572206f6620746f6b656e2074686174206960408201526839903737ba1037bbb760b91b606082015260800190565b6020808252602f908201527f4552433732314d657461646174613a2055524920717565727920666f72206e6f60408201526e3732bc34b9ba32b73a103a37b5b2b760891b606082015260800190565b60208082526021908201527f4552433732313a20617070726f76616c20746f2063757272656e74206f776e656040820152603960f91b606082015260800190565b60208082526031908201527f4552433732313a207472616e736665722063616c6c6572206973206e6f74206f6040820152701ddb995c881b9bdc88185c1c1c9bdd9959607a1b606082015260800190565b6020808252602f908201527f416363657373436f6e74726f6c3a2063616e206f6e6c792072656e6f756e636560408201526e103937b632b9903337b91039b2b63360891b606082015260800190565b60008219821115611edf57611edf611fd5565b500190565b600082611ef357611ef3611feb565b500490565b6000816000190483118215151615611f1257611f12611fd5565b500290565b600082821015611f2957611f29611fd5565b500390565b60005b83811015611f49578181015183820152602001611f31565b838111156107b75750506000910152565b600081611f6957611f69611fd5565b506000190190565b600281046001821680611f8557607f821691505b602082108114156109d557634e487b7160e01b600052602260045260246000fd5b6000600019821415611fba57611fba611fd5565b5060010190565b600082611fd057611fd0611feb565b500690565b634e487b7160e01b600052601160045260246000fd5b634e487b7160e01b600052601260045260246000fd5b634e487b7160e01b600052604160045260246000fd5b8015158114610fea57600080fd5b6001600160e01b031981168114610fea57600080fdfea2646970667358221220cf8e53626e2d879ab3dfd4a39fda539f5490f5bf4d238d5eac3b22d679b0260e64736f6c63430008000033",
  "immutableReferences": {},
  "source": "// SPDX-License-Identifier: MIT\npragma solidity ^0.8.0;\n\nimport \"@openzeppelin/contracts/token/ERC721/ERC721.sol\";\nimport \"@openzeppelin/contracts/token/ERC721/extensions/ERC721URIStorage.sol\";\nimport \"@openzeppelin/contracts/utils/Counters.sol\";\nimport \"@openzeppelin/contracts/access/AccessControl.sol\";\n\n\ncontract TokenFactoring is ERC721URIStorage, AccessControl {\n    using Counters for Counters.Counter;\n    Counters.Counter public _tokenIds;\n\n    mapping(uint256 => uint256) public expirationDate;\n\n    constructor() ERC721(\"Decentralized Invoice Factoring\", \"DIF\") {\n      _setupRole(DEFAULT_ADMIN_ROLE, msg.sender);\n  }\n\n    function supportsInterface(bytes4 interfaceId) public view virtual override(AccessControl, ERC721) returns (bool) {\n      return this.supportsInterface(interfaceId);\n  }\n\n    function createInvoice(string memory tokenURI, uint256 _expirationDate) public onlyRole(DEFAULT_ADMIN_ROLE) returns (uint256) {\n      _tokenIds.increment();\n      uint256 newItemId = _tokenIds.current();\n      _mint(msg.sender, newItemId);\n      _setTokenURI(newItemId, tokenURI);\n      expirationDate[newItemId] = ((_expirationDate * 1 days) + block.timestamp);\n      return newItemId;\n  }\n\n    function destroyInvoice(uint256 _tokenId) public onlyRole(DEFAULT_ADMIN_ROLE) returns (bool) {\n      require(block.timestamp > expirationDate[_tokenId], \"DIF: Wait to token's expiration date\");\n      ERC721URIStorage._burn(_tokenId);\n      if (expirationDate[_tokenId] != 0) {\n        delete expirationDate[_tokenId];\n      }\n      return true;\n  }\n\n  \n\n\n\n\n\n\n\n}\n",
  "sourcePath": "D:/Trabajo/0-Reservafs/Proyectos/DIF PROJECT/DIF/contracts/TokenFactoring.sol",
  "compiler": {
    "name": "solc",
    "version": "0.8.0+commit.c7dfd78e.Emscripten.clang"
  },
  "schemaVersion": "3.3.4",
  "updatedAt": "2021-08-03T04:34:00.623Z",
  "devdoc": {
    "kind": "dev",
    "methods": {
      "approve(address,uint256)": {
        "details": "See {IERC721-approve}."
      },
      "balanceOf(address)": {
        "details": "See {IERC721-balanceOf}."
      },
      "getApproved(uint256)": {
        "details": "See {IERC721-getApproved}."
      },
      "getRoleAdmin(bytes32)": {
        "details": "Returns the admin role that controls `role`. See {grantRole} and {revokeRole}. To change a role's admin, use {_setRoleAdmin}."
      },
      "grantRole(bytes32,address)": {
        "details": "Grants `role` to `account`. If `account` had not been already granted `role`, emits a {RoleGranted} event. Requirements: - the caller must have ``role``'s admin role."
      },
      "hasRole(bytes32,address)": {
        "details": "Returns `true` if `account` has been granted `role`."
      },
      "isApprovedForAll(address,address)": {
        "details": "See {IERC721-isApprovedForAll}."
      },
      "name()": {
        "details": "See {IERC721Metadata-name}."
      },
      "ownerOf(uint256)": {
        "details": "See {IERC721-ownerOf}."
      },
      "renounceRole(bytes32,address)": {
        "details": "Revokes `role` from the calling account. Roles are often managed via {grantRole} and {revokeRole}: this function's purpose is to provide a mechanism for accounts to lose their privileges if they are compromised (such as when a trusted device is misplaced). If the calling account had been granted `role`, emits a {RoleRevoked} event. Requirements: - the caller must be `account`."
      },
      "revokeRole(bytes32,address)": {
        "details": "Revokes `role` from `account`. If `account` had been granted `role`, emits a {RoleRevoked} event. Requirements: - the caller must have ``role``'s admin role."
      },
      "safeTransferFrom(address,address,uint256)": {
        "details": "See {IERC721-safeTransferFrom}."
      },
      "safeTransferFrom(address,address,uint256,bytes)": {
        "details": "See {IERC721-safeTransferFrom}."
      },
      "setApprovalForAll(address,bool)": {
        "details": "See {IERC721-setApprovalForAll}."
      },
      "symbol()": {
        "details": "See {IERC721Metadata-symbol}."
      },
      "tokenURI(uint256)": {
        "details": "See {IERC721Metadata-tokenURI}."
      },
      "transferFrom(address,address,uint256)": {
        "details": "See {IERC721-transferFrom}."
      }
    },
    "version": 1
  },
  "userdoc": {
    "kind": "user",
    "methods": {},
    "version": 1
  }
}