{
  "contractName": "TokenFactoring",
  "abi": [
    {
      "inputs": [],
      "stateMutability": "nonpayable",
      "type": "constructor"
    },
    {
      "anonymous": false,
      "inputs": [
        {
          "indexed": true,
          "internalType": "address",
          "name": "owner",
          "type": "address"
        },
        {
          "indexed": true,
          "internalType": "address",
          "name": "approved",
          "type": "address"
        },
        {
          "indexed": true,
          "internalType": "uint256",
          "name": "tokenId",
          "type": "uint256"
        }
      ],
      "name": "Approval",
      "type": "event"
    },
    {
      "anonymous": false,
      "inputs": [
        {
          "indexed": true,
          "internalType": "address",
          "name": "owner",
          "type": "address"
        },
        {
          "indexed": true,
          "internalType": "address",
          "name": "operator",
          "type": "address"
        },
        {
          "indexed": false,
          "internalType": "bool",
          "name": "approved",
          "type": "bool"
        }
      ],
      "name": "ApprovalForAll",
      "type": "event"
    },
    {
      "anonymous": false,
      "inputs": [
        {
          "indexed": true,
          "internalType": "address",
          "name": "from",
          "type": "address"
        },
        {
          "indexed": true,
          "internalType": "address",
          "name": "to",
          "type": "address"
        },
        {
          "indexed": true,
          "internalType": "uint256",
          "name": "tokenId",
          "type": "uint256"
        }
      ],
      "name": "Transfer",
      "type": "event"
    },
    {
      "inputs": [
        {
          "internalType": "uint256",
          "name": "",
          "type": "uint256"
        }
      ],
      "name": "_dataTokens",
      "outputs": [
        {
          "internalType": "uint256",
          "name": "value",
          "type": "uint256"
        },
        {
          "internalType": "uint256",
          "name": "startupDate",
          "type": "uint256"
        },
        {
          "internalType": "uint256",
          "name": "expirationDate",
          "type": "uint256"
        },
        {
          "internalType": "string",
          "name": "description",
          "type": "string"
        },
        {
          "internalType": "string",
          "name": "dataBuyer",
          "type": "string"
        }
      ],
      "stateMutability": "view",
      "type": "function",
      "constant": true
    },
    {
      "inputs": [],
      "name": "_tokenIds",
      "outputs": [
        {
          "internalType": "uint256",
          "name": "_value",
          "type": "uint256"
        }
      ],
      "stateMutability": "view",
      "type": "function",
      "constant": true
    },
    {
      "inputs": [
        {
          "internalType": "address",
          "name": "to",
          "type": "address"
        },
        {
          "internalType": "uint256",
          "name": "tokenId",
          "type": "uint256"
        }
      ],
      "name": "approve",
      "outputs": [],
      "stateMutability": "nonpayable",
      "type": "function"
    },
    {
      "inputs": [
        {
          "internalType": "address",
          "name": "owner",
          "type": "address"
        }
      ],
      "name": "balanceOf",
      "outputs": [
        {
          "internalType": "uint256",
          "name": "",
          "type": "uint256"
        }
      ],
      "stateMutability": "view",
      "type": "function",
      "constant": true
    },
    {
      "inputs": [
        {
          "internalType": "uint256",
          "name": "tokenId",
          "type": "uint256"
        }
      ],
      "name": "getApproved",
      "outputs": [
        {
          "internalType": "address",
          "name": "",
          "type": "address"
        }
      ],
      "stateMutability": "view",
      "type": "function",
      "constant": true
    },
    {
      "inputs": [
        {
          "internalType": "address",
          "name": "owner",
          "type": "address"
        },
        {
          "internalType": "address",
          "name": "operator",
          "type": "address"
        }
      ],
      "name": "isApprovedForAll",
      "outputs": [
        {
          "internalType": "bool",
          "name": "",
          "type": "bool"
        }
      ],
      "stateMutability": "view",
      "type": "function",
      "constant": true
    },
    {
      "inputs": [],
      "name": "name",
      "outputs": [
        {
          "internalType": "string",
          "name": "",
          "type": "string"
        }
      ],
      "stateMutability": "view",
      "type": "function",
      "constant": true
    },
    {
      "inputs": [
        {
          "internalType": "uint256",
          "name": "tokenId",
          "type": "uint256"
        }
      ],
      "name": "ownerOf",
      "outputs": [
        {
          "internalType": "address",
          "name": "",
          "type": "address"
        }
      ],
      "stateMutability": "view",
      "type": "function",
      "constant": true
    },
    {
      "inputs": [
        {
          "internalType": "address",
          "name": "from",
          "type": "address"
        },
        {
          "internalType": "address",
          "name": "to",
          "type": "address"
        },
        {
          "internalType": "uint256",
          "name": "tokenId",
          "type": "uint256"
        }
      ],
      "name": "safeTransferFrom",
      "outputs": [],
      "stateMutability": "nonpayable",
      "type": "function"
    },
    {
      "inputs": [
        {
          "internalType": "address",
          "name": "from",
          "type": "address"
        },
        {
          "internalType": "address",
          "name": "to",
          "type": "address"
        },
        {
          "internalType": "uint256",
          "name": "tokenId",
          "type": "uint256"
        },
        {
          "internalType": "bytes",
          "name": "_data",
          "type": "bytes"
        }
      ],
      "name": "safeTransferFrom",
      "outputs": [],
      "stateMutability": "nonpayable",
      "type": "function"
    },
    {
      "inputs": [
        {
          "internalType": "address",
          "name": "operator",
          "type": "address"
        },
        {
          "internalType": "bool",
          "name": "approved",
          "type": "bool"
        }
      ],
      "name": "setApprovalForAll",
      "outputs": [],
      "stateMutability": "nonpayable",
      "type": "function"
    },
    {
      "inputs": [
        {
          "internalType": "bytes4",
          "name": "interfaceId",
          "type": "bytes4"
        }
      ],
      "name": "supportsInterface",
      "outputs": [
        {
          "internalType": "bool",
          "name": "",
          "type": "bool"
        }
      ],
      "stateMutability": "view",
      "type": "function",
      "constant": true
    },
    {
      "inputs": [],
      "name": "symbol",
      "outputs": [
        {
          "internalType": "string",
          "name": "",
          "type": "string"
        }
      ],
      "stateMutability": "view",
      "type": "function",
      "constant": true
    },
    {
      "inputs": [
        {
          "internalType": "uint256",
          "name": "tokenId",
          "type": "uint256"
        }
      ],
      "name": "tokenURI",
      "outputs": [
        {
          "internalType": "string",
          "name": "",
          "type": "string"
        }
      ],
      "stateMutability": "view",
      "type": "function",
      "constant": true
    },
    {
      "inputs": [
        {
          "internalType": "address",
          "name": "from",
          "type": "address"
        },
        {
          "internalType": "address",
          "name": "to",
          "type": "address"
        },
        {
          "internalType": "uint256",
          "name": "tokenId",
          "type": "uint256"
        }
      ],
      "name": "transferFrom",
      "outputs": [],
      "stateMutability": "nonpayable",
      "type": "function"
    },
    {
      "inputs": [
        {
          "internalType": "string",
          "name": "tokenURI",
          "type": "string"
        },
        {
          "internalType": "uint256",
          "name": "_value",
          "type": "uint256"
        },
        {
          "internalType": "uint256",
          "name": "_expirationDate",
          "type": "uint256"
        },
        {
          "internalType": "string",
          "name": "_description",
          "type": "string"
        },
        {
          "internalType": "string",
          "name": "_dataBuyer",
          "type": "string"
        }
      ],
      "name": "createInvoice",
      "outputs": [
        {
          "internalType": "uint256",
          "name": "",
          "type": "uint256"
        }
      ],
      "stateMutability": "nonpayable",
      "type": "function"
    },
    {
      "inputs": [
        {
          "internalType": "uint256",
          "name": "tokenId",
          "type": "uint256"
        }
      ],
      "name": "getDataToken",
      "outputs": [
        {
          "internalType": "uint256",
          "name": "value",
          "type": "uint256"
        },
        {
          "internalType": "uint256",
          "name": "startupDate",
          "type": "uint256"
        },
        {
          "internalType": "uint256",
          "name": "expirationDate",
          "type": "uint256"
        },
        {
          "internalType": "string",
          "name": "description",
          "type": "string"
        },
        {
          "internalType": "string",
          "name": "dataBuyer",
          "type": "string"
        }
      ],
      "stateMutability": "view",
      "type": "function",
      "constant": true
    }
  ],
  "bytecode": "0x60806040523480156200001157600080fd5b50604080518082018252601f81527f446563656e7472616c697a656420496e766f69636520466163746f72696e67006020808301918252835180850190945260038452622224a360e91b908401528151919291620000729160009162000091565b5080516200008890600190602084019062000091565b50505062000174565b8280546200009f9062000137565b90600052602060002090601f016020900481019282620000c357600085556200010e565b82601f10620000de57805160ff19168380011785556200010e565b828001600101855582156200010e579182015b828111156200010e578251825591602001919060010190620000f1565b506200011c92915062000120565b5090565b5b808211156200011c576000815560010162000121565b6002810460018216806200014c57607f821691505b602082108114156200016e57634e487b7160e01b600052602260045260246000fd5b50919050565b611c2680620001846000396000f3fe608060405234801561001057600080fd5b506004361061010b5760003560e01c80636685e736116100a2578063a699178311610071578063a69917831461022e578063aa46a40014610241578063b88d4fde14610249578063c87b56dd1461025c578063e985e9c51461026f5761010b565b80636685e736146101dc57806370a082311461020057806395d89b4114610213578063a22cb4651461021b5761010b565b806323b872dd116100de57806323b872dd1461018357806342842e0e14610196578063522510c1146101a95780636352211e146101c95761010b565b806301ffc9a71461011057806306fdde0314610139578063081812fc1461014e578063095ea7b31461016e575b600080fd5b61012361011e366004611415565b610282565b60405161013091906115a9565b60405180910390f35b6101416102ca565b60405161013091906115b4565b61016161015c3660046114e5565b61035c565b6040516101309190611558565b61018161017c3660046113ec565b6103a8565b005b6101816101913660046112fe565b610440565b6101816101a43660046112fe565b610478565b6101bc6101b736600461144d565b610493565b6040516101309190611a51565b6101616101d73660046114e5565b610567565b6101ef6101ea3660046114e5565b61059c565b604051610130959493929190611a5a565b6101bc61020e3660046112b2565b6106f7565b61014161073b565b6101816102293660046113b2565b61074a565b6101ef61023c3660046114e5565b610818565b6101bc610959565b610181610257366004611339565b61095f565b61014161026a3660046114e5565b61099e565b61012361027d3660046112cc565b610abf565b60006001600160e01b031982166380ac58cd60e01b14806102b357506001600160e01b03198216635b5e139f60e01b145b806102c257506102c282610aed565b90505b919050565b6060600080546102d990611b2b565b80601f016020809104026020016040519081016040528092919081815260200182805461030590611b2b565b80156103525780601f1061032757610100808354040283529160200191610352565b820191906000526020600020905b81548152906001019060200180831161033557829003601f168201915b5050505050905090565b600061036782610b06565b61038c5760405162461bcd60e51b8152600401610383906118db565b60405180910390fd5b506000908152600460205260409020546001600160a01b031690565b60006103b382610567565b9050806001600160a01b0316836001600160a01b031614156103e75760405162461bcd60e51b8152600401610383906119bf565b806001600160a01b03166103f9610b23565b6001600160a01b0316148061041557506104158161027d610b23565b6104315760405162461bcd60e51b815260040161038390611717565b61043b8383610b27565b505050565b61045161044b610b23565b82610b95565b61046d5760405162461bcd60e51b815260040161038390611a00565b61043b838383610c12565b61043b8383836040518060200160405280600081525061095f565b600061049f6007610d3f565b60006104ab6007610d48565b90506104b73382610d4c565b6104c18188610e2b565b426104cf8662015180611ac9565b6104d99190611a9d565b6040805160a081018252888152426020808301918252828401858152606084018a8152608085018a9052600088815260088452959095208451815592516001840155516002830155925180519499509193909261053d926003850192910190611173565b5060808201518051610559916004840191602090910190611173565b509198975050505050505050565b6000818152600260205260408120546001600160a01b0316806102c25760405162461bcd60e51b8152600401610383906117be565b6000818152600860205260409020805460018201546002830154600390930180549293919260609182916105cf90611b2b565b80601f01602080910402602001604051908101604052809291908181526020018280546105fb90611b2b565b80156106485780601f1061061d57610100808354040283529160200191610648565b820191906000526020600020905b81548152906001019060200180831161062b57829003601f168201915b505050600089815260086020526040902060040180549395509261066e92509050611b2b565b80601f016020809104026020016040519081016040528092919081815260200182805461069a90611b2b565b80156106e75780601f106106bc576101008083540402835291602001916106e7565b820191906000526020600020905b8154815290600101906020018083116106ca57829003601f168201915b5050505050905091939590929450565b60006001600160a01b03821661071f5760405162461bcd60e51b815260040161038390611774565b506001600160a01b031660009081526003602052604090205490565b6060600180546102d990611b2b565b610752610b23565b6001600160a01b0316826001600160a01b031614156107835760405162461bcd60e51b815260040161038390611694565b8060056000610790610b23565b6001600160a01b03908116825260208083019390935260409182016000908120918716808252919093529120805460ff1916921515929092179091556107d4610b23565b6001600160a01b03167f17307eab39ab6107e8899845ad3d59bd9653f200f220920489ca2b5937696c318360405161080c91906115a9565b60405180910390a35050565b60086020526000908152604090208054600182015460028301546003840180549394929391929161084890611b2b565b80601f016020809104026020016040519081016040528092919081815260200182805461087490611b2b565b80156108c15780601f10610896576101008083540402835291602001916108c1565b820191906000526020600020905b8154815290600101906020018083116108a457829003601f168201915b5050505050908060040180546108d690611b2b565b80601f016020809104026020016040519081016040528092919081815260200182805461090290611b2b565b801561094f5780601f106109245761010080835404028352916020019161094f565b820191906000526020600020905b81548152906001019060200180831161093257829003601f168201915b5050505050905085565b60075481565b61097061096a610b23565b83610b95565b61098c5760405162461bcd60e51b815260040161038390611a00565b61099884848484610e6f565b50505050565b60606109a982610b06565b6109c55760405162461bcd60e51b81526004016103839061188a565b600082815260066020526040812080546109de90611b2b565b80601f0160208091040260200160405190810160405280929190818152602001828054610a0a90611b2b565b8015610a575780601f10610a2c57610100808354040283529160200191610a57565b820191906000526020600020905b815481529060010190602001808311610a3a57829003601f168201915b505050505090506000610a68610ea2565b9050805160001415610a7c575090506102c5565b815115610aae578082604051602001610a96929190611529565b604051602081830303815290604052925050506102c5565b610ab784610eb4565b949350505050565b6001600160a01b03918216600090815260056020908152604080832093909416825291909152205460ff1690565b6001600160e01b031981166301ffc9a760e01b14919050565b6000908152600260205260409020546001600160a01b0316151590565b3390565b600081815260046020526040902080546001600160a01b0319166001600160a01b0384169081179091558190610b5c82610567565b6001600160a01b03167f8c5be1e5ebec7d5bd14f71427d1e84f3dd0314c0f7b2291e5b200ac8c7c3b92560405160405180910390a45050565b6000610ba082610b06565b610bbc5760405162461bcd60e51b8152600401610383906116cb565b6000610bc783610567565b9050806001600160a01b0316846001600160a01b03161480610c025750836001600160a01b0316610bf78461035c565b6001600160a01b0316145b80610ab75750610ab78185610abf565b826001600160a01b0316610c2582610567565b6001600160a01b031614610c4b5760405162461bcd60e51b815260040161038390611927565b6001600160a01b038216610c715760405162461bcd60e51b815260040161038390611650565b610c7c83838361043b565b610c87600082610b27565b6001600160a01b0383166000908152600360205260408120805460019290610cb0908490611ae8565b90915550506001600160a01b0382166000908152600360205260408120805460019290610cde908490611a9d565b909155505060008181526002602052604080822080546001600160a01b0319166001600160a01b0386811691821790925591518493918716917fddf252ad1be2c89b69c2b068fc378daa952ba7f163c4a11628f55a4df523b3ef91a4505050565b80546001019055565b5490565b6001600160a01b038216610d725760405162461bcd60e51b815260040161038390611855565b610d7b81610b06565b15610d985760405162461bcd60e51b815260040161038390611619565b610da46000838361043b565b6001600160a01b0382166000908152600360205260408120805460019290610dcd908490611a9d565b909155505060008181526002602052604080822080546001600160a01b0319166001600160a01b03861690811790915590518392907fddf252ad1be2c89b69c2b068fc378daa952ba7f163c4a11628f55a4df523b3ef908290a45050565b610e3482610b06565b610e505760405162461bcd60e51b815260040161038390611807565b6000828152600660209081526040909120825161043b92840190611173565b610e7a848484610c12565b610e8684848484610f37565b6109985760405162461bcd60e51b8152600401610383906115c7565b60408051602081019091526000815290565b6060610ebf82610b06565b610edb5760405162461bcd60e51b815260040161038390611970565b6000610ee5610ea2565b90506000815111610f055760405180602001604052806000815250610f30565b80610f0f84611052565b604051602001610f20929190611529565b6040516020818303038152906040525b9392505050565b6000610f4b846001600160a01b031661116d565b1561104757836001600160a01b031663150b7a02610f67610b23565b8786866040518563ffffffff1660e01b8152600401610f89949392919061156c565b602060405180830381600087803b158015610fa357600080fd5b505af1925050508015610fd3575060408051601f3d908101601f19168201909252610fd091810190611431565b60015b61102d573d808015611001576040519150601f19603f3d011682016040523d82523d6000602084013e611006565b606091505b5080516110255760405162461bcd60e51b8152600401610383906115c7565b805181602001fd5b6001600160e01b031916630a85bd0160e11b149050610ab7565b506001949350505050565b60608161107757506040805180820190915260018152600360fc1b60208201526102c5565b8160005b81156110a1578061108b81611b66565b915061109a9050600a83611ab5565b915061107b565b60008167ffffffffffffffff8111156110ca57634e487b7160e01b600052604160045260246000fd5b6040519080825280601f01601f1916602001820160405280156110f4576020820181803683370190505b5090505b8415610ab757611109600183611ae8565b9150611116600a86611b81565b611121906030611a9d565b60f81b81838151811061114457634e487b7160e01b600052603260045260246000fd5b60200101906001600160f81b031916908160001a905350611166600a86611ab5565b94506110f8565b3b151590565b82805461117f90611b2b565b90600052602060002090601f0160209004810192826111a157600085556111e7565b82601f106111ba57805160ff19168380011785556111e7565b828001600101855582156111e7579182015b828111156111e75782518255916020019190600101906111cc565b506111f39291506111f7565b5090565b5b808211156111f357600081556001016111f8565b600067ffffffffffffffff8084111561122757611227611bc1565b604051601f8501601f19168101602001828111828210171561124b5761124b611bc1565b60405284815291508183850186101561126357600080fd5b8484602083013760006020868301015250509392505050565b80356001600160a01b03811681146102c557600080fd5b600082601f8301126112a3578081fd5b610f308383356020850161120c565b6000602082840312156112c3578081fd5b610f308261127c565b600080604083850312156112de578081fd5b6112e78361127c565b91506112f56020840161127c565b90509250929050565b600080600060608486031215611312578081fd5b61131b8461127c565b92506113296020850161127c565b9150604084013590509250925092565b6000806000806080858703121561134e578081fd5b6113578561127c565b93506113656020860161127c565b925060408501359150606085013567ffffffffffffffff811115611387578182fd5b8501601f81018713611397578182fd5b6113a68782356020840161120c565b91505092959194509250565b600080604083850312156113c4578182fd5b6113cd8361127c565b9150602083013580151581146113e1578182fd5b809150509250929050565b600080604083850312156113fe578182fd5b6114078361127c565b946020939093013593505050565b600060208284031215611426578081fd5b8135610f3081611bd7565b600060208284031215611442578081fd5b8151610f3081611bd7565b600080600080600060a08688031215611464578081fd5b853567ffffffffffffffff8082111561147b578283fd5b61148789838a01611293565b9650602088013595506040880135945060608801359150808211156114aa578283fd5b6114b689838a01611293565b935060808801359150808211156114cb578283fd5b506114d888828901611293565b9150509295509295909350565b6000602082840312156114f6578081fd5b5035919050565b60008151808452611515816020860160208601611aff565b601f01601f19169290920160200192915050565b6000835161153b818460208801611aff565b83519083019061154f818360208801611aff565b01949350505050565b6001600160a01b0391909116815260200190565b6001600160a01b038581168252841660208201526040810183905260806060820181905260009061159f908301846114fd565b9695505050505050565b901515815260200190565b600060208252610f3060208301846114fd565b60208082526032908201527f4552433732313a207472616e7366657220746f206e6f6e20455243373231526560408201527131b2b4bb32b91034b6b83632b6b2b73a32b960711b606082015260800190565b6020808252601c908201527f4552433732313a20746f6b656e20616c7265616479206d696e74656400000000604082015260600190565b60208082526024908201527f4552433732313a207472616e7366657220746f20746865207a65726f206164646040820152637265737360e01b606082015260800190565b60208082526019908201527f4552433732313a20617070726f766520746f2063616c6c657200000000000000604082015260600190565b6020808252602c908201527f4552433732313a206f70657261746f7220717565727920666f72206e6f6e657860408201526b34b9ba32b73a103a37b5b2b760a11b606082015260800190565b60208082526038908201527f4552433732313a20617070726f76652063616c6c6572206973206e6f74206f7760408201527f6e6572206e6f7220617070726f76656420666f7220616c6c0000000000000000606082015260800190565b6020808252602a908201527f4552433732313a2062616c616e636520717565727920666f7220746865207a65604082015269726f206164647265737360b01b606082015260800190565b60208082526029908201527f4552433732313a206f776e657220717565727920666f72206e6f6e657869737460408201526832b73a103a37b5b2b760b91b606082015260800190565b6020808252602e908201527f45524337323155524953746f726167653a2055524920736574206f66206e6f6e60408201526d32bc34b9ba32b73a103a37b5b2b760911b606082015260800190565b6020808252818101527f4552433732313a206d696e7420746f20746865207a65726f2061646472657373604082015260600190565b60208082526031908201527f45524337323155524953746f726167653a2055524920717565727920666f72206040820152703737b732bc34b9ba32b73a103a37b5b2b760791b606082015260800190565b6020808252602c908201527f4552433732313a20617070726f76656420717565727920666f72206e6f6e657860408201526b34b9ba32b73a103a37b5b2b760a11b606082015260800190565b60208082526029908201527f4552433732313a207472616e73666572206f6620746f6b656e2074686174206960408201526839903737ba1037bbb760b91b606082015260800190565b6020808252602f908201527f4552433732314d657461646174613a2055524920717565727920666f72206e6f60408201526e3732bc34b9ba32b73a103a37b5b2b760891b606082015260800190565b60208082526021908201527f4552433732313a20617070726f76616c20746f2063757272656e74206f776e656040820152603960f91b606082015260800190565b60208082526031908201527f4552433732313a207472616e736665722063616c6c6572206973206e6f74206f6040820152701ddb995c881b9bdc88185c1c1c9bdd9959607a1b606082015260800190565b90815260200190565b600086825285602083015284604083015260a06060830152611a7f60a08301856114fd565b8281036080840152611a9181856114fd565b98975050505050505050565b60008219821115611ab057611ab0611b95565b500190565b600082611ac457611ac4611bab565b500490565b6000816000190483118215151615611ae357611ae3611b95565b500290565b600082821015611afa57611afa611b95565b500390565b60005b83811015611b1a578181015183820152602001611b02565b838111156109985750506000910152565b600281046001821680611b3f57607f821691505b60208210811415611b6057634e487b7160e01b600052602260045260246000fd5b50919050565b6000600019821415611b7a57611b7a611b95565b5060010190565b600082611b9057611b90611bab565b500690565b634e487b7160e01b600052601160045260246000fd5b634e487b7160e01b600052601260045260246000fd5b634e487b7160e01b600052604160045260246000fd5b6001600160e01b031981168114611bed57600080fd5b5056fea2646970667358221220b10694aa02a4d708f6742b0fce6ba773b1e32c0f6d123474030132c5c196248364736f6c63430008000033",
  "immutableReferences": {},
  "source": "// SPDX-License-Identifier: MIT\npragma solidity ^0.8.0;\n\nimport \"@openzeppelin/contracts/token/ERC721/ERC721.sol\";\nimport \"@openzeppelin/contracts/token/ERC721/extensions/ERC721URIStorage.sol\";\nimport \"@openzeppelin/contracts/utils/Counters.sol\";\n\n\ncontract TokenFactoring is ERC721URIStorage {\n    using Counters for Counters.Counter;\n    Counters.Counter public _tokenIds;\n    \n    struct Data {\n        uint256 value;\n        uint256 startupDate;\n        uint256 expirationDate;\n        string description;\n        string dataBuyer;\n    }\n\n  mapping (uint256 => Data) public _dataTokens;\n\n  constructor() ERC721(\"Decentralized Invoice Factoring\", \"DIF\") {\n\n  }\n\n  function createInvoice(string memory tokenURI, uint256 _value, uint256 _expirationDate, string memory _description, string memory _dataBuyer) public returns(uint256) {\n    _tokenIds.increment();\n    uint256 newItemId = _tokenIds.current();\n    _mint(msg.sender, newItemId);\n    _setTokenURI(newItemId, tokenURI);\n    _expirationDate = (_expirationDate * 1 days) + block.timestamp;\n    _dataTokens[newItemId] = Data(_value, block.timestamp, _expirationDate, _description, _dataBuyer); \n     return newItemId;\n  }\n  \n\n  function getDataToken(uint256 tokenId) public view returns(uint256 value, uint256 startupDate, uint256 expirationDate, string memory description, string memory dataBuyer) {\n    value = _dataTokens[tokenId].value;\n    startupDate = _dataTokens[tokenId].startupDate;\n    expirationDate = _dataTokens[tokenId].expirationDate;\n    description = _dataTokens[tokenId].description;\n    dataBuyer = _dataTokens[tokenId].dataBuyer;\n  }\n\n  \n\n\n\n\n\n\n\n}\n",
  "sourcePath": "D:/Trabajo/0-Reservafs/Proyectos/DIF/contracts/TokenFactoring.sol",
  "compiler": {
    "name": "solc",
    "version": "0.8.0+commit.c7dfd78e.Emscripten.clang"
  },
  "schemaVersion": "3.3.4",
  "updatedAt": "2021-07-02T06:28:45.245Z",
  "networkType": "ethereum",
  "devdoc": {
    "kind": "dev",
    "methods": {
      "approve(address,uint256)": {
        "details": "See {IERC721-approve}."
      },
      "balanceOf(address)": {
        "details": "See {IERC721-balanceOf}."
      },
      "getApproved(uint256)": {
        "details": "See {IERC721-getApproved}."
      },
      "isApprovedForAll(address,address)": {
        "details": "See {IERC721-isApprovedForAll}."
      },
      "name()": {
        "details": "See {IERC721Metadata-name}."
      },
      "ownerOf(uint256)": {
        "details": "See {IERC721-ownerOf}."
      },
      "safeTransferFrom(address,address,uint256)": {
        "details": "See {IERC721-safeTransferFrom}."
      },
      "safeTransferFrom(address,address,uint256,bytes)": {
        "details": "See {IERC721-safeTransferFrom}."
      },
      "setApprovalForAll(address,bool)": {
        "details": "See {IERC721-setApprovalForAll}."
      },
      "supportsInterface(bytes4)": {
        "details": "See {IERC165-supportsInterface}."
      },
      "symbol()": {
        "details": "See {IERC721Metadata-symbol}."
      },
      "tokenURI(uint256)": {
        "details": "See {IERC721Metadata-tokenURI}."
      },
      "transferFrom(address,address,uint256)": {
        "details": "See {IERC721-transferFrom}."
      }
    },
    "version": 1
  },
  "userdoc": {
    "kind": "user",
    "methods": {},
    "version": 1
  }
}